{
  "_format": "hh-sol-artifact-1",
  "contractName": "GuardManager",
  "sourceName": "third_party/safe-contracts/contracts/base/GuardManager.sol",
  "abi": [
    {
      "anonymous": false,
      "inputs": [
        {
          "indexed": false,
          "internalType": "address",
          "name": "guard",
          "type": "address"
        }
      ],
      "name": "ChangedGuard",
      "type": "event"
    },
    {
      "inputs": [
        {
          "internalType": "address",
          "name": "guard",
          "type": "address"
        }
      ],
      "name": "setGuard",
      "outputs": [],
      "stateMutability": "nonpayable",
      "type": "function"
    }
  ],
  "bytecode": "0x608060405234801561001057600080fd5b5061028f806100206000396000f3fe608060405234801561001057600080fd5b506004361061002b5760003560e01c8063e19a9dd914610030575b600080fd5b6100636004803603602081101561004657600080fd5b503573ffffffffffffffffffffffffffffffffffffffff16610065565b005b61006d610203565b73ffffffffffffffffffffffffffffffffffffffff81161561019257604080517f01ffc9a70000000000000000000000000000000000000000000000000000000081527fe6d7a83a000000000000000000000000000000000000000000000000000000006004820152905173ffffffffffffffffffffffffffffffffffffffff8316916301ffc9a7916024808301926020929190829003018186803b15801561011557600080fd5b505afa158015610129573d6000803e3d6000fd5b505050506040513d602081101561013f57600080fd5b5051610192576040805162461bcd60e51b815260206004820152600560248201527f4753333030000000000000000000000000000000000000000000000000000000604482015290519081900360640190fd5b7f4a204f620c8c5ccdca3fd54d003badd85ba500436a431f0cbda4f558c93c34c88181556040805173ffffffffffffffffffffffffffffffffffffffff8416815290517f1151116914515bc0891ff9047a6cb32cf902546f83066499bcf8ba33d2353fa29181900360200190a15050565b333014610257576040805162461bcd60e51b815260206004820152600560248201527f4753303331000000000000000000000000000000000000000000000000000000604482015290519081900360640190fd5b56fea26469706673582212208df141f348f9a6798fb07f13947e013e94b6e6cee0c6a732b570c0296e59f0f964736f6c63430007010033",
  "linkReferences": {},
  "deployedLinkReferences": {}
}