{
  "third_party/safe-contracts/contracts/libraries/CreateCall.sol": {
    "CreateCall": {
      "abi": [
        {
          "anonymous": false,
          "inputs": [
            {
              "indexed": false,
              "internalType": "address",
              "name": "newContract",
              "type": "address"
            }
          ],
          "name": "ContractCreation",
          "type": "event"
        },
        {
          "inputs": [
            {
              "internalType": "uint256",
              "name": "value",
              "type": "uint256"
            },
            {
              "internalType": "bytes",
              "name": "deploymentData",
              "type": "bytes"
            }
          ],
          "name": "performCreate",
          "outputs": [
            {
              "internalType": "address",
              "name": "newContract",
              "type": "address"
            }
          ],
          "stateMutability": "nonpayable",
          "type": "function"
        },
        {
          "inputs": [
            {
              "internalType": "uint256",
              "name": "value",
              "type": "uint256"
            },
            {
              "internalType": "bytes",
              "name": "deploymentData",
              "type": "bytes"
            },
            {
              "internalType": "bytes32",
              "name": "salt",
              "type": "bytes32"
            }
          ],
          "name": "performCreate2",
          "outputs": [
            {
              "internalType": "address",
              "name": "newContract",
              "type": "address"
            }
          ],
          "stateMutability": "nonpayable",
          "type": "function"
        }
      ],
      "devdoc": {
        "author": "Richard Meissner - <richard@gnosis.io>",
        "kind": "dev",
        "methods": {},
        "title": "Create Call - Allows to use the different create opcodes to deploy a contract",
        "version": 1
      },
      "evm": {
        "bytecode": {
          "linkReferences": {},
          "object": "608060405234801561001057600080fd5b5061033d806100206000396000f3fe608060405234801561001057600080fd5b50600436106100365760003560e01c80634847be6f1461003b5780634c8c9ea114610106575b600080fd5b6100ea6004803603606081101561005157600080fd5b8135919081019060408101602082013564010000000081111561007357600080fd5b82018360208201111561008557600080fd5b803590602001918460018302840111640100000000831117156100a757600080fd5b91908080601f01602080910402602001604051908101604052809392919081815260200183838082843760009201919091525092955050913592506101b3915050565b604080516001600160a01b039092168252519081900360200190f35b6100ea6004803603604081101561011c57600080fd5b8135919081019060408101602082013564010000000081111561013e57600080fd5b82018360208201111561015057600080fd5b8035906020019184600183028401116401000000008311171561017257600080fd5b91908080601f01602080910402602001604051908101604052809392919081815260200183838082843760009201919091525092955061025e945050505050565b60008183518460200186f590506001600160a01b03811661021b576040805162461bcd60e51b815260206004820152601960248201527f436f756c64206e6f74206465706c6f7920636f6e747261637400000000000000604482015290519081900360640190fd5b604080516001600160a01b038316815290517f4db17dd5e4732fb6da34a148104a592783ca119a1e7bb8829eba6cbadef0b5119181900360200190a19392505050565b600081516020830184f090506001600160a01b0381166102c5576040805162461bcd60e51b815260206004820152601960248201527f436f756c64206e6f74206465706c6f7920636f6e747261637400000000000000604482015290519081900360640190fd5b604080516001600160a01b038316815290517f4db17dd5e4732fb6da34a148104a592783ca119a1e7bb8829eba6cbadef0b5119181900360200190a19291505056fea264697066735822122091fd63103c4252b252353e18e97d260c653cb67c35f6197bf7a5bc50e24ede9464736f6c63430007010033",
          "opcodes": "PUSH1 0x80 PUSH1 0x40 MSTORE CALLVALUE DUP1 ISZERO PUSH2 0x10 JUMPI PUSH1 0x0 DUP1 REVERT JUMPDEST POP PUSH2 0x33D DUP1 PUSH2 0x20 PUSH1 0x0 CODECOPY PUSH1 0x0 RETURN INVALID PUSH1 0x80 PUSH1 0x40 MSTORE CALLVALUE DUP1 ISZERO PUSH2 0x10 JUMPI PUSH1 0x0 DUP1 REVERT JUMPDEST POP PUSH1 0x4 CALLDATASIZE LT PUSH2 0x36 JUMPI PUSH1 0x0 CALLDATALOAD PUSH1 0xE0 SHR DUP1 PUSH4 0x4847BE6F EQ PUSH2 0x3B JUMPI DUP1 PUSH4 0x4C8C9EA1 EQ PUSH2 0x106 JUMPI JUMPDEST PUSH1 0x0 DUP1 REVERT JUMPDEST PUSH2 0xEA PUSH1 0x4 DUP1 CALLDATASIZE SUB PUSH1 0x60 DUP2 LT ISZERO PUSH2 0x51 JUMPI PUSH1 0x0 DUP1 REVERT JUMPDEST DUP2 CALLDATALOAD SWAP2 SWAP1 DUP2 ADD SWAP1 PUSH1 0x40 DUP2 ADD PUSH1 0x20 DUP3 ADD CALLDATALOAD PUSH5 0x100000000 DUP2 GT ISZERO PUSH2 0x73 JUMPI PUSH1 0x0 DUP1 REVERT JUMPDEST DUP3 ADD DUP4 PUSH1 0x20 DUP3 ADD GT ISZERO PUSH2 0x85 JUMPI PUSH1 0x0 DUP1 REVERT JUMPDEST DUP1 CALLDATALOAD SWAP1 PUSH1 0x20 ADD SWAP2 DUP5 PUSH1 0x1 DUP4 MUL DUP5 ADD GT PUSH5 0x100000000 DUP4 GT OR ISZERO PUSH2 0xA7 JUMPI PUSH1 0x0 DUP1 REVERT JUMPDEST SWAP2 SWAP1 DUP1 DUP1 PUSH1 0x1F ADD PUSH1 0x20 DUP1 SWAP2 DIV MUL PUSH1 0x20 ADD PUSH1 0x40 MLOAD SWAP1 DUP2 ADD PUSH1 0x40 MSTORE DUP1 SWAP4 SWAP3 SWAP2 SWAP1 DUP2 DUP2 MSTORE PUSH1 0x20 ADD DUP4 DUP4 DUP1 DUP3 DUP5 CALLDATACOPY PUSH1 0x0 SWAP3 ADD SWAP2 SWAP1 SWAP2 MSTORE POP SWAP3 SWAP6 POP POP SWAP2 CALLDATALOAD SWAP3 POP PUSH2 0x1B3 SWAP2 POP POP JUMP JUMPDEST PUSH1 0x40 DUP1 MLOAD PUSH1 0x1 PUSH1 0x1 PUSH1 0xA0 SHL SUB SWAP1 SWAP3 AND DUP3 MSTORE MLOAD SWAP1 DUP2 SWAP1 SUB PUSH1 0x20 ADD SWAP1 RETURN JUMPDEST PUSH2 0xEA PUSH1 0x4 DUP1 CALLDATASIZE SUB PUSH1 0x40 DUP2 LT ISZERO PUSH2 0x11C JUMPI PUSH1 0x0 DUP1 REVERT JUMPDEST DUP2 CALLDATALOAD SWAP2 SWAP1 DUP2 ADD SWAP1 PUSH1 0x40 DUP2 ADD PUSH1 0x20 DUP3 ADD CALLDATALOAD PUSH5 0x100000000 DUP2 GT ISZERO PUSH2 0x13E JUMPI PUSH1 0x0 DUP1 REVERT JUMPDEST DUP3 ADD DUP4 PUSH1 0x20 DUP3 ADD GT ISZERO PUSH2 0x150 JUMPI PUSH1 0x0 DUP1 REVERT JUMPDEST DUP1 CALLDATALOAD SWAP1 PUSH1 0x20 ADD SWAP2 DUP5 PUSH1 0x1 DUP4 MUL DUP5 ADD GT PUSH5 0x100000000 DUP4 GT OR ISZERO PUSH2 0x172 JUMPI PUSH1 0x0 DUP1 REVERT JUMPDEST SWAP2 SWAP1 DUP1 DUP1 PUSH1 0x1F ADD PUSH1 0x20 DUP1 SWAP2 DIV MUL PUSH1 0x20 ADD PUSH1 0x40 MLOAD SWAP1 DUP2 ADD PUSH1 0x40 MSTORE DUP1 SWAP4 SWAP3 SWAP2 SWAP1 DUP2 DUP2 MSTORE PUSH1 0x20 ADD DUP4 DUP4 DUP1 DUP3 DUP5 CALLDATACOPY PUSH1 0x0 SWAP3 ADD SWAP2 SWAP1 SWAP2 MSTORE POP SWAP3 SWAP6 POP PUSH2 0x25E SWAP5 POP POP POP POP POP JUMP JUMPDEST PUSH1 0x0 DUP2 DUP4 MLOAD DUP5 PUSH1 0x20 ADD DUP7 CREATE2 SWAP1 POP PUSH1 0x1 PUSH1 0x1 PUSH1 0xA0 SHL SUB DUP2 AND PUSH2 0x21B JUMPI PUSH1 0x40 DUP1 MLOAD PUSH3 0x461BCD PUSH1 0xE5 SHL DUP2 MSTORE PUSH1 0x20 PUSH1 0x4 DUP3 ADD MSTORE PUSH1 0x19 PUSH1 0x24 DUP3 ADD MSTORE PUSH32 0x436F756C64206E6F74206465706C6F7920636F6E747261637400000000000000 PUSH1 0x44 DUP3 ADD MSTORE SWAP1 MLOAD SWAP1 DUP2 SWAP1 SUB PUSH1 0x64 ADD SWAP1 REVERT JUMPDEST PUSH1 0x40 DUP1 MLOAD PUSH1 0x1 PUSH1 0x1 PUSH1 0xA0 SHL SUB DUP4 AND DUP2 MSTORE SWAP1 MLOAD PUSH32 0x4DB17DD5E4732FB6DA34A148104A592783CA119A1E7BB8829EBA6CBADEF0B511 SWAP2 DUP2 SWAP1 SUB PUSH1 0x20 ADD SWAP1 LOG1 SWAP4 SWAP3 POP POP POP JUMP JUMPDEST PUSH1 0x0 DUP2 MLOAD PUSH1 0x20 DUP4 ADD DUP5 CREATE SWAP1 POP PUSH1 0x1 PUSH1 0x1 PUSH1 0xA0 SHL SUB DUP2 AND PUSH2 0x2C5 JUMPI PUSH1 0x40 DUP1 MLOAD PUSH3 0x461BCD PUSH1 0xE5 SHL DUP2 MSTORE PUSH1 0x20 PUSH1 0x4 DUP3 ADD MSTORE PUSH1 0x19 PUSH1 0x24 DUP3 ADD MSTORE PUSH32 0x436F756C64206E6F74206465706C6F7920636F6E747261637400000000000000 PUSH1 0x44 DUP3 ADD MSTORE SWAP1 MLOAD SWAP1 DUP2 SWAP1 SUB PUSH1 0x64 ADD SWAP1 REVERT JUMPDEST PUSH1 0x40 DUP1 MLOAD PUSH1 0x1 PUSH1 0x1 PUSH1 0xA0 SHL SUB DUP4 AND DUP2 MSTORE SWAP1 MLOAD PUSH32 0x4DB17DD5E4732FB6DA34A148104A592783CA119A1E7BB8829EBA6CBADEF0B511 SWAP2 DUP2 SWAP1 SUB PUSH1 0x20 ADD SWAP1 LOG1 SWAP3 SWAP2 POP POP JUMP INVALID LOG2 PUSH5 0x6970667358 0x22 SLT KECCAK256 SWAP2 REVERT PUSH4 0x103C4252 0xB2 MSTORE CALLDATALOAD RETURNDATACOPY XOR 0xE9 PUSH30 0x260C653CB67C35F6197BF7A5BC50E24EDE9464736F6C6343000701003300 "
        },
        "gasEstimates": {
          "creation": {
            "codeDepositCost": "165800",
            "executionCost": "208",
            "totalCost": "166008"
          },
          "external": {
            "performCreate(uint256,bytes)": "infinite",
            "performCreate2(uint256,bytes,bytes32)": "infinite"
          }
        },
        "methodIdentifiers": {
          "performCreate(uint256,bytes)": "4c8c9ea1",
          "performCreate2(uint256,bytes,bytes32)": "4847be6f"
        }
      },
      "storageLayout": {
        "storage": [],
        "types": null
      },
      "userdoc": {
        "kind": "user",
        "methods": {},
        "version": 1
      }
    }
  }
}