{
  "third_party/safe-contracts/contracts/examples/guards/ReentrancyTransactionGuard.sol": {
    "ReentrancyTransactionGuard": {
      "abi": [
        {
          "stateMutability": "nonpayable",
          "type": "fallback"
        },
        {
          "inputs": [
            {
              "internalType": "bytes32",
              "name": "",
              "type": "bytes32"
            },
            {
              "internalType": "bool",
              "name": "",
              "type": "bool"
            }
          ],
          "name": "checkAfterExecution",
          "outputs": [],
          "stateMutability": "nonpayable",
          "type": "function"
        },
        {
          "inputs": [
            {
              "internalType": "address",
              "name": "",
              "type": "address"
            },
            {
              "internalType": "uint256",
              "name": "",
              "type": "uint256"
            },
            {
              "internalType": "bytes",
              "name": "",
              "type": "bytes"
            },
            {
              "internalType": "enum Enum.Operation",
              "name": "",
              "type": "uint8"
            },
            {
              "internalType": "uint256",
              "name": "",
              "type": "uint256"
            },
            {
              "internalType": "uint256",
              "name": "",
              "type": "uint256"
            },
            {
              "internalType": "uint256",
              "name": "",
              "type": "uint256"
            },
            {
              "internalType": "address",
              "name": "",
              "type": "address"
            },
            {
              "internalType": "address payable",
              "name": "",
              "type": "address"
            },
            {
              "internalType": "bytes",
              "name": "",
              "type": "bytes"
            },
            {
              "internalType": "address",
              "name": "",
              "type": "address"
            }
          ],
          "name": "checkTransaction",
          "outputs": [],
          "stateMutability": "nonpayable",
          "type": "function"
        },
        {
          "inputs": [
            {
              "internalType": "bytes4",
              "name": "interfaceId",
              "type": "bytes4"
            }
          ],
          "name": "supportsInterface",
          "outputs": [
            {
              "internalType": "bool",
              "name": "",
              "type": "bool"
            }
          ],
          "stateMutability": "view",
          "type": "function"
        }
      ],
      "evm": {
        "bytecode": {
          "linkReferences": {},
          "object": "608060405234801561001057600080fd5b50610407806100206000396000f3fe608060405234801561001057600080fd5b50600436106100415760003560e01c806301ffc9a71461004357806375f0bb5214610096578063932713681461023c575b005b6100826004803603602081101561005957600080fd5b50357fffffffff0000000000000000000000000000000000000000000000000000000016610261565b604080519115158252519081900360200190f35b61004160048036036101608110156100ad57600080fd5b73ffffffffffffffffffffffffffffffffffffffff823516916020810135918101906060810160408201356401000000008111156100ea57600080fd5b8201836020820111156100fc57600080fd5b8035906020019184600183028401116401000000008311171561011e57600080fd5b91908080601f016020809104026020016040519081016040528093929190818152602001838380828437600092019190915250929560ff85351695602086013595604081013595506060810135945073ffffffffffffffffffffffffffffffffffffffff60808201358116945060a08201351692919060e081019060c001356401000000008111156101af57600080fd5b8201836020820111156101c157600080fd5b803590602001918460018302840111640100000000831117156101e357600080fd5b91908080601f0160208091040260200160405190810160405280939291908181526020018383808284376000920191909152509295505050903573ffffffffffffffffffffffffffffffffffffffff1691506102fa9050565b6100416004803603604081101561025257600080fd5b50803590602001351515610390565b60007fffffffff0000000000000000000000000000000000000000000000000000000082167fe6d7a83a0000000000000000000000000000000000000000000000000000000014806102f457507fffffffff0000000000000000000000000000000000000000000000000000000082167f01ffc9a700000000000000000000000000000000000000000000000000000000145b92915050565b60006103046103ad565b805490915060ff161561037857604080517f08c379a000000000000000000000000000000000000000000000000000000000815260206004820152601360248201527f5265656e7472616e637920646574656374656400000000000000000000000000604482015290519081900360640190fd5b805460ff191660011790555050505050505050505050565b600061039a6103ad565b805460ff19169115159190911790555050565b7f7c1d45961c2d0298f999d2c3d4a7a5e0f688d137f4c32466e3056a97e673b83a9056fea26469706673582212200d1aa077af1de613c0ab880490850446d489158287895d6fcdafe8e854fb4e9d64736f6c63430007010033",
          "opcodes": "PUSH1 0x80 PUSH1 0x40 MSTORE CALLVALUE DUP1 ISZERO PUSH2 0x10 JUMPI PUSH1 0x0 DUP1 REVERT JUMPDEST POP PUSH2 0x407 DUP1 PUSH2 0x20 PUSH1 0x0 CODECOPY PUSH1 0x0 RETURN INVALID PUSH1 0x80 PUSH1 0x40 MSTORE CALLVALUE DUP1 ISZERO PUSH2 0x10 JUMPI PUSH1 0x0 DUP1 REVERT JUMPDEST POP PUSH1 0x4 CALLDATASIZE LT PUSH2 0x41 JUMPI PUSH1 0x0 CALLDATALOAD PUSH1 0xE0 SHR DUP1 PUSH4 0x1FFC9A7 EQ PUSH2 0x43 JUMPI DUP1 PUSH4 0x75F0BB52 EQ PUSH2 0x96 JUMPI DUP1 PUSH4 0x93271368 EQ PUSH2 0x23C JUMPI JUMPDEST STOP JUMPDEST PUSH2 0x82 PUSH1 0x4 DUP1 CALLDATASIZE SUB PUSH1 0x20 DUP2 LT ISZERO PUSH2 0x59 JUMPI PUSH1 0x0 DUP1 REVERT JUMPDEST POP CALLDATALOAD PUSH32 0xFFFFFFFF00000000000000000000000000000000000000000000000000000000 AND PUSH2 0x261 JUMP JUMPDEST PUSH1 0x40 DUP1 MLOAD SWAP2 ISZERO ISZERO DUP3 MSTORE MLOAD SWAP1 DUP2 SWAP1 SUB PUSH1 0x20 ADD SWAP1 RETURN JUMPDEST PUSH2 0x41 PUSH1 0x4 DUP1 CALLDATASIZE SUB PUSH2 0x160 DUP2 LT ISZERO PUSH2 0xAD JUMPI PUSH1 0x0 DUP1 REVERT JUMPDEST PUSH20 0xFFFFFFFFFFFFFFFFFFFFFFFFFFFFFFFFFFFFFFFF DUP3 CALLDATALOAD AND SWAP2 PUSH1 0x20 DUP2 ADD CALLDATALOAD SWAP2 DUP2 ADD SWAP1 PUSH1 0x60 DUP2 ADD PUSH1 0x40 DUP3 ADD CALLDATALOAD PUSH5 0x100000000 DUP2 GT ISZERO PUSH2 0xEA JUMPI PUSH1 0x0 DUP1 REVERT JUMPDEST DUP3 ADD DUP4 PUSH1 0x20 DUP3 ADD GT ISZERO PUSH2 0xFC JUMPI PUSH1 0x0 DUP1 REVERT JUMPDEST DUP1 CALLDATALOAD SWAP1 PUSH1 0x20 ADD SWAP2 DUP5 PUSH1 0x1 DUP4 MUL DUP5 ADD GT PUSH5 0x100000000 DUP4 GT OR ISZERO PUSH2 0x11E JUMPI PUSH1 0x0 DUP1 REVERT JUMPDEST SWAP2 SWAP1 DUP1 DUP1 PUSH1 0x1F ADD PUSH1 0x20 DUP1 SWAP2 DIV MUL PUSH1 0x20 ADD PUSH1 0x40 MLOAD SWAP1 DUP2 ADD PUSH1 0x40 MSTORE DUP1 SWAP4 SWAP3 SWAP2 SWAP1 DUP2 DUP2 MSTORE PUSH1 0x20 ADD DUP4 DUP4 DUP1 DUP3 DUP5 CALLDATACOPY PUSH1 0x0 SWAP3 ADD SWAP2 SWAP1 SWAP2 MSTORE POP SWAP3 SWAP6 PUSH1 0xFF DUP6 CALLDATALOAD AND SWAP6 PUSH1 0x20 DUP7 ADD CALLDATALOAD SWAP6 PUSH1 0x40 DUP2 ADD CALLDATALOAD SWAP6 POP PUSH1 0x60 DUP2 ADD CALLDATALOAD SWAP5 POP PUSH20 0xFFFFFFFFFFFFFFFFFFFFFFFFFFFFFFFFFFFFFFFF PUSH1 0x80 DUP3 ADD CALLDATALOAD DUP2 AND SWAP5 POP PUSH1 0xA0 DUP3 ADD CALLDATALOAD AND SWAP3 SWAP2 SWAP1 PUSH1 0xE0 DUP2 ADD SWAP1 PUSH1 0xC0 ADD CALLDATALOAD PUSH5 0x100000000 DUP2 GT ISZERO PUSH2 0x1AF JUMPI PUSH1 0x0 DUP1 REVERT JUMPDEST DUP3 ADD DUP4 PUSH1 0x20 DUP3 ADD GT ISZERO PUSH2 0x1C1 JUMPI PUSH1 0x0 DUP1 REVERT JUMPDEST DUP1 CALLDATALOAD SWAP1 PUSH1 0x20 ADD SWAP2 DUP5 PUSH1 0x1 DUP4 MUL DUP5 ADD GT PUSH5 0x100000000 DUP4 GT OR ISZERO PUSH2 0x1E3 JUMPI PUSH1 0x0 DUP1 REVERT JUMPDEST SWAP2 SWAP1 DUP1 DUP1 PUSH1 0x1F ADD PUSH1 0x20 DUP1 SWAP2 DIV MUL PUSH1 0x20 ADD PUSH1 0x40 MLOAD SWAP1 DUP2 ADD PUSH1 0x40 MSTORE DUP1 SWAP4 SWAP3 SWAP2 SWAP1 DUP2 DUP2 MSTORE PUSH1 0x20 ADD DUP4 DUP4 DUP1 DUP3 DUP5 CALLDATACOPY PUSH1 0x0 SWAP3 ADD SWAP2 SWAP1 SWAP2 MSTORE POP SWAP3 SWAP6 POP POP POP SWAP1 CALLDATALOAD PUSH20 0xFFFFFFFFFFFFFFFFFFFFFFFFFFFFFFFFFFFFFFFF AND SWAP2 POP PUSH2 0x2FA SWAP1 POP JUMP JUMPDEST PUSH2 0x41 PUSH1 0x4 DUP1 CALLDATASIZE SUB PUSH1 0x40 DUP2 LT ISZERO PUSH2 0x252 JUMPI PUSH1 0x0 DUP1 REVERT JUMPDEST POP DUP1 CALLDATALOAD SWAP1 PUSH1 0x20 ADD CALLDATALOAD ISZERO ISZERO PUSH2 0x390 JUMP JUMPDEST PUSH1 0x0 PUSH32 0xFFFFFFFF00000000000000000000000000000000000000000000000000000000 DUP3 AND PUSH32 0xE6D7A83A00000000000000000000000000000000000000000000000000000000 EQ DUP1 PUSH2 0x2F4 JUMPI POP PUSH32 0xFFFFFFFF00000000000000000000000000000000000000000000000000000000 DUP3 AND PUSH32 0x1FFC9A700000000000000000000000000000000000000000000000000000000 EQ JUMPDEST SWAP3 SWAP2 POP POP JUMP JUMPDEST PUSH1 0x0 PUSH2 0x304 PUSH2 0x3AD JUMP JUMPDEST DUP1 SLOAD SWAP1 SWAP2 POP PUSH1 0xFF AND ISZERO PUSH2 0x378 JUMPI PUSH1 0x40 DUP1 MLOAD PUSH32 0x8C379A000000000000000000000000000000000000000000000000000000000 DUP2 MSTORE PUSH1 0x20 PUSH1 0x4 DUP3 ADD MSTORE PUSH1 0x13 PUSH1 0x24 DUP3 ADD MSTORE PUSH32 0x5265656E7472616E637920646574656374656400000000000000000000000000 PUSH1 0x44 DUP3 ADD MSTORE SWAP1 MLOAD SWAP1 DUP2 SWAP1 SUB PUSH1 0x64 ADD SWAP1 REVERT JUMPDEST DUP1 SLOAD PUSH1 0xFF NOT AND PUSH1 0x1 OR SWAP1 SSTORE POP POP POP POP POP POP POP POP POP POP POP JUMP JUMPDEST PUSH1 0x0 PUSH2 0x39A PUSH2 0x3AD JUMP JUMPDEST DUP1 SLOAD PUSH1 0xFF NOT AND SWAP2 ISZERO ISZERO SWAP2 SWAP1 SWAP2 OR SWAP1 SSTORE POP POP JUMP JUMPDEST PUSH32 0x7C1D45961C2D0298F999D2C3D4A7A5E0F688D137F4C32466E3056A97E673B83A SWAP1 JUMP INVALID LOG2 PUSH5 0x6970667358 0x22 SLT KECCAK256 0xD BYTE LOG0 PUSH24 0xAF1DE613C0AB880490850446D489158287895D6FCDAFE8E8 SLOAD 0xFB 0x4E SWAP14 PUSH5 0x736F6C6343 STOP SMOD ADD STOP CALLER "
        },
        "methodIdentifiers": {
          "checkAfterExecution(bytes32,bool)": "93271368",
          "checkTransaction(address,uint256,bytes,uint8,uint256,uint256,uint256,address,address,bytes,address)": "75f0bb52",
          "supportsInterface(bytes4)": "01ffc9a7"
        }
      }
    }
  }
}