{
  "third_party/safe-contracts/contracts/base/GuardManager.sol": {
    "GuardManager": {
      "abi": [
        {
          "anonymous": false,
          "inputs": [
            {
              "indexed": false,
              "internalType": "address",
              "name": "guard",
              "type": "address"
            }
          ],
          "name": "ChangedGuard",
          "type": "event"
        },
        {
          "inputs": [
            {
              "internalType": "address",
              "name": "guard",
              "type": "address"
            }
          ],
          "name": "setGuard",
          "outputs": [],
          "stateMutability": "nonpayable",
          "type": "function"
        }
      ],
      "evm": {
        "bytecode": {
          "linkReferences": {},
          "object": "608060405234801561001057600080fd5b5061028f806100206000396000f3fe608060405234801561001057600080fd5b506004361061002b5760003560e01c8063e19a9dd914610030575b600080fd5b6100636004803603602081101561004657600080fd5b503573ffffffffffffffffffffffffffffffffffffffff16610065565b005b61006d610203565b73ffffffffffffffffffffffffffffffffffffffff81161561019257604080517f01ffc9a70000000000000000000000000000000000000000000000000000000081527fe6d7a83a000000000000000000000000000000000000000000000000000000006004820152905173ffffffffffffffffffffffffffffffffffffffff8316916301ffc9a7916024808301926020929190829003018186803b15801561011557600080fd5b505afa158015610129573d6000803e3d6000fd5b505050506040513d602081101561013f57600080fd5b5051610192576040805162461bcd60e51b815260206004820152600560248201527f4753333030000000000000000000000000000000000000000000000000000000604482015290519081900360640190fd5b7f4a204f620c8c5ccdca3fd54d003badd85ba500436a431f0cbda4f558c93c34c88181556040805173ffffffffffffffffffffffffffffffffffffffff8416815290517f1151116914515bc0891ff9047a6cb32cf902546f83066499bcf8ba33d2353fa29181900360200190a15050565b333014610257576040805162461bcd60e51b815260206004820152600560248201527f4753303331000000000000000000000000000000000000000000000000000000604482015290519081900360640190fd5b56fea264697066735822122082554efac32c8f99e2a4ee08e77d835a00d3802bb58efb479c232c1b626ff2e164736f6c63430007010033",
          "opcodes": "PUSH1 0x80 PUSH1 0x40 MSTORE CALLVALUE DUP1 ISZERO PUSH2 0x10 JUMPI PUSH1 0x0 DUP1 REVERT JUMPDEST POP PUSH2 0x28F DUP1 PUSH2 0x20 PUSH1 0x0 CODECOPY PUSH1 0x0 RETURN INVALID PUSH1 0x80 PUSH1 0x40 MSTORE CALLVALUE DUP1 ISZERO PUSH2 0x10 JUMPI PUSH1 0x0 DUP1 REVERT JUMPDEST POP PUSH1 0x4 CALLDATASIZE LT PUSH2 0x2B JUMPI PUSH1 0x0 CALLDATALOAD PUSH1 0xE0 SHR DUP1 PUSH4 0xE19A9DD9 EQ PUSH2 0x30 JUMPI JUMPDEST PUSH1 0x0 DUP1 REVERT JUMPDEST PUSH2 0x63 PUSH1 0x4 DUP1 CALLDATASIZE SUB PUSH1 0x20 DUP2 LT ISZERO PUSH2 0x46 JUMPI PUSH1 0x0 DUP1 REVERT JUMPDEST POP CALLDATALOAD PUSH20 0xFFFFFFFFFFFFFFFFFFFFFFFFFFFFFFFFFFFFFFFF AND PUSH2 0x65 JUMP JUMPDEST STOP JUMPDEST PUSH2 0x6D PUSH2 0x203 JUMP JUMPDEST PUSH20 0xFFFFFFFFFFFFFFFFFFFFFFFFFFFFFFFFFFFFFFFF DUP2 AND ISZERO PUSH2 0x192 JUMPI PUSH1 0x40 DUP1 MLOAD PUSH32 0x1FFC9A700000000000000000000000000000000000000000000000000000000 DUP2 MSTORE PUSH32 0xE6D7A83A00000000000000000000000000000000000000000000000000000000 PUSH1 0x4 DUP3 ADD MSTORE SWAP1 MLOAD PUSH20 0xFFFFFFFFFFFFFFFFFFFFFFFFFFFFFFFFFFFFFFFF DUP4 AND SWAP2 PUSH4 0x1FFC9A7 SWAP2 PUSH1 0x24 DUP1 DUP4 ADD SWAP3 PUSH1 0x20 SWAP3 SWAP2 SWAP1 DUP3 SWAP1 SUB ADD DUP2 DUP7 DUP1 EXTCODESIZE ISZERO DUP1 ISZERO PUSH2 0x115 JUMPI PUSH1 0x0 DUP1 REVERT JUMPDEST POP GAS STATICCALL ISZERO DUP1 ISZERO PUSH2 0x129 JUMPI RETURNDATASIZE PUSH1 0x0 DUP1 RETURNDATACOPY RETURNDATASIZE PUSH1 0x0 REVERT JUMPDEST POP POP POP POP PUSH1 0x40 MLOAD RETURNDATASIZE PUSH1 0x20 DUP2 LT ISZERO PUSH2 0x13F JUMPI PUSH1 0x0 DUP1 REVERT JUMPDEST POP MLOAD PUSH2 0x192 JUMPI PUSH1 0x40 DUP1 MLOAD PUSH3 0x461BCD PUSH1 0xE5 SHL DUP2 MSTORE PUSH1 0x20 PUSH1 0x4 DUP3 ADD MSTORE PUSH1 0x5 PUSH1 0x24 DUP3 ADD MSTORE PUSH32 0x4753333030000000000000000000000000000000000000000000000000000000 PUSH1 0x44 DUP3 ADD MSTORE SWAP1 MLOAD SWAP1 DUP2 SWAP1 SUB PUSH1 0x64 ADD SWAP1 REVERT JUMPDEST PUSH32 0x4A204F620C8C5CCDCA3FD54D003BADD85BA500436A431F0CBDA4F558C93C34C8 DUP2 DUP2 SSTORE PUSH1 0x40 DUP1 MLOAD PUSH20 0xFFFFFFFFFFFFFFFFFFFFFFFFFFFFFFFFFFFFFFFF DUP5 AND DUP2 MSTORE SWAP1 MLOAD PUSH32 0x1151116914515BC0891FF9047A6CB32CF902546F83066499BCF8BA33D2353FA2 SWAP2 DUP2 SWAP1 SUB PUSH1 0x20 ADD SWAP1 LOG1 POP POP JUMP JUMPDEST CALLER ADDRESS EQ PUSH2 0x257 JUMPI PUSH1 0x40 DUP1 MLOAD PUSH3 0x461BCD PUSH1 0xE5 SHL DUP2 MSTORE PUSH1 0x20 PUSH1 0x4 DUP3 ADD MSTORE PUSH1 0x5 PUSH1 0x24 DUP3 ADD MSTORE PUSH32 0x4753303331000000000000000000000000000000000000000000000000000000 PUSH1 0x44 DUP3 ADD MSTORE SWAP1 MLOAD SWAP1 DUP2 SWAP1 SUB PUSH1 0x64 ADD SWAP1 REVERT JUMPDEST JUMP INVALID LOG2 PUSH5 0x6970667358 0x22 SLT KECCAK256 DUP3 SSTORE 0x4E STATICCALL 0xC3 0x2C DUP16 SWAP10 0xE2 LOG4 0xEE ADDMOD 0xE7 PUSH30 0x835A00D3802BB58EFB479C232C1B626FF2E164736F6C6343000701003300 "
        },
        "methodIdentifiers": {
          "setGuard(address)": "e19a9dd9"
        }
      }
    }
  }
}