{
  "third_party/safe-contracts/contracts/base/FallbackManager.sol": {
    "FallbackManager": {
      "abi": [
        {
          "anonymous": false,
          "inputs": [
            {
              "indexed": false,
              "internalType": "address",
              "name": "handler",
              "type": "address"
            }
          ],
          "name": "ChangedFallbackHandler",
          "type": "event"
        },
        {
          "stateMutability": "nonpayable",
          "type": "fallback"
        },
        {
          "inputs": [
            {
              "internalType": "address",
              "name": "handler",
              "type": "address"
            }
          ],
          "name": "setFallbackHandler",
          "outputs": [],
          "stateMutability": "nonpayable",
          "type": "function"
        }
      ],
      "evm": {
        "bytecode": {
          "linkReferences": {},
          "object": "608060405234801561001057600080fd5b506101e0806100206000396000f3fe608060405234801561001057600080fd5b506004361061002b5760003560e01c8063f08a032314610084575b7f6c9a6c4a39284e37ed1cf53d337577d14212a4870fb976a4366c693b939918d580548061005557005b36600080373360601b365260008060143601600080855af190503d6000803e8061007e573d6000fd5b503d6000f35b6100b76004803603602081101561009a57600080fd5b503573ffffffffffffffffffffffffffffffffffffffff166100b9565b005b6100c1610116565b6100ca81610186565b6040805173ffffffffffffffffffffffffffffffffffffffff8316815290517f5ac6c46c93c8d0e53714ba3b53db3e7c046da994313d7ed0d192028bc7c228b09181900360200190a150565b33301461018457604080517f08c379a000000000000000000000000000000000000000000000000000000000815260206004820152600560248201527f4753303331000000000000000000000000000000000000000000000000000000604482015290519081900360640190fd5b565b7f6c9a6c4a39284e37ed1cf53d337577d14212a4870fb976a4366c693b939918d55556fea26469706673582212203baac0236401ac4b3b4ca0c0d8df6665893c971f801f274c256c1f63c1d1073f64736f6c63430007010033",
          "opcodes": "PUSH1 0x80 PUSH1 0x40 MSTORE CALLVALUE DUP1 ISZERO PUSH2 0x10 JUMPI PUSH1 0x0 DUP1 REVERT JUMPDEST POP PUSH2 0x1E0 DUP1 PUSH2 0x20 PUSH1 0x0 CODECOPY PUSH1 0x0 RETURN INVALID PUSH1 0x80 PUSH1 0x40 MSTORE CALLVALUE DUP1 ISZERO PUSH2 0x10 JUMPI PUSH1 0x0 DUP1 REVERT JUMPDEST POP PUSH1 0x4 CALLDATASIZE LT PUSH2 0x2B JUMPI PUSH1 0x0 CALLDATALOAD PUSH1 0xE0 SHR DUP1 PUSH4 0xF08A0323 EQ PUSH2 0x84 JUMPI JUMPDEST PUSH32 0x6C9A6C4A39284E37ED1CF53D337577D14212A4870FB976A4366C693B939918D5 DUP1 SLOAD DUP1 PUSH2 0x55 JUMPI STOP JUMPDEST CALLDATASIZE PUSH1 0x0 DUP1 CALLDATACOPY CALLER PUSH1 0x60 SHL CALLDATASIZE MSTORE PUSH1 0x0 DUP1 PUSH1 0x14 CALLDATASIZE ADD PUSH1 0x0 DUP1 DUP6 GAS CALL SWAP1 POP RETURNDATASIZE PUSH1 0x0 DUP1 RETURNDATACOPY DUP1 PUSH2 0x7E JUMPI RETURNDATASIZE PUSH1 0x0 REVERT JUMPDEST POP RETURNDATASIZE PUSH1 0x0 RETURN JUMPDEST PUSH2 0xB7 PUSH1 0x4 DUP1 CALLDATASIZE SUB PUSH1 0x20 DUP2 LT ISZERO PUSH2 0x9A JUMPI PUSH1 0x0 DUP1 REVERT JUMPDEST POP CALLDATALOAD PUSH20 0xFFFFFFFFFFFFFFFFFFFFFFFFFFFFFFFFFFFFFFFF AND PUSH2 0xB9 JUMP JUMPDEST STOP JUMPDEST PUSH2 0xC1 PUSH2 0x116 JUMP JUMPDEST PUSH2 0xCA DUP2 PUSH2 0x186 JUMP JUMPDEST PUSH1 0x40 DUP1 MLOAD PUSH20 0xFFFFFFFFFFFFFFFFFFFFFFFFFFFFFFFFFFFFFFFF DUP4 AND DUP2 MSTORE SWAP1 MLOAD PUSH32 0x5AC6C46C93C8D0E53714BA3B53DB3E7C046DA994313D7ED0D192028BC7C228B0 SWAP2 DUP2 SWAP1 SUB PUSH1 0x20 ADD SWAP1 LOG1 POP JUMP JUMPDEST CALLER ADDRESS EQ PUSH2 0x184 JUMPI PUSH1 0x40 DUP1 MLOAD PUSH32 0x8C379A000000000000000000000000000000000000000000000000000000000 DUP2 MSTORE PUSH1 0x20 PUSH1 0x4 DUP3 ADD MSTORE PUSH1 0x5 PUSH1 0x24 DUP3 ADD MSTORE PUSH32 0x4753303331000000000000000000000000000000000000000000000000000000 PUSH1 0x44 DUP3 ADD MSTORE SWAP1 MLOAD SWAP1 DUP2 SWAP1 SUB PUSH1 0x64 ADD SWAP1 REVERT JUMPDEST JUMP JUMPDEST PUSH32 0x6C9A6C4A39284E37ED1CF53D337577D14212A4870FB976A4366C693B939918D5 SSTORE JUMP INVALID LOG2 PUSH5 0x6970667358 0x22 SLT KECCAK256 EXTCODESIZE 0xAA 0xC0 0x23 PUSH5 0x1AC4B3B4C LOG0 0xC0 0xD8 0xDF PUSH7 0x65893C971F801F 0x27 0x4C 0x25 PUSH13 0x1F63C1D1073F64736F6C634300 SMOD ADD STOP CALLER "
        },
        "methodIdentifiers": {
          "setFallbackHandler(address)": "f08a0323"
        }
      }
    }
  }
}