{
  "third_party/safe-contracts/contracts/examples/libraries/Migrate_1_3_0_to_1_2_0.sol": {
    "Migration": {
      "abi": [
        {
          "inputs": [
            {
              "internalType": "address",
              "name": "targetSingleton",
              "type": "address"
            }
          ],
          "stateMutability": "nonpayable",
          "type": "constructor"
        },
        {
          "anonymous": false,
          "inputs": [
            {
              "indexed": false,
              "internalType": "address",
              "name": "singleton",
              "type": "address"
            }
          ],
          "name": "ChangedMasterCopy",
          "type": "event"
        },
        {
          "inputs": [],
          "name": "migrate",
          "outputs": [],
          "stateMutability": "nonpayable",
          "type": "function"
        },
        {
          "inputs": [],
          "name": "migrationSingleton",
          "outputs": [
            {
              "internalType": "address",
              "name": "",
              "type": "address"
            }
          ],
          "stateMutability": "view",
          "type": "function"
        },
        {
          "inputs": [],
          "name": "safe120Singleton",
          "outputs": [
            {
              "internalType": "address",
              "name": "",
              "type": "address"
            }
          ],
          "stateMutability": "view",
          "type": "function"
        }
      ],
      "evm": {
        "bytecode": {
          "linkReferences": {},
          "object": "60c060405234801561001057600080fd5b506040516103943803806103948339818101604052602081101561003357600080fd5b50516001600160a01b03811661007a5760405162461bcd60e51b81526004018080602001828103825260228152602001806103726022913960400191505060405180910390fd5b606081811b6001600160601b03191660a052309081901b608052906001600160a01b03166102b06100c26000398060af528061017b525080608b528060e952506102b06000f3fe608060405234801561001057600080fd5b50600436106100415760003560e01c80632e7731851461004657806389f54308146100775780638fd3ab801461007f575b600080fd5b61004e610089565b6040805173ffffffffffffffffffffffffffffffffffffffff9092168252519081900360200190f35b61004e6100ad565b6100876100d1565b005b7f000000000000000000000000000000000000000000000000000000000000000081565b7f000000000000000000000000000000000000000000000000000000000000000081565b3073ffffffffffffffffffffffffffffffffffffffff7f0000000000000000000000000000000000000000000000000000000000000000161415610160576040517f08c379a000000000000000000000000000000000000000000000000000000000815260040180806020018281038252603081526020018061024b6030913960400191505060405180910390fd5b6000805473ffffffffffffffffffffffffffffffffffffffff7f000000000000000000000000000000000000000000000000000000000000000081167fffffffffffffffffffffffff00000000000000000000000000000000000000009092169190911791829055604080517f035aff83d86937d35b32e04f0ddc6ff469290eef2f1b692d8a815c89404d4749602080830191909152308284015282518083038401815260608301808552815191909201206006559390921690925290517f75e41bc35ff1bf14d81d1d2f649c0084a0f974f9289c803ec9898eeec4c8d0b89181900360800190a156fe4d6967726174696f6e2073686f756c64206f6e6c792062652063616c6c6564207669612064656c656761746563616c6ca2646970667358221220f36341cb174275943ff2f6faefc7d2b7aec0a5d5e4923a0f12dd530a5ebd73c164736f6c63430007010033496e76616c69642073696e676c65746f6e20616464726573732070726f7669646564",
          "opcodes": "PUSH1 0xC0 PUSH1 0x40 MSTORE CALLVALUE DUP1 ISZERO PUSH2 0x10 JUMPI PUSH1 0x0 DUP1 REVERT JUMPDEST POP PUSH1 0x40 MLOAD PUSH2 0x394 CODESIZE SUB DUP1 PUSH2 0x394 DUP4 CODECOPY DUP2 DUP2 ADD PUSH1 0x40 MSTORE PUSH1 0x20 DUP2 LT ISZERO PUSH2 0x33 JUMPI PUSH1 0x0 DUP1 REVERT JUMPDEST POP MLOAD PUSH1 0x1 PUSH1 0x1 PUSH1 0xA0 SHL SUB DUP2 AND PUSH2 0x7A JUMPI PUSH1 0x40 MLOAD PUSH3 0x461BCD PUSH1 0xE5 SHL DUP2 MSTORE PUSH1 0x4 ADD DUP1 DUP1 PUSH1 0x20 ADD DUP3 DUP2 SUB DUP3 MSTORE PUSH1 0x22 DUP2 MSTORE PUSH1 0x20 ADD DUP1 PUSH2 0x372 PUSH1 0x22 SWAP2 CODECOPY PUSH1 0x40 ADD SWAP2 POP POP PUSH1 0x40 MLOAD DUP1 SWAP2 SUB SWAP1 REVERT JUMPDEST PUSH1 0x60 DUP2 DUP2 SHL PUSH1 0x1 PUSH1 0x1 PUSH1 0x60 SHL SUB NOT AND PUSH1 0xA0 MSTORE ADDRESS SWAP1 DUP2 SWAP1 SHL PUSH1 0x80 MSTORE SWAP1 PUSH1 0x1 PUSH1 0x1 PUSH1 0xA0 SHL SUB AND PUSH2 0x2B0 PUSH2 0xC2 PUSH1 0x0 CODECOPY DUP1 PUSH1 0xAF MSTORE DUP1 PUSH2 0x17B MSTORE POP DUP1 PUSH1 0x8B MSTORE DUP1 PUSH1 0xE9 MSTORE POP PUSH2 0x2B0 PUSH1 0x0 RETURN INVALID PUSH1 0x80 PUSH1 0x40 MSTORE CALLVALUE DUP1 ISZERO PUSH2 0x10 JUMPI PUSH1 0x0 DUP1 REVERT JUMPDEST POP PUSH1 0x4 CALLDATASIZE LT PUSH2 0x41 JUMPI PUSH1 0x0 CALLDATALOAD PUSH1 0xE0 SHR DUP1 PUSH4 0x2E773185 EQ PUSH2 0x46 JUMPI DUP1 PUSH4 0x89F54308 EQ PUSH2 0x77 JUMPI DUP1 PUSH4 0x8FD3AB80 EQ PUSH2 0x7F JUMPI JUMPDEST PUSH1 0x0 DUP1 REVERT JUMPDEST PUSH2 0x4E PUSH2 0x89 JUMP JUMPDEST PUSH1 0x40 DUP1 MLOAD PUSH20 0xFFFFFFFFFFFFFFFFFFFFFFFFFFFFFFFFFFFFFFFF SWAP1 SWAP3 AND DUP3 MSTORE MLOAD SWAP1 DUP2 SWAP1 SUB PUSH1 0x20 ADD SWAP1 RETURN JUMPDEST PUSH2 0x4E PUSH2 0xAD JUMP JUMPDEST PUSH2 0x87 PUSH2 0xD1 JUMP JUMPDEST STOP JUMPDEST PUSH32 0x0 DUP2 JUMP JUMPDEST PUSH32 0x0 DUP2 JUMP JUMPDEST ADDRESS PUSH20 0xFFFFFFFFFFFFFFFFFFFFFFFFFFFFFFFFFFFFFFFF PUSH32 0x0 AND EQ ISZERO PUSH2 0x160 JUMPI PUSH1 0x40 MLOAD PUSH32 0x8C379A000000000000000000000000000000000000000000000000000000000 DUP2 MSTORE PUSH1 0x4 ADD DUP1 DUP1 PUSH1 0x20 ADD DUP3 DUP2 SUB DUP3 MSTORE PUSH1 0x30 DUP2 MSTORE PUSH1 0x20 ADD DUP1 PUSH2 0x24B PUSH1 0x30 SWAP2 CODECOPY PUSH1 0x40 ADD SWAP2 POP POP PUSH1 0x40 MLOAD DUP1 SWAP2 SUB SWAP1 REVERT JUMPDEST PUSH1 0x0 DUP1 SLOAD PUSH20 0xFFFFFFFFFFFFFFFFFFFFFFFFFFFFFFFFFFFFFFFF PUSH32 0x0 DUP2 AND PUSH32 0xFFFFFFFFFFFFFFFFFFFFFFFF0000000000000000000000000000000000000000 SWAP1 SWAP3 AND SWAP2 SWAP1 SWAP2 OR SWAP2 DUP3 SWAP1 SSTORE PUSH1 0x40 DUP1 MLOAD PUSH32 0x35AFF83D86937D35B32E04F0DDC6FF469290EEF2F1B692D8A815C89404D4749 PUSH1 0x20 DUP1 DUP4 ADD SWAP2 SWAP1 SWAP2 MSTORE ADDRESS DUP3 DUP5 ADD MSTORE DUP3 MLOAD DUP1 DUP4 SUB DUP5 ADD DUP2 MSTORE PUSH1 0x60 DUP4 ADD DUP1 DUP6 MSTORE DUP2 MLOAD SWAP2 SWAP1 SWAP3 ADD KECCAK256 PUSH1 0x6 SSTORE SWAP4 SWAP1 SWAP3 AND SWAP1 SWAP3 MSTORE SWAP1 MLOAD PUSH32 0x75E41BC35FF1BF14D81D1D2F649C0084A0F974F9289C803EC9898EEEC4C8D0B8 SWAP2 DUP2 SWAP1 SUB PUSH1 0x80 ADD SWAP1 LOG1 JUMP INVALID 0x4D PUSH10 0x67726174696F6E207368 PUSH16 0x756C64206F6E6C792062652063616C6C PUSH6 0x642076696120 PUSH5 0x656C656761 PUSH21 0x6563616C6CA2646970667358221220F36341CB1742 PUSH22 0x943FF2F6FAEFC7D2B7AEC0A5D5E4923A0F12DD530A5E 0xBD PUSH20 0xC164736F6C63430007010033496E76616C696420 PUSH20 0x696E676C65746F6E20616464726573732070726F PUSH23 0x6964656400000000000000000000000000000000000000 "
        },
        "methodIdentifiers": {
          "migrate()": "8fd3ab80",
          "migrationSingleton()": "2e773185",
          "safe120Singleton()": "89f54308"
        }
      }
    }
  }
}