{
  "@gnosis.pm/mock-contract/contracts/MockContract.sol": {
    "MockContract": {
      "abi": [
        {
          "inputs": [],
          "stateMutability": "nonpayable",
          "type": "constructor"
        },
        {
          "stateMutability": "payable",
          "type": "fallback"
        },
        {
          "inputs": [],
          "name": "DEFAULT_FALLBACK_VALUE",
          "outputs": [
            {
              "internalType": "bytes",
              "name": "",
              "type": "bytes"
            }
          ],
          "stateMutability": "view",
          "type": "function"
        },
        {
          "inputs": [],
          "name": "MOCKS_LIST_END",
          "outputs": [
            {
              "internalType": "bytes",
              "name": "",
              "type": "bytes"
            }
          ],
          "stateMutability": "view",
          "type": "function"
        },
        {
          "inputs": [],
          "name": "MOCKS_LIST_END_HASH",
          "outputs": [
            {
              "internalType": "bytes32",
              "name": "",
              "type": "bytes32"
            }
          ],
          "stateMutability": "view",
          "type": "function"
        },
        {
          "inputs": [],
          "name": "MOCKS_LIST_START",
          "outputs": [
            {
              "internalType": "bytes32",
              "name": "",
              "type": "bytes32"
            }
          ],
          "stateMutability": "view",
          "type": "function"
        },
        {
          "inputs": [],
          "name": "SENTINEL_ANY_MOCKS",
          "outputs": [
            {
              "internalType": "bytes4",
              "name": "",
              "type": "bytes4"
            }
          ],
          "stateMutability": "view",
          "type": "function"
        },
        {
          "inputs": [
            {
              "internalType": "bytes",
              "name": "response",
              "type": "bytes"
            }
          ],
          "name": "givenAnyReturn",
          "outputs": [],
          "stateMutability": "nonpayable",
          "type": "function"
        },
        {
          "inputs": [
            {
              "internalType": "address",
              "name": "response",
              "type": "address"
            }
          ],
          "name": "givenAnyReturnAddress",
          "outputs": [],
          "stateMutability": "nonpayable",
          "type": "function"
        },
        {
          "inputs": [
            {
              "internalType": "bool",
              "name": "response",
              "type": "bool"
            }
          ],
          "name": "givenAnyReturnBool",
          "outputs": [],
          "stateMutability": "nonpayable",
          "type": "function"
        },
        {
          "inputs": [
            {
              "internalType": "uint256",
              "name": "response",
              "type": "uint256"
            }
          ],
          "name": "givenAnyReturnUint",
          "outputs": [],
          "stateMutability": "nonpayable",
          "type": "function"
        },
        {
          "inputs": [],
          "name": "givenAnyRevert",
          "outputs": [],
          "stateMutability": "nonpayable",
          "type": "function"
        },
        {
          "inputs": [
            {
              "internalType": "string",
              "name": "message",
              "type": "string"
            }
          ],
          "name": "givenAnyRevertWithMessage",
          "outputs": [],
          "stateMutability": "nonpayable",
          "type": "function"
        },
        {
          "inputs": [],
          "name": "givenAnyRunOutOfGas",
          "outputs": [],
          "stateMutability": "nonpayable",
          "type": "function"
        },
        {
          "inputs": [
            {
              "internalType": "bytes",
              "name": "call",
              "type": "bytes"
            },
            {
              "internalType": "bytes",
              "name": "response",
              "type": "bytes"
            }
          ],
          "name": "givenCalldataReturn",
          "outputs": [],
          "stateMutability": "nonpayable",
          "type": "function"
        },
        {
          "inputs": [
            {
              "internalType": "bytes",
              "name": "call",
              "type": "bytes"
            },
            {
              "internalType": "address",
              "name": "response",
              "type": "address"
            }
          ],
          "name": "givenCalldataReturnAddress",
          "outputs": [],
          "stateMutability": "nonpayable",
          "type": "function"
        },
        {
          "inputs": [
            {
              "internalType": "bytes",
              "name": "call",
              "type": "bytes"
            },
            {
              "internalType": "bool",
              "name": "response",
              "type": "bool"
            }
          ],
          "name": "givenCalldataReturnBool",
          "outputs": [],
          "stateMutability": "nonpayable",
          "type": "function"
        },
        {
          "inputs": [
            {
              "internalType": "bytes",
              "name": "call",
              "type": "bytes"
            },
            {
              "internalType": "uint256",
              "name": "response",
              "type": "uint256"
            }
          ],
          "name": "givenCalldataReturnUint",
          "outputs": [],
          "stateMutability": "nonpayable",
          "type": "function"
        },
        {
          "inputs": [
            {
              "internalType": "bytes",
              "name": "call",
              "type": "bytes"
            }
          ],
          "name": "givenCalldataRevert",
          "outputs": [],
          "stateMutability": "nonpayable",
          "type": "function"
        },
        {
          "inputs": [
            {
              "internalType": "bytes",
              "name": "call",
              "type": "bytes"
            },
            {
              "internalType": "string",
              "name": "message",
              "type": "string"
            }
          ],
          "name": "givenCalldataRevertWithMessage",
          "outputs": [],
          "stateMutability": "nonpayable",
          "type": "function"
        },
        {
          "inputs": [
            {
              "internalType": "bytes",
              "name": "call",
              "type": "bytes"
            }
          ],
          "name": "givenCalldataRunOutOfGas",
          "outputs": [],
          "stateMutability": "nonpayable",
          "type": "function"
        },
        {
          "inputs": [
            {
              "internalType": "bytes",
              "name": "call",
              "type": "bytes"
            },
            {
              "internalType": "bytes",
              "name": "response",
              "type": "bytes"
            }
          ],
          "name": "givenMethodReturn",
          "outputs": [],
          "stateMutability": "nonpayable",
          "type": "function"
        },
        {
          "inputs": [
            {
              "internalType": "bytes",
              "name": "call",
              "type": "bytes"
            },
            {
              "internalType": "address",
              "name": "response",
              "type": "address"
            }
          ],
          "name": "givenMethodReturnAddress",
          "outputs": [],
          "stateMutability": "nonpayable",
          "type": "function"
        },
        {
          "inputs": [
            {
              "internalType": "bytes",
              "name": "call",
              "type": "bytes"
            },
            {
              "internalType": "bool",
              "name": "response",
              "type": "bool"
            }
          ],
          "name": "givenMethodReturnBool",
          "outputs": [],
          "stateMutability": "nonpayable",
          "type": "function"
        },
        {
          "inputs": [
            {
              "internalType": "bytes",
              "name": "call",
              "type": "bytes"
            },
            {
              "internalType": "uint256",
              "name": "response",
              "type": "uint256"
            }
          ],
          "name": "givenMethodReturnUint",
          "outputs": [],
          "stateMutability": "nonpayable",
          "type": "function"
        },
        {
          "inputs": [
            {
              "internalType": "bytes",
              "name": "call",
              "type": "bytes"
            }
          ],
          "name": "givenMethodRevert",
          "outputs": [],
          "stateMutability": "nonpayable",
          "type": "function"
        },
        {
          "inputs": [
            {
              "internalType": "bytes",
              "name": "call",
              "type": "bytes"
            },
            {
              "internalType": "string",
              "name": "message",
              "type": "string"
            }
          ],
          "name": "givenMethodRevertWithMessage",
          "outputs": [],
          "stateMutability": "nonpayable",
          "type": "function"
        },
        {
          "inputs": [
            {
              "internalType": "bytes",
              "name": "call",
              "type": "bytes"
            }
          ],
          "name": "givenMethodRunOutOfGas",
          "outputs": [],
          "stateMutability": "nonpayable",
          "type": "function"
        },
        {
          "inputs": [],
          "name": "invocationCount",
          "outputs": [
            {
              "internalType": "uint256",
              "name": "",
              "type": "uint256"
            }
          ],
          "stateMutability": "nonpayable",
          "type": "function"
        },
        {
          "inputs": [
            {
              "internalType": "bytes",
              "name": "call",
              "type": "bytes"
            }
          ],
          "name": "invocationCountForCalldata",
          "outputs": [
            {
              "internalType": "uint256",
              "name": "",
              "type": "uint256"
            }
          ],
          "stateMutability": "nonpayable",
          "type": "function"
        },
        {
          "inputs": [
            {
              "internalType": "bytes",
              "name": "call",
              "type": "bytes"
            }
          ],
          "name": "invocationCountForMethod",
          "outputs": [
            {
              "internalType": "uint256",
              "name": "",
              "type": "uint256"
            }
          ],
          "stateMutability": "nonpayable",
          "type": "function"
        },
        {
          "inputs": [],
          "name": "reset",
          "outputs": [],
          "stateMutability": "nonpayable",
          "type": "function"
        },
        {
          "inputs": [
            {
              "internalType": "bytes4",
              "name": "methodId",
              "type": "bytes4"
            },
            {
              "internalType": "bytes",
              "name": "originalMsgData",
              "type": "bytes"
            }
          ],
          "name": "updateInvocationCount",
          "outputs": [],
          "stateMutability": "nonpayable",
          "type": "function"
        }
      ],
      "devdoc": {
        "methods": {}
      },
      "evm": {
        "bytecode": {
          "linkReferences": {},
          "object": "600060a09081526020608081905260c06040526200002091600b91620000ce565b503480156200002e57600080fd5b50604080518082019091526004815263183c333360e11b6020808301918252600160f81b60009081529052905162000088917f82ac279db26a206d9ba5a94c07ff940aea4b3bfde8820ec95f4efa0acfd0d5bc91620000ce565b50600160f81b60005260056020527fde001afd1f75281f9d2ab22d4e0166be5a51dd890d7492e8fbf3e412e05eac0a805463ffffffff1916630100000017905562000173565b828054600181600116156101000203166002900490600052602060002090601f016020900481019282601f106200011157805160ff191683800117855562000141565b8280016001018555821562000141579182015b828111156200014157825182559160200191906001019062000124565b506200014f92915062000153565b5090565b6200017091905b808211156200014f57600081556001016200015a565b90565b6128d280620001836000396000f3fe6080604052600436106101d85760003560e01c80637cd96ee411610102578063cf11ff5d11610095578063e211b8a511610064578063e211b8a514611355578063eb861f691461136a578063f07da229146113e5578063f5afa9c114611417576101d8565b8063cf11ff5d146111c6578063d6fe97781461124a578063d73ca0ac146112c5578063d826f88f14611340576101d8565b8063aa788c55116100d1578063aa788c5514610fd2578063af21ac781461104d578063b3901f2914611077578063c6ee167f146110fb576101d8565b80637cd96ee414610dac57806387abab6514610dc15780639a1dc86b14610e3c5780639eaeed7514610f07576101d8565b8063586984a41161017a57806367aad04a1161014957806367aad04a14610c6c578063682b479714610c8157806368ab6f2f14610cb45780636f40075614610d2f576101d8565b8063586984a4146109e757806358cbc02514610a625780635a3855ab14610b245780636193659414610ba1576101d8565b80632ed238dc116101b65780632ed238dc1461091657806336ff0ee51461092b5780633956dc6b146109575780634937c4f61461096c576101d8565b80630a20119f146107e8578063122aea811461080f57806321fed4d614610899575b60003560018060003660405180838380828437919091019485525050604051928390036020019092205460ff16915050600281111561021357fe5b14156102d5576003600036604051808383808284379190910194855250506040516020938190038401812062461bcd60e51b8252600482019485528054600260018216156101000260001901909116046024830181905290949350839250604490910190849080156102c65780601f1061029b576101008083540402835291602001916102c6565b820191906000526020600020905b8154815290600101906020018083116102a957829003601f168201915b50509250505060405180910390fd5b6002600160003660405180838380828437919091019485525050604051928390036020019092205460ff16915050600281111561030e57fe5b141561031c5761031c611492565b60606002600036604051808383808284379190910194855250506040805160209481900385018120805460026001821615610100026000190190911604601f810187900487028301870190935282825290949093509091508301828280156103c55780601f1061039a576101008083540402835291602001916103c5565b820191906000526020600020905b8154815290600101906020018083116103a857829003601f168201915b505050505090508051600014156105595760016001600160e01b0319831660009081526006602052604090205460ff16600281111561040057fe5b141561047b576001600160e01b03198216600090815260086020908152604091829020915162461bcd60e51b81526004810191825282546002600019610100600184161502019091160460248201819052829160440190849080156102c65780601f1061029b576101008083540402835291602001916102c6565b60026001600160e01b0319831660009081526006602052604090205460ff1660028111156104a557fe5b14156104b3576104b3611492565b6001600160e01b0319821660009081526007602090815260409182902080548351601f6002600019610100600186161502019093169290920491820184900484028101840190945280845290918301828280156105515780601f1061052657610100808354040283529160200191610551565b820191906000526020600020905b81548152906001019060200180831161053457829003601f168201915b505050505090505b8051610688576001600a5460ff16600281111561057257fe5b14156105d95760405162461bcd60e51b8152602060048201908152600c8054600260001961010060018416150201909116046024840181905290928291604490910190849080156102c65780601f1061029b576101008083540402835291602001916102c6565b6002600a5460ff1660028111156105ec57fe5b14156105fa576105fa611492565b600b805460408051602060026001851615610100026000190190941693909304601f810184900484028201840190925281815292918301828280156106805780601f1061065557610100808354040283529160200191610680565b820191906000526020600020905b81548152906001019060200180831161066357829003601f168201915b505050505090505b604080516001600160e01b03198416602482019081526044820192835236606483018190526060933093620186a0938893600093909260840184848082843760008382015260408051601f909201601f1990811690940182810390940182529283526020810180517bffffffffffffffffffffffffffffffffffffffffffffffffffffffff167f58cbc0250000000000000000000000000000000000000000000000000000000017815292518151919850965086955091935090915081905083835b602083106107695780518252601f19909201916020918201910161074a565b6001836020036101000a03801982511681845116808217855250505050505090500191505060006040518083038160008787f1925050503d80600081146107cc576040519150601f19603f3d011682016040523d82523d6000602084013e6107d1565b606091505b5091505080516000146107e057fe5b815182602001f35b3480156107f457600080fd5b506107fd6114ae565b60408051918252519081900360200190f35b34801561081b57600080fd5b506108246114b5565b6040805160208082528351818301528351919283929083019185019080838360005b8381101561085e578181015183820152602001610846565b50505050905090810190601f16801561088b5780820380516001836020036101000a031916815260200191505b509250505060405180910390f35b3480156108a557600080fd5b50610914600480360360208110156108bc57600080fd5b810190602081018135600160201b8111156108d657600080fd5b8201836020820111156108e857600080fd5b803590602001918460018302840111600160201b8311171561090957600080fd5b5090925090506114d7565b005b34801561092257600080fd5b506107fd61155e565b34801561093757600080fd5b506109146004803603602081101561094e57600080fd5b5035151561159e565b34801561096357600080fd5b506109146115c5565b34801561097857600080fd5b506107fd6004803603602081101561098f57600080fd5b810190602081018135600160201b8111156109a957600080fd5b8201836020820111156109bb57600080fd5b803590602001918460018302840111600160201b831117156109dc57600080fd5b5090925090506115d4565b3480156109f357600080fd5b506107fd60048036036020811015610a0a57600080fd5b810190602081018135600160201b811115610a2457600080fd5b820183602082011115610a3657600080fd5b803590602001918460018302840111600160201b83111715610a5757600080fd5b509092509050611665565b348015610a6e57600080fd5b5061091460048036036040811015610a8557600080fd5b6001600160e01b03198235169190810190604081016020820135600160201b811115610ab057600080fd5b820183602082011115610ac257600080fd5b803590602001918460018302840111600160201b83111715610ae357600080fd5b91908080601f0160208091040260200160405190810160405280939291908181526020018383808284376000920191909152509295506116bc945050505050565b348015610b3057600080fd5b5061091460048036036040811015610b4757600080fd5b810190602081018135600160201b811115610b6157600080fd5b820183602082011115610b7357600080fd5b803590602001918460018302840111600160201b83111715610b9457600080fd5b91935091503515156117ea565b348015610bad57600080fd5b5061091460048036036040811015610bc457600080fd5b810190602081018135600160201b811115610bde57600080fd5b820183602082011115610bf057600080fd5b803590602001918460018302840111600160201b83111715610c1157600080fd5b919390929091602081019035600160201b811115610c2e57600080fd5b820183602082011115610c4057600080fd5b803590602001918460018302840111600160201b83111715610c6157600080fd5b509092509050611850565b348015610c7857600080fd5b506107fd6118c3565b348015610c8d57600080fd5b5061091460048036036020811015610ca457600080fd5b50356001600160a01b03166118cb565b348015610cc057600080fd5b5061091460048036036020811015610cd757600080fd5b810190602081018135600160201b811115610cf157600080fd5b820183602082011115610d0357600080fd5b803590602001918460018302840111600160201b83111715610d2457600080fd5b5090925090506118e3565b348015610d3b57600080fd5b5061091460048036036040811015610d5257600080fd5b810190602081018135600160201b811115610d6c57600080fd5b820183602082011115610d7e57600080fd5b803590602001918460018302840111600160201b83111715610d9f57600080fd5b9193509150351515611960565b348015610db857600080fd5b506108246119c0565b348015610dcd57600080fd5b5061091460048036036020811015610de457600080fd5b810190602081018135600160201b811115610dfe57600080fd5b820183602082011115610e1057600080fd5b803590602001918460018302840111600160201b83111715610e3157600080fd5b5090925090506119e0565b348015610e4857600080fd5b5061091460048036036040811015610e5f57600080fd5b810190602081018135600160201b811115610e7957600080fd5b820183602082011115610e8b57600080fd5b803590602001918460018302840111600160201b83111715610eac57600080fd5b919390929091602081019035600160201b811115610ec957600080fd5b820183602082011115610edb57600080fd5b803590602001918460018302840111600160201b83111715610efc57600080fd5b5090925090506119f9565b348015610f1357600080fd5b5061091460048036036040811015610f2a57600080fd5b810190602081018135600160201b811115610f4457600080fd5b820183602082011115610f5657600080fd5b803590602001918460018302840111600160201b83111715610f7757600080fd5b919390929091602081019035600160201b811115610f9457600080fd5b820183602082011115610fa657600080fd5b803590602001918460018302840111600160201b83111715610fc757600080fd5b509092509050611a87565b348015610fde57600080fd5b5061091460048036036020811015610ff557600080fd5b810190602081018135600160201b81111561100f57600080fd5b82018360208201111561102157600080fd5b803590602001918460018302840111600160201b8311171561104257600080fd5b509092509050611b40565b34801561105957600080fd5b506109146004803603602081101561107057600080fd5b5035611bad565b34801561108357600080fd5b506109146004803603604081101561109a57600080fd5b810190602081018135600160201b8111156110b457600080fd5b8201836020820111156110c657600080fd5b803590602001918460018302840111600160201b831117156110e757600080fd5b9193509150356001600160a01b0316611bb9565b34801561110757600080fd5b506109146004803603604081101561111e57600080fd5b810190602081018135600160201b81111561113857600080fd5b82018360208201111561114a57600080fd5b803590602001918460018302840111600160201b8311171561116b57600080fd5b919390929091602081019035600160201b81111561118857600080fd5b82018360208201111561119a57600080fd5b803590602001918460018302840111600160201b831117156111bb57600080fd5b509092509050611c05565b3480156111d257600080fd5b50610914600480360360408110156111e957600080fd5b810190602081018135600160201b81111561120357600080fd5b82018360208201111561121557600080fd5b803590602001918460018302840111600160201b8311171561123657600080fd5b9193509150356001600160a01b0316611c78565b34801561125657600080fd5b506109146004803603602081101561126d57600080fd5b810190602081018135600160201b81111561128757600080fd5b82018360208201111561129957600080fd5b803590602001918460018302840111600160201b831117156112ba57600080fd5b509092509050611cc4565b3480156112d157600080fd5b50610914600480360360408110156112e857600080fd5b810190602081018135600160201b81111561130257600080fd5b82018360208201111561131457600080fd5b803590602001918460018302840111600160201b8311171561133557600080fd5b919350915035611d03565b34801561134c57600080fd5b50610914611d48565b34801561136157600080fd5b5061091461227d565b34801561137657600080fd5b506109146004803603602081101561138d57600080fd5b810190602081018135600160201b8111156113a757600080fd5b8201836020820111156113b957600080fd5b803590602001918460018302840111600160201b831117156113da57600080fd5b5090925090506122a8565b3480156113f157600080fd5b506113fa6118c3565b604080516001600160e01b03199092168252519081900360200190f35b34801561142357600080fd5b506109146004803603604081101561143a57600080fd5b810190602081018135600160201b81111561145457600080fd5b82018360208201111561146657600080fd5b803590602001918460018302840111600160201b8311171561148757600080fd5b919350915035612375565b5b60006060600060c060008060066107d05a03f1905050611493565b600d545b90565b6040805160006020808301919091528251808303909101815290820190915281565b6002600183836040518083838082843791909101948552505060405192839003602001909220805490925060ff19169050600183600281111561151657fe5b021790555061155a82828080601f0160208091040260200160405190810160405280939291908181526020018383808284376000920191909152506123ba92505050565b5050565b604080518082019091526004815263183c333360e11b6020909101527f420daffad4b177bce28bead5f76f7bc97ef63c3aae74c496db8ce6aafe9e651381565b6000816115ac5760006115af565b60015b60ff16905061155a6115c08261247b565b6124a5565b600a805460ff19166002179055565b60008061161684848080601f0160208091040260200160405190810160405280939291908181526020018383808284376000920191909152506124c292505050565b600e54604080516020808201939093526001600160e01b031990931683820152805160248185030181526044909301815282519282019290922060009081526009909152205491505092915050565b600060046000600e5485856040516020018084815260200183838082843780830192505050935050505060405160208183030381529060405280519060200120815260200190815260200160002054905092915050565b3330146116fa5760405162461bcd60e51b815260040180806020018281038252602b815260200180612872602b913960400191505060405180910390fd5b600d80546001908101909155600e8054604080516020808201939093526001600160e01b0319871681830152815160248183030181526044820183528051908401206000908152600984529182208054860190559254606484018181528651600495939492938893608490910191908401908083835b6020831061178f5780518252601f199092019160209182019101611770565b6001836020036101000a03801982511681845116808217855250505050505090500192505050604051602081830303815290604052805190602001208152602001908152602001600020600082825401925050819055505050565b6000816117f85760006117fb565b60015b60ff16905061184a84848080601f016020809104026020016040519081016040528093929190818152602001838380828437600092019190915250611845925085915061247b9050565b61251d565b50505050565b61184a84848080601f01602080910402602001604051908101604052809392919081815260200183838082843760009201919091525050604080516020601f8801819004810282018101909252868152925086915085908190840183828082843760009201919091525061251d92505050565b600160f81b81565b6118e06115c0826001600160a01b031661247b565b50565b600061192483838080601f0160208091040260200160405190810160405280939291908181526020018383808284376000920191909152506124c292505050565b6001600160e01b031981166000908152600660205260409020805491925060029160ff19166001835b021790555061195b81612618565b505050565b60008161196e576000611971565b60015b60ff16905061184a84848080601f0160208091040260200160405190810160405280939291908181526020018383808284376000920191909152506119bb925085915061247b9050565b6126a3565b60405180604001604052806004815260200163183c333360e11b81525081565b600a805460ff1916600117905561195b600c83836126f6565b6000611a3a85858080601f0160208091040260200160405190810160405280939291908181526020018383808284376000920191909152506124c292505050565b6001600160e01b031981166000908152600660209081526040808320805460ff1916600117905560089091529020909150611a769084846126f6565b50611a8081612618565b5050505050565b60018085856040518083838082843791909101948552505060405192839003602001909220805490925060ff191690506001836002811115611ac557fe5b021790555081816003868660405180838380828437808301925050509250505090815260200160405180910390209190611b009291906126f6565b5061184a84848080601f0160208091040260200160405190810160405280939291908181526020018383808284376000920191909152506123ba92505050565b6000611b8183838080601f0160208091040260200160405190810160405280939291908181526020018383808284376000920191909152506124c292505050565b6001600160e01b031981166000908152600660205260409020805491925060019160ff1916828061194d565b6118e06115c08261247b565b61195b83838080601f016020809104026020016040519081016040528093929190818152602001838380828437600092019190915250611845925050506001600160a01b03841661247b565b61184a84848080601f01602080910402602001604051908101604052809392919081815260200183838082843760009201919091525050604080516020601f880181900481028201810190925286815292508691508590819084018382808284376000920191909152506126a392505050565b61195b83838080601f0160208091040260200160405190810160405280939291908181526020018383808284376000920191909152506119bb925050506001600160a01b03841661247b565b61155a82828080601f0160208091040260200160405190810160405280939291908181526020018383808284376000920191909152506124a592505050565b61195b83838080601f016020809104026020016040519081016040528093929190818152602001838380828437600092019190915250611845925085915061247b9050565b600160f81b600090815260209081527f82ac279db26a206d9ba5a94c07ff940aea4b3bfde8820ec95f4efa0acfd0d5bc80546040805160026001841615610100026000190190931692909204601f8101859004850283018501909152808252606093919291830182828015611dfe5780601f10611dd357610100808354040283529160200191611dfe565b820191906000526020600020905b815481529060010190602001808311611de157829003601f168201915b5050835160208501209394505050505b604080518082019091526004815263183c333360e11b6020909101527f420daffad4b177bce28bead5f76f7bc97ef63c3aae74c496db8ce6aafe9e651381146120a85760006001836040518082805190602001908083835b60208310611e855780518252601f199092019160209182019101611e66565b51815160209384036101000a60001901801990921691161790529201948552506040519384900301909220805490925060ff191690506001836002811115611ec957fe5b0217905550604051806020016040528060008152506002836040518082805190602001908083835b60208310611f105780518252601f199092019160209182019101611ef1565b51815160209384036101000a60001901801990921691161790529201948552506040519384900381019093208451611f519591949190910192509050612774565b50604051806020016040528060008152506003836040518082805190602001908083835b60208310611f945780518252601f199092019160209182019101611f75565b51815160209384036101000a60001901801990921691161790529201948552506040519384900381019093208451611fd59591949190910192509050612774565b506000818152602081815260409182902080548351601f6002600019610100600186161502019093169290920491820184900484028101840190945280845290918301828280156120675780601f1061203c57610100808354040283529160200191612067565b820191906000526020600020905b81548152906001019060200180831161204a57829003601f168201915b5050604080516020808201808452600080845289815291829052929020905195975061209a959094509092509050612774565b505080516020820120611e0e565b604080518082019091526004815263183c333360e11b6020808301918252600160f81b6000908152905290516120ff917f82ac279db26a206d9ba5a94c07ff940aea4b3bfde8820ec95f4efa0acfd0d5bc91612774565b50600160f81b60005260056020527fde001afd1f75281f9d2ab22d4e0166be5a51dd890d7492e8fbf3e412e05eac0a5460e01b5b6001600160e01b03198116600160f81b146121f3576001600160e01b031981166000818152600660209081526040808320805460ff1916905580518083018083528482529484526007909252909120905183926121909291612774565b5060408051602080820180845260008084526001600160e01b031986168152600890925292902090516121c39290612774565b506001600160e01b0319166000908152600560205260409020805463ffffffff19811690915560e01b9050612133565b600160f81b6000908152600560209081527fde001afd1f75281f9d2ab22d4e0166be5a51dd890d7492e8fbf3e412e05eac0a805463ffffffff1916630100000017905560408051808301939093528051808403830181529281019052815161225f92600b920190612774565b5050600a805460ff1916905550506000600d55600e80546001019055565b600a805460ff191660011790556040805160208101918290526000908190526118e091600c91612774565b60018083836040518083838082843791909101948552505060405192839003602001909220805490925060ff1916905060018360028111156122e657fe5b0217905550604051806020016040528060008152506003838360405180838380828437808301925050509250505090815260200160405180910390209080519060200190612335929190612774565b5061155a82828080601f0160208091040260200160405190810160405280939291908181526020018383808284376000920191909152506123ba92505050565b61195b83838080601f0160208091040260200160405190810160405280939291908181526020018383808284376000920191909152506119bb925085915061247b9050565b80516020808301919091206000818152918290526040909120546002600019610100600184161502019091160461155a5760006020819052818152604090207f82ac279db26a206d9ba5a94c07ff940aea4b3bfde8820ec95f4efa0acfd0d5bc805461243a929190600260001961010060018416150201909116046127e2565b50600160f81b60009081526020908152825161195b917f82ac279db26a206d9ba5a94c07ff940aea4b3bfde8820ec95f4efa0acfd0d5bc9190850190612774565b60408051602080825281830190925260609160208201818036833750505060208101929092525090565b600a805460ff19169055805161155a90600b906020840190612774565b600080805b600481101561251657806008028482815181106124e057fe5b01602001517fff0000000000000000000000000000000000000000000000000000000000000016901c91909117906001016124c7565b5092915050565b60006001836040518082805190602001908083835b602083106125515780518252601f199092019160209182019101612532565b51815160209384036101000a60001901801990921691161790529201948552506040519384900301909220805490925060ff19169050600183600281111561259557fe5b0217905550806002836040518082805190602001908083835b602083106125cd5780518252601f1990920191602091820191016125ae565b51815160209384036101000a6000190180199092169116179052920194855250604051938490038101909320845161260e9591949190910192509050612774565b5061155a826123ba565b6001600160e01b031980821660009081526005602052604090205460e01b166118e05760056020527fde001afd1f75281f9d2ab22d4e0166be5a51dd890d7492e8fbf3e412e05eac0a80546001600160e01b03198316600090815260408120805463ffffffff90931663ffffffff19938416179055600160f81b9052815460e084901c911617905550565b60006126ae836124c2565b6001600160e01b031981166000908152600660209081526040808320805460ff191690556007825290912084519293506126ec929091850190612774565b5061195b81612618565b828054600181600116156101000203166002900490600052602060002090601f016020900481019282601f106127375782800160ff19823516178555612764565b82800160010185558215612764579182015b82811115612764578235825591602001919060010190612749565b50612770929150612857565b5090565b828054600181600116156101000203166002900490600052602060002090601f016020900481019282601f106127b557805160ff1916838001178555612764565b82800160010185558215612764579182015b828111156127645782518255916020019190600101906127c7565b828054600181600116156101000203166002900490600052602060002090601f016020900481019282601f1061281b5780548555612764565b8280016001018555821561276457600052602060002091601f016020900482015b8281111561276457825482559160010191906001019061283c565b6114b291905b80821115612770576000815560010161285d56fe43616e206f6e6c792062652063616c6c65642066726f6d2074686520636f6e747261637420697473656c66a2646970667358221220261e7fb94f8f23ddbd82d760cf69aa64a19d3f78354693ca6eeb00de99c2d81a64736f6c63430006060033",
          "opcodes": "PUSH1 0x0 PUSH1 0xA0 SWAP1 DUP2 MSTORE PUSH1 0x20 PUSH1 0x80 DUP2 SWAP1 MSTORE PUSH1 0xC0 PUSH1 0x40 MSTORE PUSH3 0x20 SWAP2 PUSH1 0xB SWAP2 PUSH3 0xCE JUMP JUMPDEST POP CALLVALUE DUP1 ISZERO PUSH3 0x2E JUMPI PUSH1 0x0 DUP1 REVERT JUMPDEST POP PUSH1 0x40 DUP1 MLOAD DUP1 DUP3 ADD SWAP1 SWAP2 MSTORE PUSH1 0x4 DUP2 MSTORE PUSH4 0x183C3333 PUSH1 0xE1 SHL PUSH1 0x20 DUP1 DUP4 ADD SWAP2 DUP3 MSTORE PUSH1 0x1 PUSH1 0xF8 SHL PUSH1 0x0 SWAP1 DUP2 MSTORE SWAP1 MSTORE SWAP1 MLOAD PUSH3 0x88 SWAP2 PUSH32 0x82AC279DB26A206D9BA5A94C07FF940AEA4B3BFDE8820EC95F4EFA0ACFD0D5BC SWAP2 PUSH3 0xCE JUMP JUMPDEST POP PUSH1 0x1 PUSH1 0xF8 SHL PUSH1 0x0 MSTORE PUSH1 0x5 PUSH1 0x20 MSTORE PUSH32 0xDE001AFD1F75281F9D2AB22D4E0166BE5A51DD890D7492E8FBF3E412E05EAC0A DUP1 SLOAD PUSH4 0xFFFFFFFF NOT AND PUSH4 0x1000000 OR SWAP1 SSTORE PUSH3 0x173 JUMP JUMPDEST DUP3 DUP1 SLOAD PUSH1 0x1 DUP2 PUSH1 0x1 AND ISZERO PUSH2 0x100 MUL SUB AND PUSH1 0x2 SWAP1 DIV SWAP1 PUSH1 0x0 MSTORE PUSH1 0x20 PUSH1 0x0 KECCAK256 SWAP1 PUSH1 0x1F ADD PUSH1 0x20 SWAP1 DIV DUP2 ADD SWAP3 DUP3 PUSH1 0x1F LT PUSH3 0x111 JUMPI DUP1 MLOAD PUSH1 0xFF NOT AND DUP4 DUP1 ADD OR DUP6 SSTORE PUSH3 0x141 JUMP JUMPDEST DUP3 DUP1 ADD PUSH1 0x1 ADD DUP6 SSTORE DUP3 ISZERO PUSH3 0x141 JUMPI SWAP2 DUP3 ADD JUMPDEST DUP3 DUP2 GT ISZERO PUSH3 0x141 JUMPI DUP3 MLOAD DUP3 SSTORE SWAP2 PUSH1 0x20 ADD SWAP2 SWAP1 PUSH1 0x1 ADD SWAP1 PUSH3 0x124 JUMP JUMPDEST POP PUSH3 0x14F SWAP3 SWAP2 POP PUSH3 0x153 JUMP JUMPDEST POP SWAP1 JUMP JUMPDEST PUSH3 0x170 SWAP2 SWAP1 JUMPDEST DUP1 DUP3 GT ISZERO PUSH3 0x14F JUMPI PUSH1 0x0 DUP2 SSTORE PUSH1 0x1 ADD PUSH3 0x15A JUMP JUMPDEST SWAP1 JUMP JUMPDEST PUSH2 0x28D2 DUP1 PUSH3 0x183 PUSH1 0x0 CODECOPY PUSH1 0x0 RETURN INVALID PUSH1 0x80 PUSH1 0x40 MSTORE PUSH1 0x4 CALLDATASIZE LT PUSH2 0x1D8 JUMPI PUSH1 0x0 CALLDATALOAD PUSH1 0xE0 SHR DUP1 PUSH4 0x7CD96EE4 GT PUSH2 0x102 JUMPI DUP1 PUSH4 0xCF11FF5D GT PUSH2 0x95 JUMPI DUP1 PUSH4 0xE211B8A5 GT PUSH2 0x64 JUMPI DUP1 PUSH4 0xE211B8A5 EQ PUSH2 0x1355 JUMPI DUP1 PUSH4 0xEB861F69 EQ PUSH2 0x136A JUMPI DUP1 PUSH4 0xF07DA229 EQ PUSH2 0x13E5 JUMPI DUP1 PUSH4 0xF5AFA9C1 EQ PUSH2 0x1417 JUMPI PUSH2 0x1D8 JUMP JUMPDEST DUP1 PUSH4 0xCF11FF5D EQ PUSH2 0x11C6 JUMPI DUP1 PUSH4 0xD6FE9778 EQ PUSH2 0x124A JUMPI DUP1 PUSH4 0xD73CA0AC EQ PUSH2 0x12C5 JUMPI DUP1 PUSH4 0xD826F88F EQ PUSH2 0x1340 JUMPI PUSH2 0x1D8 JUMP JUMPDEST DUP1 PUSH4 0xAA788C55 GT PUSH2 0xD1 JUMPI DUP1 PUSH4 0xAA788C55 EQ PUSH2 0xFD2 JUMPI DUP1 PUSH4 0xAF21AC78 EQ PUSH2 0x104D JUMPI DUP1 PUSH4 0xB3901F29 EQ PUSH2 0x1077 JUMPI DUP1 PUSH4 0xC6EE167F EQ PUSH2 0x10FB JUMPI PUSH2 0x1D8 JUMP JUMPDEST DUP1 PUSH4 0x7CD96EE4 EQ PUSH2 0xDAC JUMPI DUP1 PUSH4 0x87ABAB65 EQ PUSH2 0xDC1 JUMPI DUP1 PUSH4 0x9A1DC86B EQ PUSH2 0xE3C JUMPI DUP1 PUSH4 0x9EAEED75 EQ PUSH2 0xF07 JUMPI PUSH2 0x1D8 JUMP JUMPDEST DUP1 PUSH4 0x586984A4 GT PUSH2 0x17A JUMPI DUP1 PUSH4 0x67AAD04A GT PUSH2 0x149 JUMPI DUP1 PUSH4 0x67AAD04A EQ PUSH2 0xC6C JUMPI DUP1 PUSH4 0x682B4797 EQ PUSH2 0xC81 JUMPI DUP1 PUSH4 0x68AB6F2F EQ PUSH2 0xCB4 JUMPI DUP1 PUSH4 0x6F400756 EQ PUSH2 0xD2F JUMPI PUSH2 0x1D8 JUMP JUMPDEST DUP1 PUSH4 0x586984A4 EQ PUSH2 0x9E7 JUMPI DUP1 PUSH4 0x58CBC025 EQ PUSH2 0xA62 JUMPI DUP1 PUSH4 0x5A3855AB EQ PUSH2 0xB24 JUMPI DUP1 PUSH4 0x61936594 EQ PUSH2 0xBA1 JUMPI PUSH2 0x1D8 JUMP JUMPDEST DUP1 PUSH4 0x2ED238DC GT PUSH2 0x1B6 JUMPI DUP1 PUSH4 0x2ED238DC EQ PUSH2 0x916 JUMPI DUP1 PUSH4 0x36FF0EE5 EQ PUSH2 0x92B JUMPI DUP1 PUSH4 0x3956DC6B EQ PUSH2 0x957 JUMPI DUP1 PUSH4 0x4937C4F6 EQ PUSH2 0x96C JUMPI PUSH2 0x1D8 JUMP JUMPDEST DUP1 PUSH4 0xA20119F EQ PUSH2 0x7E8 JUMPI DUP1 PUSH4 0x122AEA81 EQ PUSH2 0x80F JUMPI DUP1 PUSH4 0x21FED4D6 EQ PUSH2 0x899 JUMPI JUMPDEST PUSH1 0x0 CALLDATALOAD PUSH1 0x1 DUP1 PUSH1 0x0 CALLDATASIZE PUSH1 0x40 MLOAD DUP1 DUP4 DUP4 DUP1 DUP3 DUP5 CALLDATACOPY SWAP2 SWAP1 SWAP2 ADD SWAP5 DUP6 MSTORE POP POP PUSH1 0x40 MLOAD SWAP3 DUP4 SWAP1 SUB PUSH1 0x20 ADD SWAP1 SWAP3 KECCAK256 SLOAD PUSH1 0xFF AND SWAP2 POP POP PUSH1 0x2 DUP2 GT ISZERO PUSH2 0x213 JUMPI INVALID JUMPDEST EQ ISZERO PUSH2 0x2D5 JUMPI PUSH1 0x3 PUSH1 0x0 CALLDATASIZE PUSH1 0x40 MLOAD DUP1 DUP4 DUP4 DUP1 DUP3 DUP5 CALLDATACOPY SWAP2 SWAP1 SWAP2 ADD SWAP5 DUP6 MSTORE POP POP PUSH1 0x40 MLOAD PUSH1 0x20 SWAP4 DUP2 SWAP1 SUB DUP5 ADD DUP2 KECCAK256 PUSH3 0x461BCD PUSH1 0xE5 SHL DUP3 MSTORE PUSH1 0x4 DUP3 ADD SWAP5 DUP6 MSTORE DUP1 SLOAD PUSH1 0x2 PUSH1 0x1 DUP3 AND ISZERO PUSH2 0x100 MUL PUSH1 0x0 NOT ADD SWAP1 SWAP2 AND DIV PUSH1 0x24 DUP4 ADD DUP2 SWAP1 MSTORE SWAP1 SWAP5 SWAP4 POP DUP4 SWAP3 POP PUSH1 0x44 SWAP1 SWAP2 ADD SWAP1 DUP5 SWAP1 DUP1 ISZERO PUSH2 0x2C6 JUMPI DUP1 PUSH1 0x1F LT PUSH2 0x29B JUMPI PUSH2 0x100 DUP1 DUP4 SLOAD DIV MUL DUP4 MSTORE SWAP2 PUSH1 0x20 ADD SWAP2 PUSH2 0x2C6 JUMP JUMPDEST DUP3 ADD SWAP2 SWAP1 PUSH1 0x0 MSTORE PUSH1 0x20 PUSH1 0x0 KECCAK256 SWAP1 JUMPDEST DUP2 SLOAD DUP2 MSTORE SWAP1 PUSH1 0x1 ADD SWAP1 PUSH1 0x20 ADD DUP1 DUP4 GT PUSH2 0x2A9 JUMPI DUP3 SWAP1 SUB PUSH1 0x1F AND DUP3 ADD SWAP2 JUMPDEST POP POP SWAP3 POP POP POP PUSH1 0x40 MLOAD DUP1 SWAP2 SUB SWAP1 REVERT JUMPDEST PUSH1 0x2 PUSH1 0x1 PUSH1 0x0 CALLDATASIZE PUSH1 0x40 MLOAD DUP1 DUP4 DUP4 DUP1 DUP3 DUP5 CALLDATACOPY SWAP2 SWAP1 SWAP2 ADD SWAP5 DUP6 MSTORE POP POP PUSH1 0x40 MLOAD SWAP3 DUP4 SWAP1 SUB PUSH1 0x20 ADD SWAP1 SWAP3 KECCAK256 SLOAD PUSH1 0xFF AND SWAP2 POP POP PUSH1 0x2 DUP2 GT ISZERO PUSH2 0x30E JUMPI INVALID JUMPDEST EQ ISZERO PUSH2 0x31C JUMPI PUSH2 0x31C PUSH2 0x1492 JUMP JUMPDEST PUSH1 0x60 PUSH1 0x2 PUSH1 0x0 CALLDATASIZE PUSH1 0x40 MLOAD DUP1 DUP4 DUP4 DUP1 DUP3 DUP5 CALLDATACOPY SWAP2 SWAP1 SWAP2 ADD SWAP5 DUP6 MSTORE POP POP PUSH1 0x40 DUP1 MLOAD PUSH1 0x20 SWAP5 DUP2 SWAP1 SUB DUP6 ADD DUP2 KECCAK256 DUP1 SLOAD PUSH1 0x2 PUSH1 0x1 DUP3 AND ISZERO PUSH2 0x100 MUL PUSH1 0x0 NOT ADD SWAP1 SWAP2 AND DIV PUSH1 0x1F DUP2 ADD DUP8 SWAP1 DIV DUP8 MUL DUP4 ADD DUP8 ADD SWAP1 SWAP4 MSTORE DUP3 DUP3 MSTORE SWAP1 SWAP5 SWAP1 SWAP4 POP SWAP1 SWAP2 POP DUP4 ADD DUP3 DUP3 DUP1 ISZERO PUSH2 0x3C5 JUMPI DUP1 PUSH1 0x1F LT PUSH2 0x39A JUMPI PUSH2 0x100 DUP1 DUP4 SLOAD DIV MUL DUP4 MSTORE SWAP2 PUSH1 0x20 ADD SWAP2 PUSH2 0x3C5 JUMP JUMPDEST DUP3 ADD SWAP2 SWAP1 PUSH1 0x0 MSTORE PUSH1 0x20 PUSH1 0x0 KECCAK256 SWAP1 JUMPDEST DUP2 SLOAD DUP2 MSTORE SWAP1 PUSH1 0x1 ADD SWAP1 PUSH1 0x20 ADD DUP1 DUP4 GT PUSH2 0x3A8 JUMPI DUP3 SWAP1 SUB PUSH1 0x1F AND DUP3 ADD SWAP2 JUMPDEST POP POP POP POP POP SWAP1 POP DUP1 MLOAD PUSH1 0x0 EQ ISZERO PUSH2 0x559 JUMPI PUSH1 0x1 PUSH1 0x1 PUSH1 0x1 PUSH1 0xE0 SHL SUB NOT DUP4 AND PUSH1 0x0 SWAP1 DUP2 MSTORE PUSH1 0x6 PUSH1 0x20 MSTORE PUSH1 0x40 SWAP1 KECCAK256 SLOAD PUSH1 0xFF AND PUSH1 0x2 DUP2 GT ISZERO PUSH2 0x400 JUMPI INVALID JUMPDEST EQ ISZERO PUSH2 0x47B JUMPI PUSH1 0x1 PUSH1 0x1 PUSH1 0xE0 SHL SUB NOT DUP3 AND PUSH1 0x0 SWAP1 DUP2 MSTORE PUSH1 0x8 PUSH1 0x20 SWAP1 DUP2 MSTORE PUSH1 0x40 SWAP2 DUP3 SWAP1 KECCAK256 SWAP2 MLOAD PUSH3 0x461BCD PUSH1 0xE5 SHL DUP2 MSTORE PUSH1 0x4 DUP2 ADD SWAP2 DUP3 MSTORE DUP3 SLOAD PUSH1 0x2 PUSH1 0x0 NOT PUSH2 0x100 PUSH1 0x1 DUP5 AND ISZERO MUL ADD SWAP1 SWAP2 AND DIV PUSH1 0x24 DUP3 ADD DUP2 SWAP1 MSTORE DUP3 SWAP2 PUSH1 0x44 ADD SWAP1 DUP5 SWAP1 DUP1 ISZERO PUSH2 0x2C6 JUMPI DUP1 PUSH1 0x1F LT PUSH2 0x29B JUMPI PUSH2 0x100 DUP1 DUP4 SLOAD DIV MUL DUP4 MSTORE SWAP2 PUSH1 0x20 ADD SWAP2 PUSH2 0x2C6 JUMP JUMPDEST PUSH1 0x2 PUSH1 0x1 PUSH1 0x1 PUSH1 0xE0 SHL SUB NOT DUP4 AND PUSH1 0x0 SWAP1 DUP2 MSTORE PUSH1 0x6 PUSH1 0x20 MSTORE PUSH1 0x40 SWAP1 KECCAK256 SLOAD PUSH1 0xFF AND PUSH1 0x2 DUP2 GT ISZERO PUSH2 0x4A5 JUMPI INVALID JUMPDEST EQ ISZERO PUSH2 0x4B3 JUMPI PUSH2 0x4B3 PUSH2 0x1492 JUMP JUMPDEST PUSH1 0x1 PUSH1 0x1 PUSH1 0xE0 SHL SUB NOT DUP3 AND PUSH1 0x0 SWAP1 DUP2 MSTORE PUSH1 0x7 PUSH1 0x20 SWAP1 DUP2 MSTORE PUSH1 0x40 SWAP2 DUP3 SWAP1 KECCAK256 DUP1 SLOAD DUP4 MLOAD PUSH1 0x1F PUSH1 0x2 PUSH1 0x0 NOT PUSH2 0x100 PUSH1 0x1 DUP7 AND ISZERO MUL ADD SWAP1 SWAP4 AND SWAP3 SWAP1 SWAP3 DIV SWAP2 DUP3 ADD DUP5 SWAP1 DIV DUP5 MUL DUP2 ADD DUP5 ADD SWAP1 SWAP5 MSTORE DUP1 DUP5 MSTORE SWAP1 SWAP2 DUP4 ADD DUP3 DUP3 DUP1 ISZERO PUSH2 0x551 JUMPI DUP1 PUSH1 0x1F LT PUSH2 0x526 JUMPI PUSH2 0x100 DUP1 DUP4 SLOAD DIV MUL DUP4 MSTORE SWAP2 PUSH1 0x20 ADD SWAP2 PUSH2 0x551 JUMP JUMPDEST DUP3 ADD SWAP2 SWAP1 PUSH1 0x0 MSTORE PUSH1 0x20 PUSH1 0x0 KECCAK256 SWAP1 JUMPDEST DUP2 SLOAD DUP2 MSTORE SWAP1 PUSH1 0x1 ADD SWAP1 PUSH1 0x20 ADD DUP1 DUP4 GT PUSH2 0x534 JUMPI DUP3 SWAP1 SUB PUSH1 0x1F AND DUP3 ADD SWAP2 JUMPDEST POP POP POP POP POP SWAP1 POP JUMPDEST DUP1 MLOAD PUSH2 0x688 JUMPI PUSH1 0x1 PUSH1 0xA SLOAD PUSH1 0xFF AND PUSH1 0x2 DUP2 GT ISZERO PUSH2 0x572 JUMPI INVALID JUMPDEST EQ ISZERO PUSH2 0x5D9 JUMPI PUSH1 0x40 MLOAD PUSH3 0x461BCD PUSH1 0xE5 SHL DUP2 MSTORE PUSH1 0x20 PUSH1 0x4 DUP3 ADD SWAP1 DUP2 MSTORE PUSH1 0xC DUP1 SLOAD PUSH1 0x2 PUSH1 0x0 NOT PUSH2 0x100 PUSH1 0x1 DUP5 AND ISZERO MUL ADD SWAP1 SWAP2 AND DIV PUSH1 0x24 DUP5 ADD DUP2 SWAP1 MSTORE SWAP1 SWAP3 DUP3 SWAP2 PUSH1 0x44 SWAP1 SWAP2 ADD SWAP1 DUP5 SWAP1 DUP1 ISZERO PUSH2 0x2C6 JUMPI DUP1 PUSH1 0x1F LT PUSH2 0x29B JUMPI PUSH2 0x100 DUP1 DUP4 SLOAD DIV MUL DUP4 MSTORE SWAP2 PUSH1 0x20 ADD SWAP2 PUSH2 0x2C6 JUMP JUMPDEST PUSH1 0x2 PUSH1 0xA SLOAD PUSH1 0xFF AND PUSH1 0x2 DUP2 GT ISZERO PUSH2 0x5EC JUMPI INVALID JUMPDEST EQ ISZERO PUSH2 0x5FA JUMPI PUSH2 0x5FA PUSH2 0x1492 JUMP JUMPDEST PUSH1 0xB DUP1 SLOAD PUSH1 0x40 DUP1 MLOAD PUSH1 0x20 PUSH1 0x2 PUSH1 0x1 DUP6 AND ISZERO PUSH2 0x100 MUL PUSH1 0x0 NOT ADD SWAP1 SWAP5 AND SWAP4 SWAP1 SWAP4 DIV PUSH1 0x1F DUP2 ADD DUP5 SWAP1 DIV DUP5 MUL DUP3 ADD DUP5 ADD SWAP1 SWAP3 MSTORE DUP2 DUP2 MSTORE SWAP3 SWAP2 DUP4 ADD DUP3 DUP3 DUP1 ISZERO PUSH2 0x680 JUMPI DUP1 PUSH1 0x1F LT PUSH2 0x655 JUMPI PUSH2 0x100 DUP1 DUP4 SLOAD DIV MUL DUP4 MSTORE SWAP2 PUSH1 0x20 ADD SWAP2 PUSH2 0x680 JUMP JUMPDEST DUP3 ADD SWAP2 SWAP1 PUSH1 0x0 MSTORE PUSH1 0x20 PUSH1 0x0 KECCAK256 SWAP1 JUMPDEST DUP2 SLOAD DUP2 MSTORE SWAP1 PUSH1 0x1 ADD SWAP1 PUSH1 0x20 ADD DUP1 DUP4 GT PUSH2 0x663 JUMPI DUP3 SWAP1 SUB PUSH1 0x1F AND DUP3 ADD SWAP2 JUMPDEST POP POP POP POP POP SWAP1 POP JUMPDEST PUSH1 0x40 DUP1 MLOAD PUSH1 0x1 PUSH1 0x1 PUSH1 0xE0 SHL SUB NOT DUP5 AND PUSH1 0x24 DUP3 ADD SWAP1 DUP2 MSTORE PUSH1 0x44 DUP3 ADD SWAP3 DUP4 MSTORE CALLDATASIZE PUSH1 0x64 DUP4 ADD DUP2 SWAP1 MSTORE PUSH1 0x60 SWAP4 ADDRESS SWAP4 PUSH3 0x186A0 SWAP4 DUP9 SWAP4 PUSH1 0x0 SWAP4 SWAP1 SWAP3 PUSH1 0x84 ADD DUP5 DUP5 DUP1 DUP3 DUP5 CALLDATACOPY PUSH1 0x0 DUP4 DUP3 ADD MSTORE PUSH1 0x40 DUP1 MLOAD PUSH1 0x1F SWAP1 SWAP3 ADD PUSH1 0x1F NOT SWAP1 DUP2 AND SWAP1 SWAP5 ADD DUP3 DUP2 SUB SWAP1 SWAP5 ADD DUP3 MSTORE SWAP3 DUP4 MSTORE PUSH1 0x20 DUP2 ADD DUP1 MLOAD PUSH28 0xFFFFFFFFFFFFFFFFFFFFFFFFFFFFFFFFFFFFFFFFFFFFFFFFFFFFFFFF AND PUSH32 0x58CBC02500000000000000000000000000000000000000000000000000000000 OR DUP2 MSTORE SWAP3 MLOAD DUP2 MLOAD SWAP2 SWAP9 POP SWAP7 POP DUP7 SWAP6 POP SWAP2 SWAP4 POP SWAP1 SWAP2 POP DUP2 SWAP1 POP DUP4 DUP4 JUMPDEST PUSH1 0x20 DUP4 LT PUSH2 0x769 JUMPI DUP1 MLOAD DUP3 MSTORE PUSH1 0x1F NOT SWAP1 SWAP3 ADD SWAP2 PUSH1 0x20 SWAP2 DUP3 ADD SWAP2 ADD PUSH2 0x74A JUMP JUMPDEST PUSH1 0x1 DUP4 PUSH1 0x20 SUB PUSH2 0x100 EXP SUB DUP1 NOT DUP3 MLOAD AND DUP2 DUP5 MLOAD AND DUP1 DUP3 OR DUP6 MSTORE POP POP POP POP POP POP SWAP1 POP ADD SWAP2 POP POP PUSH1 0x0 PUSH1 0x40 MLOAD DUP1 DUP4 SUB DUP2 PUSH1 0x0 DUP8 DUP8 CALL SWAP3 POP POP POP RETURNDATASIZE DUP1 PUSH1 0x0 DUP2 EQ PUSH2 0x7CC JUMPI PUSH1 0x40 MLOAD SWAP2 POP PUSH1 0x1F NOT PUSH1 0x3F RETURNDATASIZE ADD AND DUP3 ADD PUSH1 0x40 MSTORE RETURNDATASIZE DUP3 MSTORE RETURNDATASIZE PUSH1 0x0 PUSH1 0x20 DUP5 ADD RETURNDATACOPY PUSH2 0x7D1 JUMP JUMPDEST PUSH1 0x60 SWAP2 POP JUMPDEST POP SWAP2 POP POP DUP1 MLOAD PUSH1 0x0 EQ PUSH2 0x7E0 JUMPI INVALID JUMPDEST DUP2 MLOAD DUP3 PUSH1 0x20 ADD RETURN JUMPDEST CALLVALUE DUP1 ISZERO PUSH2 0x7F4 JUMPI PUSH1 0x0 DUP1 REVERT JUMPDEST POP PUSH2 0x7FD PUSH2 0x14AE JUMP JUMPDEST PUSH1 0x40 DUP1 MLOAD SWAP2 DUP3 MSTORE MLOAD SWAP1 DUP2 SWAP1 SUB PUSH1 0x20 ADD SWAP1 RETURN JUMPDEST CALLVALUE DUP1 ISZERO PUSH2 0x81B JUMPI PUSH1 0x0 DUP1 REVERT JUMPDEST POP PUSH2 0x824 PUSH2 0x14B5 JUMP JUMPDEST PUSH1 0x40 DUP1 MLOAD PUSH1 0x20 DUP1 DUP3 MSTORE DUP4 MLOAD DUP2 DUP4 ADD MSTORE DUP4 MLOAD SWAP2 SWAP3 DUP4 SWAP3 SWAP1 DUP4 ADD SWAP2 DUP6 ADD SWAP1 DUP1 DUP4 DUP4 PUSH1 0x0 JUMPDEST DUP4 DUP2 LT ISZERO PUSH2 0x85E JUMPI DUP2 DUP2 ADD MLOAD DUP4 DUP3 ADD MSTORE PUSH1 0x20 ADD PUSH2 0x846 JUMP JUMPDEST POP POP POP POP SWAP1 POP SWAP1 DUP2 ADD SWAP1 PUSH1 0x1F AND DUP1 ISZERO PUSH2 0x88B JUMPI DUP1 DUP3 SUB DUP1 MLOAD PUSH1 0x1 DUP4 PUSH1 0x20 SUB PUSH2 0x100 EXP SUB NOT AND DUP2 MSTORE PUSH1 0x20 ADD SWAP2 POP JUMPDEST POP SWAP3 POP POP POP PUSH1 0x40 MLOAD DUP1 SWAP2 SUB SWAP1 RETURN JUMPDEST CALLVALUE DUP1 ISZERO PUSH2 0x8A5 JUMPI PUSH1 0x0 DUP1 REVERT JUMPDEST POP PUSH2 0x914 PUSH1 0x4 DUP1 CALLDATASIZE SUB PUSH1 0x20 DUP2 LT ISZERO PUSH2 0x8BC JUMPI PUSH1 0x0 DUP1 REVERT JUMPDEST DUP2 ADD SWAP1 PUSH1 0x20 DUP2 ADD DUP2 CALLDATALOAD PUSH1 0x1 PUSH1 0x20 SHL DUP2 GT ISZERO PUSH2 0x8D6 JUMPI PUSH1 0x0 DUP1 REVERT JUMPDEST DUP3 ADD DUP4 PUSH1 0x20 DUP3 ADD GT ISZERO PUSH2 0x8E8 JUMPI PUSH1 0x0 DUP1 REVERT JUMPDEST DUP1 CALLDATALOAD SWAP1 PUSH1 0x20 ADD SWAP2 DUP5 PUSH1 0x1 DUP4 MUL DUP5 ADD GT PUSH1 0x1 PUSH1 0x20 SHL DUP4 GT OR ISZERO PUSH2 0x909 JUMPI PUSH1 0x0 DUP1 REVERT JUMPDEST POP SWAP1 SWAP3 POP SWAP1 POP PUSH2 0x14D7 JUMP JUMPDEST STOP JUMPDEST CALLVALUE DUP1 ISZERO PUSH2 0x922 JUMPI PUSH1 0x0 DUP1 REVERT JUMPDEST POP PUSH2 0x7FD PUSH2 0x155E JUMP JUMPDEST CALLVALUE DUP1 ISZERO PUSH2 0x937 JUMPI PUSH1 0x0 DUP1 REVERT JUMPDEST POP PUSH2 0x914 PUSH1 0x4 DUP1 CALLDATASIZE SUB PUSH1 0x20 DUP2 LT ISZERO PUSH2 0x94E JUMPI PUSH1 0x0 DUP1 REVERT JUMPDEST POP CALLDATALOAD ISZERO ISZERO PUSH2 0x159E JUMP JUMPDEST CALLVALUE DUP1 ISZERO PUSH2 0x963 JUMPI PUSH1 0x0 DUP1 REVERT JUMPDEST POP PUSH2 0x914 PUSH2 0x15C5 JUMP JUMPDEST CALLVALUE DUP1 ISZERO PUSH2 0x978 JUMPI PUSH1 0x0 DUP1 REVERT JUMPDEST POP PUSH2 0x7FD PUSH1 0x4 DUP1 CALLDATASIZE SUB PUSH1 0x20 DUP2 LT ISZERO PUSH2 0x98F JUMPI PUSH1 0x0 DUP1 REVERT JUMPDEST DUP2 ADD SWAP1 PUSH1 0x20 DUP2 ADD DUP2 CALLDATALOAD PUSH1 0x1 PUSH1 0x20 SHL DUP2 GT ISZERO PUSH2 0x9A9 JUMPI PUSH1 0x0 DUP1 REVERT JUMPDEST DUP3 ADD DUP4 PUSH1 0x20 DUP3 ADD GT ISZERO PUSH2 0x9BB JUMPI PUSH1 0x0 DUP1 REVERT JUMPDEST DUP1 CALLDATALOAD SWAP1 PUSH1 0x20 ADD SWAP2 DUP5 PUSH1 0x1 DUP4 MUL DUP5 ADD GT PUSH1 0x1 PUSH1 0x20 SHL DUP4 GT OR ISZERO PUSH2 0x9DC JUMPI PUSH1 0x0 DUP1 REVERT JUMPDEST POP SWAP1 SWAP3 POP SWAP1 POP PUSH2 0x15D4 JUMP JUMPDEST CALLVALUE DUP1 ISZERO PUSH2 0x9F3 JUMPI PUSH1 0x0 DUP1 REVERT JUMPDEST POP PUSH2 0x7FD PUSH1 0x4 DUP1 CALLDATASIZE SUB PUSH1 0x20 DUP2 LT ISZERO PUSH2 0xA0A JUMPI PUSH1 0x0 DUP1 REVERT JUMPDEST DUP2 ADD SWAP1 PUSH1 0x20 DUP2 ADD DUP2 CALLDATALOAD PUSH1 0x1 PUSH1 0x20 SHL DUP2 GT ISZERO PUSH2 0xA24 JUMPI PUSH1 0x0 DUP1 REVERT JUMPDEST DUP3 ADD DUP4 PUSH1 0x20 DUP3 ADD GT ISZERO PUSH2 0xA36 JUMPI PUSH1 0x0 DUP1 REVERT JUMPDEST DUP1 CALLDATALOAD SWAP1 PUSH1 0x20 ADD SWAP2 DUP5 PUSH1 0x1 DUP4 MUL DUP5 ADD GT PUSH1 0x1 PUSH1 0x20 SHL DUP4 GT OR ISZERO PUSH2 0xA57 JUMPI PUSH1 0x0 DUP1 REVERT JUMPDEST POP SWAP1 SWAP3 POP SWAP1 POP PUSH2 0x1665 JUMP JUMPDEST CALLVALUE DUP1 ISZERO PUSH2 0xA6E JUMPI PUSH1 0x0 DUP1 REVERT JUMPDEST POP PUSH2 0x914 PUSH1 0x4 DUP1 CALLDATASIZE SUB PUSH1 0x40 DUP2 LT ISZERO PUSH2 0xA85 JUMPI PUSH1 0x0 DUP1 REVERT JUMPDEST PUSH1 0x1 PUSH1 0x1 PUSH1 0xE0 SHL SUB NOT DUP3 CALLDATALOAD AND SWAP2 SWAP1 DUP2 ADD SWAP1 PUSH1 0x40 DUP2 ADD PUSH1 0x20 DUP3 ADD CALLDATALOAD PUSH1 0x1 PUSH1 0x20 SHL DUP2 GT ISZERO PUSH2 0xAB0 JUMPI PUSH1 0x0 DUP1 REVERT JUMPDEST DUP3 ADD DUP4 PUSH1 0x20 DUP3 ADD GT ISZERO PUSH2 0xAC2 JUMPI PUSH1 0x0 DUP1 REVERT JUMPDEST DUP1 CALLDATALOAD SWAP1 PUSH1 0x20 ADD SWAP2 DUP5 PUSH1 0x1 DUP4 MUL DUP5 ADD GT PUSH1 0x1 PUSH1 0x20 SHL DUP4 GT OR ISZERO PUSH2 0xAE3 JUMPI PUSH1 0x0 DUP1 REVERT JUMPDEST SWAP2 SWAP1 DUP1 DUP1 PUSH1 0x1F ADD PUSH1 0x20 DUP1 SWAP2 DIV MUL PUSH1 0x20 ADD PUSH1 0x40 MLOAD SWAP1 DUP2 ADD PUSH1 0x40 MSTORE DUP1 SWAP4 SWAP3 SWAP2 SWAP1 DUP2 DUP2 MSTORE PUSH1 0x20 ADD DUP4 DUP4 DUP1 DUP3 DUP5 CALLDATACOPY PUSH1 0x0 SWAP3 ADD SWAP2 SWAP1 SWAP2 MSTORE POP SWAP3 SWAP6 POP PUSH2 0x16BC SWAP5 POP POP POP POP POP JUMP JUMPDEST CALLVALUE DUP1 ISZERO PUSH2 0xB30 JUMPI PUSH1 0x0 DUP1 REVERT JUMPDEST POP PUSH2 0x914 PUSH1 0x4 DUP1 CALLDATASIZE SUB PUSH1 0x40 DUP2 LT ISZERO PUSH2 0xB47 JUMPI PUSH1 0x0 DUP1 REVERT JUMPDEST DUP2 ADD SWAP1 PUSH1 0x20 DUP2 ADD DUP2 CALLDATALOAD PUSH1 0x1 PUSH1 0x20 SHL DUP2 GT ISZERO PUSH2 0xB61 JUMPI PUSH1 0x0 DUP1 REVERT JUMPDEST DUP3 ADD DUP4 PUSH1 0x20 DUP3 ADD GT ISZERO PUSH2 0xB73 JUMPI PUSH1 0x0 DUP1 REVERT JUMPDEST DUP1 CALLDATALOAD SWAP1 PUSH1 0x20 ADD SWAP2 DUP5 PUSH1 0x1 DUP4 MUL DUP5 ADD GT PUSH1 0x1 PUSH1 0x20 SHL DUP4 GT OR ISZERO PUSH2 0xB94 JUMPI PUSH1 0x0 DUP1 REVERT JUMPDEST SWAP2 SWAP4 POP SWAP2 POP CALLDATALOAD ISZERO ISZERO PUSH2 0x17EA JUMP JUMPDEST CALLVALUE DUP1 ISZERO PUSH2 0xBAD JUMPI PUSH1 0x0 DUP1 REVERT JUMPDEST POP PUSH2 0x914 PUSH1 0x4 DUP1 CALLDATASIZE SUB PUSH1 0x40 DUP2 LT ISZERO PUSH2 0xBC4 JUMPI PUSH1 0x0 DUP1 REVERT JUMPDEST DUP2 ADD SWAP1 PUSH1 0x20 DUP2 ADD DUP2 CALLDATALOAD PUSH1 0x1 PUSH1 0x20 SHL DUP2 GT ISZERO PUSH2 0xBDE JUMPI PUSH1 0x0 DUP1 REVERT JUMPDEST DUP3 ADD DUP4 PUSH1 0x20 DUP3 ADD GT ISZERO PUSH2 0xBF0 JUMPI PUSH1 0x0 DUP1 REVERT JUMPDEST DUP1 CALLDATALOAD SWAP1 PUSH1 0x20 ADD SWAP2 DUP5 PUSH1 0x1 DUP4 MUL DUP5 ADD GT PUSH1 0x1 PUSH1 0x20 SHL DUP4 GT OR ISZERO PUSH2 0xC11 JUMPI PUSH1 0x0 DUP1 REVERT JUMPDEST SWAP2 SWAP4 SWAP1 SWAP3 SWAP1 SWAP2 PUSH1 0x20 DUP2 ADD SWAP1 CALLDATALOAD PUSH1 0x1 PUSH1 0x20 SHL DUP2 GT ISZERO PUSH2 0xC2E JUMPI PUSH1 0x0 DUP1 REVERT JUMPDEST DUP3 ADD DUP4 PUSH1 0x20 DUP3 ADD GT ISZERO PUSH2 0xC40 JUMPI PUSH1 0x0 DUP1 REVERT JUMPDEST DUP1 CALLDATALOAD SWAP1 PUSH1 0x20 ADD SWAP2 DUP5 PUSH1 0x1 DUP4 MUL DUP5 ADD GT PUSH1 0x1 PUSH1 0x20 SHL DUP4 GT OR ISZERO PUSH2 0xC61 JUMPI PUSH1 0x0 DUP1 REVERT JUMPDEST POP SWAP1 SWAP3 POP SWAP1 POP PUSH2 0x1850 JUMP JUMPDEST CALLVALUE DUP1 ISZERO PUSH2 0xC78 JUMPI PUSH1 0x0 DUP1 REVERT JUMPDEST POP PUSH2 0x7FD PUSH2 0x18C3 JUMP JUMPDEST CALLVALUE DUP1 ISZERO PUSH2 0xC8D JUMPI PUSH1 0x0 DUP1 REVERT JUMPDEST POP PUSH2 0x914 PUSH1 0x4 DUP1 CALLDATASIZE SUB PUSH1 0x20 DUP2 LT ISZERO PUSH2 0xCA4 JUMPI PUSH1 0x0 DUP1 REVERT JUMPDEST POP CALLDATALOAD PUSH1 0x1 PUSH1 0x1 PUSH1 0xA0 SHL SUB AND PUSH2 0x18CB JUMP JUMPDEST CALLVALUE DUP1 ISZERO PUSH2 0xCC0 JUMPI PUSH1 0x0 DUP1 REVERT JUMPDEST POP PUSH2 0x914 PUSH1 0x4 DUP1 CALLDATASIZE SUB PUSH1 0x20 DUP2 LT ISZERO PUSH2 0xCD7 JUMPI PUSH1 0x0 DUP1 REVERT JUMPDEST DUP2 ADD SWAP1 PUSH1 0x20 DUP2 ADD DUP2 CALLDATALOAD PUSH1 0x1 PUSH1 0x20 SHL DUP2 GT ISZERO PUSH2 0xCF1 JUMPI PUSH1 0x0 DUP1 REVERT JUMPDEST DUP3 ADD DUP4 PUSH1 0x20 DUP3 ADD GT ISZERO PUSH2 0xD03 JUMPI PUSH1 0x0 DUP1 REVERT JUMPDEST DUP1 CALLDATALOAD SWAP1 PUSH1 0x20 ADD SWAP2 DUP5 PUSH1 0x1 DUP4 MUL DUP5 ADD GT PUSH1 0x1 PUSH1 0x20 SHL DUP4 GT OR ISZERO PUSH2 0xD24 JUMPI PUSH1 0x0 DUP1 REVERT JUMPDEST POP SWAP1 SWAP3 POP SWAP1 POP PUSH2 0x18E3 JUMP JUMPDEST CALLVALUE DUP1 ISZERO PUSH2 0xD3B JUMPI PUSH1 0x0 DUP1 REVERT JUMPDEST POP PUSH2 0x914 PUSH1 0x4 DUP1 CALLDATASIZE SUB PUSH1 0x40 DUP2 LT ISZERO PUSH2 0xD52 JUMPI PUSH1 0x0 DUP1 REVERT JUMPDEST DUP2 ADD SWAP1 PUSH1 0x20 DUP2 ADD DUP2 CALLDATALOAD PUSH1 0x1 PUSH1 0x20 SHL DUP2 GT ISZERO PUSH2 0xD6C JUMPI PUSH1 0x0 DUP1 REVERT JUMPDEST DUP3 ADD DUP4 PUSH1 0x20 DUP3 ADD GT ISZERO PUSH2 0xD7E JUMPI PUSH1 0x0 DUP1 REVERT JUMPDEST DUP1 CALLDATALOAD SWAP1 PUSH1 0x20 ADD SWAP2 DUP5 PUSH1 0x1 DUP4 MUL DUP5 ADD GT PUSH1 0x1 PUSH1 0x20 SHL DUP4 GT OR ISZERO PUSH2 0xD9F JUMPI PUSH1 0x0 DUP1 REVERT JUMPDEST SWAP2 SWAP4 POP SWAP2 POP CALLDATALOAD ISZERO ISZERO PUSH2 0x1960 JUMP JUMPDEST CALLVALUE DUP1 ISZERO PUSH2 0xDB8 JUMPI PUSH1 0x0 DUP1 REVERT JUMPDEST POP PUSH2 0x824 PUSH2 0x19C0 JUMP JUMPDEST CALLVALUE DUP1 ISZERO PUSH2 0xDCD JUMPI PUSH1 0x0 DUP1 REVERT JUMPDEST POP PUSH2 0x914 PUSH1 0x4 DUP1 CALLDATASIZE SUB PUSH1 0x20 DUP2 LT ISZERO PUSH2 0xDE4 JUMPI PUSH1 0x0 DUP1 REVERT JUMPDEST DUP2 ADD SWAP1 PUSH1 0x20 DUP2 ADD DUP2 CALLDATALOAD PUSH1 0x1 PUSH1 0x20 SHL DUP2 GT ISZERO PUSH2 0xDFE JUMPI PUSH1 0x0 DUP1 REVERT JUMPDEST DUP3 ADD DUP4 PUSH1 0x20 DUP3 ADD GT ISZERO PUSH2 0xE10 JUMPI PUSH1 0x0 DUP1 REVERT JUMPDEST DUP1 CALLDATALOAD SWAP1 PUSH1 0x20 ADD SWAP2 DUP5 PUSH1 0x1 DUP4 MUL DUP5 ADD GT PUSH1 0x1 PUSH1 0x20 SHL DUP4 GT OR ISZERO PUSH2 0xE31 JUMPI PUSH1 0x0 DUP1 REVERT JUMPDEST POP SWAP1 SWAP3 POP SWAP1 POP PUSH2 0x19E0 JUMP JUMPDEST CALLVALUE DUP1 ISZERO PUSH2 0xE48 JUMPI PUSH1 0x0 DUP1 REVERT JUMPDEST POP PUSH2 0x914 PUSH1 0x4 DUP1 CALLDATASIZE SUB PUSH1 0x40 DUP2 LT ISZERO PUSH2 0xE5F JUMPI PUSH1 0x0 DUP1 REVERT JUMPDEST DUP2 ADD SWAP1 PUSH1 0x20 DUP2 ADD DUP2 CALLDATALOAD PUSH1 0x1 PUSH1 0x20 SHL DUP2 GT ISZERO PUSH2 0xE79 JUMPI PUSH1 0x0 DUP1 REVERT JUMPDEST DUP3 ADD DUP4 PUSH1 0x20 DUP3 ADD GT ISZERO PUSH2 0xE8B JUMPI PUSH1 0x0 DUP1 REVERT JUMPDEST DUP1 CALLDATALOAD SWAP1 PUSH1 0x20 ADD SWAP2 DUP5 PUSH1 0x1 DUP4 MUL DUP5 ADD GT PUSH1 0x1 PUSH1 0x20 SHL DUP4 GT OR ISZERO PUSH2 0xEAC JUMPI PUSH1 0x0 DUP1 REVERT JUMPDEST SWAP2 SWAP4 SWAP1 SWAP3 SWAP1 SWAP2 PUSH1 0x20 DUP2 ADD SWAP1 CALLDATALOAD PUSH1 0x1 PUSH1 0x20 SHL DUP2 GT ISZERO PUSH2 0xEC9 JUMPI PUSH1 0x0 DUP1 REVERT JUMPDEST DUP3 ADD DUP4 PUSH1 0x20 DUP3 ADD GT ISZERO PUSH2 0xEDB JUMPI PUSH1 0x0 DUP1 REVERT JUMPDEST DUP1 CALLDATALOAD SWAP1 PUSH1 0x20 ADD SWAP2 DUP5 PUSH1 0x1 DUP4 MUL DUP5 ADD GT PUSH1 0x1 PUSH1 0x20 SHL DUP4 GT OR ISZERO PUSH2 0xEFC JUMPI PUSH1 0x0 DUP1 REVERT JUMPDEST POP SWAP1 SWAP3 POP SWAP1 POP PUSH2 0x19F9 JUMP JUMPDEST CALLVALUE DUP1 ISZERO PUSH2 0xF13 JUMPI PUSH1 0x0 DUP1 REVERT JUMPDEST POP PUSH2 0x914 PUSH1 0x4 DUP1 CALLDATASIZE SUB PUSH1 0x40 DUP2 LT ISZERO PUSH2 0xF2A JUMPI PUSH1 0x0 DUP1 REVERT JUMPDEST DUP2 ADD SWAP1 PUSH1 0x20 DUP2 ADD DUP2 CALLDATALOAD PUSH1 0x1 PUSH1 0x20 SHL DUP2 GT ISZERO PUSH2 0xF44 JUMPI PUSH1 0x0 DUP1 REVERT JUMPDEST DUP3 ADD DUP4 PUSH1 0x20 DUP3 ADD GT ISZERO PUSH2 0xF56 JUMPI PUSH1 0x0 DUP1 REVERT JUMPDEST DUP1 CALLDATALOAD SWAP1 PUSH1 0x20 ADD SWAP2 DUP5 PUSH1 0x1 DUP4 MUL DUP5 ADD GT PUSH1 0x1 PUSH1 0x20 SHL DUP4 GT OR ISZERO PUSH2 0xF77 JUMPI PUSH1 0x0 DUP1 REVERT JUMPDEST SWAP2 SWAP4 SWAP1 SWAP3 SWAP1 SWAP2 PUSH1 0x20 DUP2 ADD SWAP1 CALLDATALOAD PUSH1 0x1 PUSH1 0x20 SHL DUP2 GT ISZERO PUSH2 0xF94 JUMPI PUSH1 0x0 DUP1 REVERT JUMPDEST DUP3 ADD DUP4 PUSH1 0x20 DUP3 ADD GT ISZERO PUSH2 0xFA6 JUMPI PUSH1 0x0 DUP1 REVERT JUMPDEST DUP1 CALLDATALOAD SWAP1 PUSH1 0x20 ADD SWAP2 DUP5 PUSH1 0x1 DUP4 MUL DUP5 ADD GT PUSH1 0x1 PUSH1 0x20 SHL DUP4 GT OR ISZERO PUSH2 0xFC7 JUMPI PUSH1 0x0 DUP1 REVERT JUMPDEST POP SWAP1 SWAP3 POP SWAP1 POP PUSH2 0x1A87 JUMP JUMPDEST CALLVALUE DUP1 ISZERO PUSH2 0xFDE JUMPI PUSH1 0x0 DUP1 REVERT JUMPDEST POP PUSH2 0x914 PUSH1 0x4 DUP1 CALLDATASIZE SUB PUSH1 0x20 DUP2 LT ISZERO PUSH2 0xFF5 JUMPI PUSH1 0x0 DUP1 REVERT JUMPDEST DUP2 ADD SWAP1 PUSH1 0x20 DUP2 ADD DUP2 CALLDATALOAD PUSH1 0x1 PUSH1 0x20 SHL DUP2 GT ISZERO PUSH2 0x100F JUMPI PUSH1 0x0 DUP1 REVERT JUMPDEST DUP3 ADD DUP4 PUSH1 0x20 DUP3 ADD GT ISZERO PUSH2 0x1021 JUMPI PUSH1 0x0 DUP1 REVERT JUMPDEST DUP1 CALLDATALOAD SWAP1 PUSH1 0x20 ADD SWAP2 DUP5 PUSH1 0x1 DUP4 MUL DUP5 ADD GT PUSH1 0x1 PUSH1 0x20 SHL DUP4 GT OR ISZERO PUSH2 0x1042 JUMPI PUSH1 0x0 DUP1 REVERT JUMPDEST POP SWAP1 SWAP3 POP SWAP1 POP PUSH2 0x1B40 JUMP JUMPDEST CALLVALUE DUP1 ISZERO PUSH2 0x1059 JUMPI PUSH1 0x0 DUP1 REVERT JUMPDEST POP PUSH2 0x914 PUSH1 0x4 DUP1 CALLDATASIZE SUB PUSH1 0x20 DUP2 LT ISZERO PUSH2 0x1070 JUMPI PUSH1 0x0 DUP1 REVERT JUMPDEST POP CALLDATALOAD PUSH2 0x1BAD JUMP JUMPDEST CALLVALUE DUP1 ISZERO PUSH2 0x1083 JUMPI PUSH1 0x0 DUP1 REVERT JUMPDEST POP PUSH2 0x914 PUSH1 0x4 DUP1 CALLDATASIZE SUB PUSH1 0x40 DUP2 LT ISZERO PUSH2 0x109A JUMPI PUSH1 0x0 DUP1 REVERT JUMPDEST DUP2 ADD SWAP1 PUSH1 0x20 DUP2 ADD DUP2 CALLDATALOAD PUSH1 0x1 PUSH1 0x20 SHL DUP2 GT ISZERO PUSH2 0x10B4 JUMPI PUSH1 0x0 DUP1 REVERT JUMPDEST DUP3 ADD DUP4 PUSH1 0x20 DUP3 ADD GT ISZERO PUSH2 0x10C6 JUMPI PUSH1 0x0 DUP1 REVERT JUMPDEST DUP1 CALLDATALOAD SWAP1 PUSH1 0x20 ADD SWAP2 DUP5 PUSH1 0x1 DUP4 MUL DUP5 ADD GT PUSH1 0x1 PUSH1 0x20 SHL DUP4 GT OR ISZERO PUSH2 0x10E7 JUMPI PUSH1 0x0 DUP1 REVERT JUMPDEST SWAP2 SWAP4 POP SWAP2 POP CALLDATALOAD PUSH1 0x1 PUSH1 0x1 PUSH1 0xA0 SHL SUB AND PUSH2 0x1BB9 JUMP JUMPDEST CALLVALUE DUP1 ISZERO PUSH2 0x1107 JUMPI PUSH1 0x0 DUP1 REVERT JUMPDEST POP PUSH2 0x914 PUSH1 0x4 DUP1 CALLDATASIZE SUB PUSH1 0x40 DUP2 LT ISZERO PUSH2 0x111E JUMPI PUSH1 0x0 DUP1 REVERT JUMPDEST DUP2 ADD SWAP1 PUSH1 0x20 DUP2 ADD DUP2 CALLDATALOAD PUSH1 0x1 PUSH1 0x20 SHL DUP2 GT ISZERO PUSH2 0x1138 JUMPI PUSH1 0x0 DUP1 REVERT JUMPDEST DUP3 ADD DUP4 PUSH1 0x20 DUP3 ADD GT ISZERO PUSH2 0x114A JUMPI PUSH1 0x0 DUP1 REVERT JUMPDEST DUP1 CALLDATALOAD SWAP1 PUSH1 0x20 ADD SWAP2 DUP5 PUSH1 0x1 DUP4 MUL DUP5 ADD GT PUSH1 0x1 PUSH1 0x20 SHL DUP4 GT OR ISZERO PUSH2 0x116B JUMPI PUSH1 0x0 DUP1 REVERT JUMPDEST SWAP2 SWAP4 SWAP1 SWAP3 SWAP1 SWAP2 PUSH1 0x20 DUP2 ADD SWAP1 CALLDATALOAD PUSH1 0x1 PUSH1 0x20 SHL DUP2 GT ISZERO PUSH2 0x1188 JUMPI PUSH1 0x0 DUP1 REVERT JUMPDEST DUP3 ADD DUP4 PUSH1 0x20 DUP3 ADD GT ISZERO PUSH2 0x119A JUMPI PUSH1 0x0 DUP1 REVERT JUMPDEST DUP1 CALLDATALOAD SWAP1 PUSH1 0x20 ADD SWAP2 DUP5 PUSH1 0x1 DUP4 MUL DUP5 ADD GT PUSH1 0x1 PUSH1 0x20 SHL DUP4 GT OR ISZERO PUSH2 0x11BB JUMPI PUSH1 0x0 DUP1 REVERT JUMPDEST POP SWAP1 SWAP3 POP SWAP1 POP PUSH2 0x1C05 JUMP JUMPDEST CALLVALUE DUP1 ISZERO PUSH2 0x11D2 JUMPI PUSH1 0x0 DUP1 REVERT JUMPDEST POP PUSH2 0x914 PUSH1 0x4 DUP1 CALLDATASIZE SUB PUSH1 0x40 DUP2 LT ISZERO PUSH2 0x11E9 JUMPI PUSH1 0x0 DUP1 REVERT JUMPDEST DUP2 ADD SWAP1 PUSH1 0x20 DUP2 ADD DUP2 CALLDATALOAD PUSH1 0x1 PUSH1 0x20 SHL DUP2 GT ISZERO PUSH2 0x1203 JUMPI PUSH1 0x0 DUP1 REVERT JUMPDEST DUP3 ADD DUP4 PUSH1 0x20 DUP3 ADD GT ISZERO PUSH2 0x1215 JUMPI PUSH1 0x0 DUP1 REVERT JUMPDEST DUP1 CALLDATALOAD SWAP1 PUSH1 0x20 ADD SWAP2 DUP5 PUSH1 0x1 DUP4 MUL DUP5 ADD GT PUSH1 0x1 PUSH1 0x20 SHL DUP4 GT OR ISZERO PUSH2 0x1236 JUMPI PUSH1 0x0 DUP1 REVERT JUMPDEST SWAP2 SWAP4 POP SWAP2 POP CALLDATALOAD PUSH1 0x1 PUSH1 0x1 PUSH1 0xA0 SHL SUB AND PUSH2 0x1C78 JUMP JUMPDEST CALLVALUE DUP1 ISZERO PUSH2 0x1256 JUMPI PUSH1 0x0 DUP1 REVERT JUMPDEST POP PUSH2 0x914 PUSH1 0x4 DUP1 CALLDATASIZE SUB PUSH1 0x20 DUP2 LT ISZERO PUSH2 0x126D JUMPI PUSH1 0x0 DUP1 REVERT JUMPDEST DUP2 ADD SWAP1 PUSH1 0x20 DUP2 ADD DUP2 CALLDATALOAD PUSH1 0x1 PUSH1 0x20 SHL DUP2 GT ISZERO PUSH2 0x1287 JUMPI PUSH1 0x0 DUP1 REVERT JUMPDEST DUP3 ADD DUP4 PUSH1 0x20 DUP3 ADD GT ISZERO PUSH2 0x1299 JUMPI PUSH1 0x0 DUP1 REVERT JUMPDEST DUP1 CALLDATALOAD SWAP1 PUSH1 0x20 ADD SWAP2 DUP5 PUSH1 0x1 DUP4 MUL DUP5 ADD GT PUSH1 0x1 PUSH1 0x20 SHL DUP4 GT OR ISZERO PUSH2 0x12BA JUMPI PUSH1 0x0 DUP1 REVERT JUMPDEST POP SWAP1 SWAP3 POP SWAP1 POP PUSH2 0x1CC4 JUMP JUMPDEST CALLVALUE DUP1 ISZERO PUSH2 0x12D1 JUMPI PUSH1 0x0 DUP1 REVERT JUMPDEST POP PUSH2 0x914 PUSH1 0x4 DUP1 CALLDATASIZE SUB PUSH1 0x40 DUP2 LT ISZERO PUSH2 0x12E8 JUMPI PUSH1 0x0 DUP1 REVERT JUMPDEST DUP2 ADD SWAP1 PUSH1 0x20 DUP2 ADD DUP2 CALLDATALOAD PUSH1 0x1 PUSH1 0x20 SHL DUP2 GT ISZERO PUSH2 0x1302 JUMPI PUSH1 0x0 DUP1 REVERT JUMPDEST DUP3 ADD DUP4 PUSH1 0x20 DUP3 ADD GT ISZERO PUSH2 0x1314 JUMPI PUSH1 0x0 DUP1 REVERT JUMPDEST DUP1 CALLDATALOAD SWAP1 PUSH1 0x20 ADD SWAP2 DUP5 PUSH1 0x1 DUP4 MUL DUP5 ADD GT PUSH1 0x1 PUSH1 0x20 SHL DUP4 GT OR ISZERO PUSH2 0x1335 JUMPI PUSH1 0x0 DUP1 REVERT JUMPDEST SWAP2 SWAP4 POP SWAP2 POP CALLDATALOAD PUSH2 0x1D03 JUMP JUMPDEST CALLVALUE DUP1 ISZERO PUSH2 0x134C JUMPI PUSH1 0x0 DUP1 REVERT JUMPDEST POP PUSH2 0x914 PUSH2 0x1D48 JUMP JUMPDEST CALLVALUE DUP1 ISZERO PUSH2 0x1361 JUMPI PUSH1 0x0 DUP1 REVERT JUMPDEST POP PUSH2 0x914 PUSH2 0x227D JUMP JUMPDEST CALLVALUE DUP1 ISZERO PUSH2 0x1376 JUMPI PUSH1 0x0 DUP1 REVERT JUMPDEST POP PUSH2 0x914 PUSH1 0x4 DUP1 CALLDATASIZE SUB PUSH1 0x20 DUP2 LT ISZERO PUSH2 0x138D JUMPI PUSH1 0x0 DUP1 REVERT JUMPDEST DUP2 ADD SWAP1 PUSH1 0x20 DUP2 ADD DUP2 CALLDATALOAD PUSH1 0x1 PUSH1 0x20 SHL DUP2 GT ISZERO PUSH2 0x13A7 JUMPI PUSH1 0x0 DUP1 REVERT JUMPDEST DUP3 ADD DUP4 PUSH1 0x20 DUP3 ADD GT ISZERO PUSH2 0x13B9 JUMPI PUSH1 0x0 DUP1 REVERT JUMPDEST DUP1 CALLDATALOAD SWAP1 PUSH1 0x20 ADD SWAP2 DUP5 PUSH1 0x1 DUP4 MUL DUP5 ADD GT PUSH1 0x1 PUSH1 0x20 SHL DUP4 GT OR ISZERO PUSH2 0x13DA JUMPI PUSH1 0x0 DUP1 REVERT JUMPDEST POP SWAP1 SWAP3 POP SWAP1 POP PUSH2 0x22A8 JUMP JUMPDEST CALLVALUE DUP1 ISZERO PUSH2 0x13F1 JUMPI PUSH1 0x0 DUP1 REVERT JUMPDEST POP PUSH2 0x13FA PUSH2 0x18C3 JUMP JUMPDEST PUSH1 0x40 DUP1 MLOAD PUSH1 0x1 PUSH1 0x1 PUSH1 0xE0 SHL SUB NOT SWAP1 SWAP3 AND DUP3 MSTORE MLOAD SWAP1 DUP2 SWAP1 SUB PUSH1 0x20 ADD SWAP1 RETURN JUMPDEST CALLVALUE DUP1 ISZERO PUSH2 0x1423 JUMPI PUSH1 0x0 DUP1 REVERT JUMPDEST POP PUSH2 0x914 PUSH1 0x4 DUP1 CALLDATASIZE SUB PUSH1 0x40 DUP2 LT ISZERO PUSH2 0x143A JUMPI PUSH1 0x0 DUP1 REVERT JUMPDEST DUP2 ADD SWAP1 PUSH1 0x20 DUP2 ADD DUP2 CALLDATALOAD PUSH1 0x1 PUSH1 0x20 SHL DUP2 GT ISZERO PUSH2 0x1454 JUMPI PUSH1 0x0 DUP1 REVERT JUMPDEST DUP3 ADD DUP4 PUSH1 0x20 DUP3 ADD GT ISZERO PUSH2 0x1466 JUMPI PUSH1 0x0 DUP1 REVERT JUMPDEST DUP1 CALLDATALOAD SWAP1 PUSH1 0x20 ADD SWAP2 DUP5 PUSH1 0x1 DUP4 MUL DUP5 ADD GT PUSH1 0x1 PUSH1 0x20 SHL DUP4 GT OR ISZERO PUSH2 0x1487 JUMPI PUSH1 0x0 DUP1 REVERT JUMPDEST SWAP2 SWAP4 POP SWAP2 POP CALLDATALOAD PUSH2 0x2375 JUMP JUMPDEST JUMPDEST PUSH1 0x0 PUSH1 0x60 PUSH1 0x0 PUSH1 0xC0 PUSH1 0x0 DUP1 PUSH1 0x6 PUSH2 0x7D0 GAS SUB CALL SWAP1 POP POP PUSH2 0x1493 JUMP JUMPDEST PUSH1 0xD SLOAD JUMPDEST SWAP1 JUMP JUMPDEST PUSH1 0x40 DUP1 MLOAD PUSH1 0x0 PUSH1 0x20 DUP1 DUP4 ADD SWAP2 SWAP1 SWAP2 MSTORE DUP3 MLOAD DUP1 DUP4 SUB SWAP1 SWAP2 ADD DUP2 MSTORE SWAP1 DUP3 ADD SWAP1 SWAP2 MSTORE DUP2 JUMP JUMPDEST PUSH1 0x2 PUSH1 0x1 DUP4 DUP4 PUSH1 0x40 MLOAD DUP1 DUP4 DUP4 DUP1 DUP3 DUP5 CALLDATACOPY SWAP2 SWAP1 SWAP2 ADD SWAP5 DUP6 MSTORE POP POP PUSH1 0x40 MLOAD SWAP3 DUP4 SWAP1 SUB PUSH1 0x20 ADD SWAP1 SWAP3 KECCAK256 DUP1 SLOAD SWAP1 SWAP3 POP PUSH1 0xFF NOT AND SWAP1 POP PUSH1 0x1 DUP4 PUSH1 0x2 DUP2 GT ISZERO PUSH2 0x1516 JUMPI INVALID JUMPDEST MUL OR SWAP1 SSTORE POP PUSH2 0x155A DUP3 DUP3 DUP1 DUP1 PUSH1 0x1F ADD PUSH1 0x20 DUP1 SWAP2 DIV MUL PUSH1 0x20 ADD PUSH1 0x40 MLOAD SWAP1 DUP2 ADD PUSH1 0x40 MSTORE DUP1 SWAP4 SWAP3 SWAP2 SWAP1 DUP2 DUP2 MSTORE PUSH1 0x20 ADD DUP4 DUP4 DUP1 DUP3 DUP5 CALLDATACOPY PUSH1 0x0 SWAP3 ADD SWAP2 SWAP1 SWAP2 MSTORE POP PUSH2 0x23BA SWAP3 POP POP POP JUMP JUMPDEST POP POP JUMP JUMPDEST PUSH1 0x40 DUP1 MLOAD DUP1 DUP3 ADD SWAP1 SWAP2 MSTORE PUSH1 0x4 DUP2 MSTORE PUSH4 0x183C3333 PUSH1 0xE1 SHL PUSH1 0x20 SWAP1 SWAP2 ADD MSTORE PUSH32 0x420DAFFAD4B177BCE28BEAD5F76F7BC97EF63C3AAE74C496DB8CE6AAFE9E6513 DUP2 JUMP JUMPDEST PUSH1 0x0 DUP2 PUSH2 0x15AC JUMPI PUSH1 0x0 PUSH2 0x15AF JUMP JUMPDEST PUSH1 0x1 JUMPDEST PUSH1 0xFF AND SWAP1 POP PUSH2 0x155A PUSH2 0x15C0 DUP3 PUSH2 0x247B JUMP JUMPDEST PUSH2 0x24A5 JUMP JUMPDEST PUSH1 0xA DUP1 SLOAD PUSH1 0xFF NOT AND PUSH1 0x2 OR SWAP1 SSTORE JUMP JUMPDEST PUSH1 0x0 DUP1 PUSH2 0x1616 DUP5 DUP5 DUP1 DUP1 PUSH1 0x1F ADD PUSH1 0x20 DUP1 SWAP2 DIV MUL PUSH1 0x20 ADD PUSH1 0x40 MLOAD SWAP1 DUP2 ADD PUSH1 0x40 MSTORE DUP1 SWAP4 SWAP3 SWAP2 SWAP1 DUP2 DUP2 MSTORE PUSH1 0x20 ADD DUP4 DUP4 DUP1 DUP3 DUP5 CALLDATACOPY PUSH1 0x0 SWAP3 ADD SWAP2 SWAP1 SWAP2 MSTORE POP PUSH2 0x24C2 SWAP3 POP POP POP JUMP JUMPDEST PUSH1 0xE SLOAD PUSH1 0x40 DUP1 MLOAD PUSH1 0x20 DUP1 DUP3 ADD SWAP4 SWAP1 SWAP4 MSTORE PUSH1 0x1 PUSH1 0x1 PUSH1 0xE0 SHL SUB NOT SWAP1 SWAP4 AND DUP4 DUP3 ADD MSTORE DUP1 MLOAD PUSH1 0x24 DUP2 DUP6 SUB ADD DUP2 MSTORE PUSH1 0x44 SWAP1 SWAP4 ADD DUP2 MSTORE DUP3 MLOAD SWAP3 DUP3 ADD SWAP3 SWAP1 SWAP3 KECCAK256 PUSH1 0x0 SWAP1 DUP2 MSTORE PUSH1 0x9 SWAP1 SWAP2 MSTORE KECCAK256 SLOAD SWAP2 POP POP SWAP3 SWAP2 POP POP JUMP JUMPDEST PUSH1 0x0 PUSH1 0x4 PUSH1 0x0 PUSH1 0xE SLOAD DUP6 DUP6 PUSH1 0x40 MLOAD PUSH1 0x20 ADD DUP1 DUP5 DUP2 MSTORE PUSH1 0x20 ADD DUP4 DUP4 DUP1 DUP3 DUP5 CALLDATACOPY DUP1 DUP4 ADD SWAP3 POP POP POP SWAP4 POP POP POP POP PUSH1 0x40 MLOAD PUSH1 0x20 DUP2 DUP4 SUB SUB DUP2 MSTORE SWAP1 PUSH1 0x40 MSTORE DUP1 MLOAD SWAP1 PUSH1 0x20 ADD KECCAK256 DUP2 MSTORE PUSH1 0x20 ADD SWAP1 DUP2 MSTORE PUSH1 0x20 ADD PUSH1 0x0 KECCAK256 SLOAD SWAP1 POP SWAP3 SWAP2 POP POP JUMP JUMPDEST CALLER ADDRESS EQ PUSH2 0x16FA JUMPI PUSH1 0x40 MLOAD PUSH3 0x461BCD PUSH1 0xE5 SHL DUP2 MSTORE PUSH1 0x4 ADD DUP1 DUP1 PUSH1 0x20 ADD DUP3 DUP2 SUB DUP3 MSTORE PUSH1 0x2B DUP2 MSTORE PUSH1 0x20 ADD DUP1 PUSH2 0x2872 PUSH1 0x2B SWAP2 CODECOPY PUSH1 0x40 ADD SWAP2 POP POP PUSH1 0x40 MLOAD DUP1 SWAP2 SUB SWAP1 REVERT JUMPDEST PUSH1 0xD DUP1 SLOAD PUSH1 0x1 SWAP1 DUP2 ADD SWAP1 SWAP2 SSTORE PUSH1 0xE DUP1 SLOAD PUSH1 0x40 DUP1 MLOAD PUSH1 0x20 DUP1 DUP3 ADD SWAP4 SWAP1 SWAP4 MSTORE PUSH1 0x1 PUSH1 0x1 PUSH1 0xE0 SHL SUB NOT DUP8 AND DUP2 DUP4 ADD MSTORE DUP2 MLOAD PUSH1 0x24 DUP2 DUP4 SUB ADD DUP2 MSTORE PUSH1 0x44 DUP3 ADD DUP4 MSTORE DUP1 MLOAD SWAP1 DUP5 ADD KECCAK256 PUSH1 0x0 SWAP1 DUP2 MSTORE PUSH1 0x9 DUP5 MSTORE SWAP2 DUP3 KECCAK256 DUP1 SLOAD DUP7 ADD SWAP1 SSTORE SWAP3 SLOAD PUSH1 0x64 DUP5 ADD DUP2 DUP2 MSTORE DUP7 MLOAD PUSH1 0x4 SWAP6 SWAP4 SWAP5 SWAP3 SWAP4 DUP9 SWAP4 PUSH1 0x84 SWAP1 SWAP2 ADD SWAP2 SWAP1 DUP5 ADD SWAP1 DUP1 DUP4 DUP4 JUMPDEST PUSH1 0x20 DUP4 LT PUSH2 0x178F JUMPI DUP1 MLOAD DUP3 MSTORE PUSH1 0x1F NOT SWAP1 SWAP3 ADD SWAP2 PUSH1 0x20 SWAP2 DUP3 ADD SWAP2 ADD PUSH2 0x1770 JUMP JUMPDEST PUSH1 0x1 DUP4 PUSH1 0x20 SUB PUSH2 0x100 EXP SUB DUP1 NOT DUP3 MLOAD AND DUP2 DUP5 MLOAD AND DUP1 DUP3 OR DUP6 MSTORE POP POP POP POP POP POP SWAP1 POP ADD SWAP3 POP POP POP PUSH1 0x40 MLOAD PUSH1 0x20 DUP2 DUP4 SUB SUB DUP2 MSTORE SWAP1 PUSH1 0x40 MSTORE DUP1 MLOAD SWAP1 PUSH1 0x20 ADD KECCAK256 DUP2 MSTORE PUSH1 0x20 ADD SWAP1 DUP2 MSTORE PUSH1 0x20 ADD PUSH1 0x0 KECCAK256 PUSH1 0x0 DUP3 DUP3 SLOAD ADD SWAP3 POP POP DUP2 SWAP1 SSTORE POP POP POP JUMP JUMPDEST PUSH1 0x0 DUP2 PUSH2 0x17F8 JUMPI PUSH1 0x0 PUSH2 0x17FB JUMP JUMPDEST PUSH1 0x1 JUMPDEST PUSH1 0xFF AND SWAP1 POP PUSH2 0x184A DUP5 DUP5 DUP1 DUP1 PUSH1 0x1F ADD PUSH1 0x20 DUP1 SWAP2 DIV MUL PUSH1 0x20 ADD PUSH1 0x40 MLOAD SWAP1 DUP2 ADD PUSH1 0x40 MSTORE DUP1 SWAP4 SWAP3 SWAP2 SWAP1 DUP2 DUP2 MSTORE PUSH1 0x20 ADD DUP4 DUP4 DUP1 DUP3 DUP5 CALLDATACOPY PUSH1 0x0 SWAP3 ADD SWAP2 SWAP1 SWAP2 MSTORE POP PUSH2 0x1845 SWAP3 POP DUP6 SWAP2 POP PUSH2 0x247B SWAP1 POP JUMP JUMPDEST PUSH2 0x251D JUMP JUMPDEST POP POP POP POP JUMP JUMPDEST PUSH2 0x184A DUP5 DUP5 DUP1 DUP1 PUSH1 0x1F ADD PUSH1 0x20 DUP1 SWAP2 DIV MUL PUSH1 0x20 ADD PUSH1 0x40 MLOAD SWAP1 DUP2 ADD PUSH1 0x40 MSTORE DUP1 SWAP4 SWAP3 SWAP2 SWAP1 DUP2 DUP2 MSTORE PUSH1 0x20 ADD DUP4 DUP4 DUP1 DUP3 DUP5 CALLDATACOPY PUSH1 0x0 SWAP3 ADD SWAP2 SWAP1 SWAP2 MSTORE POP POP PUSH1 0x40 DUP1 MLOAD PUSH1 0x20 PUSH1 0x1F DUP9 ADD DUP2 SWAP1 DIV DUP2 MUL DUP3 ADD DUP2 ADD SWAP1 SWAP3 MSTORE DUP7 DUP2 MSTORE SWAP3 POP DUP7 SWAP2 POP DUP6 SWAP1 DUP2 SWAP1 DUP5 ADD DUP4 DUP3 DUP1 DUP3 DUP5 CALLDATACOPY PUSH1 0x0 SWAP3 ADD SWAP2 SWAP1 SWAP2 MSTORE POP PUSH2 0x251D SWAP3 POP POP POP JUMP JUMPDEST PUSH1 0x1 PUSH1 0xF8 SHL DUP2 JUMP JUMPDEST PUSH2 0x18E0 PUSH2 0x15C0 DUP3 PUSH1 0x1 PUSH1 0x1 PUSH1 0xA0 SHL SUB AND PUSH2 0x247B JUMP JUMPDEST POP JUMP JUMPDEST PUSH1 0x0 PUSH2 0x1924 DUP4 DUP4 DUP1 DUP1 PUSH1 0x1F ADD PUSH1 0x20 DUP1 SWAP2 DIV MUL PUSH1 0x20 ADD PUSH1 0x40 MLOAD SWAP1 DUP2 ADD PUSH1 0x40 MSTORE DUP1 SWAP4 SWAP3 SWAP2 SWAP1 DUP2 DUP2 MSTORE PUSH1 0x20 ADD DUP4 DUP4 DUP1 DUP3 DUP5 CALLDATACOPY PUSH1 0x0 SWAP3 ADD SWAP2 SWAP1 SWAP2 MSTORE POP PUSH2 0x24C2 SWAP3 POP POP POP JUMP JUMPDEST PUSH1 0x1 PUSH1 0x1 PUSH1 0xE0 SHL SUB NOT DUP2 AND PUSH1 0x0 SWAP1 DUP2 MSTORE PUSH1 0x6 PUSH1 0x20 MSTORE PUSH1 0x40 SWAP1 KECCAK256 DUP1 SLOAD SWAP2 SWAP3 POP PUSH1 0x2 SWAP2 PUSH1 0xFF NOT AND PUSH1 0x1 DUP4 JUMPDEST MUL OR SWAP1 SSTORE POP PUSH2 0x195B DUP2 PUSH2 0x2618 JUMP JUMPDEST POP POP POP JUMP JUMPDEST PUSH1 0x0 DUP2 PUSH2 0x196E JUMPI PUSH1 0x0 PUSH2 0x1971 JUMP JUMPDEST PUSH1 0x1 JUMPDEST PUSH1 0xFF AND SWAP1 POP PUSH2 0x184A DUP5 DUP5 DUP1 DUP1 PUSH1 0x1F ADD PUSH1 0x20 DUP1 SWAP2 DIV MUL PUSH1 0x20 ADD PUSH1 0x40 MLOAD SWAP1 DUP2 ADD PUSH1 0x40 MSTORE DUP1 SWAP4 SWAP3 SWAP2 SWAP1 DUP2 DUP2 MSTORE PUSH1 0x20 ADD DUP4 DUP4 DUP1 DUP3 DUP5 CALLDATACOPY PUSH1 0x0 SWAP3 ADD SWAP2 SWAP1 SWAP2 MSTORE POP PUSH2 0x19BB SWAP3 POP DUP6 SWAP2 POP PUSH2 0x247B SWAP1 POP JUMP JUMPDEST PUSH2 0x26A3 JUMP JUMPDEST PUSH1 0x40 MLOAD DUP1 PUSH1 0x40 ADD PUSH1 0x40 MSTORE DUP1 PUSH1 0x4 DUP2 MSTORE PUSH1 0x20 ADD PUSH4 0x183C3333 PUSH1 0xE1 SHL DUP2 MSTORE POP DUP2 JUMP JUMPDEST PUSH1 0xA DUP1 SLOAD PUSH1 0xFF NOT AND PUSH1 0x1 OR SWAP1 SSTORE PUSH2 0x195B PUSH1 0xC DUP4 DUP4 PUSH2 0x26F6 JUMP JUMPDEST PUSH1 0x0 PUSH2 0x1A3A DUP6 DUP6 DUP1 DUP1 PUSH1 0x1F ADD PUSH1 0x20 DUP1 SWAP2 DIV MUL PUSH1 0x20 ADD PUSH1 0x40 MLOAD SWAP1 DUP2 ADD PUSH1 0x40 MSTORE DUP1 SWAP4 SWAP3 SWAP2 SWAP1 DUP2 DUP2 MSTORE PUSH1 0x20 ADD DUP4 DUP4 DUP1 DUP3 DUP5 CALLDATACOPY PUSH1 0x0 SWAP3 ADD SWAP2 SWAP1 SWAP2 MSTORE POP PUSH2 0x24C2 SWAP3 POP POP POP JUMP JUMPDEST PUSH1 0x1 PUSH1 0x1 PUSH1 0xE0 SHL SUB NOT DUP2 AND PUSH1 0x0 SWAP1 DUP2 MSTORE PUSH1 0x6 PUSH1 0x20 SWAP1 DUP2 MSTORE PUSH1 0x40 DUP1 DUP4 KECCAK256 DUP1 SLOAD PUSH1 0xFF NOT AND PUSH1 0x1 OR SWAP1 SSTORE PUSH1 0x8 SWAP1 SWAP2 MSTORE SWAP1 KECCAK256 SWAP1 SWAP2 POP PUSH2 0x1A76 SWAP1 DUP5 DUP5 PUSH2 0x26F6 JUMP JUMPDEST POP PUSH2 0x1A80 DUP2 PUSH2 0x2618 JUMP JUMPDEST POP POP POP POP POP JUMP JUMPDEST PUSH1 0x1 DUP1 DUP6 DUP6 PUSH1 0x40 MLOAD DUP1 DUP4 DUP4 DUP1 DUP3 DUP5 CALLDATACOPY SWAP2 SWAP1 SWAP2 ADD SWAP5 DUP6 MSTORE POP POP PUSH1 0x40 MLOAD SWAP3 DUP4 SWAP1 SUB PUSH1 0x20 ADD SWAP1 SWAP3 KECCAK256 DUP1 SLOAD SWAP1 SWAP3 POP PUSH1 0xFF NOT AND SWAP1 POP PUSH1 0x1 DUP4 PUSH1 0x2 DUP2 GT ISZERO PUSH2 0x1AC5 JUMPI INVALID JUMPDEST MUL OR SWAP1 SSTORE POP DUP2 DUP2 PUSH1 0x3 DUP7 DUP7 PUSH1 0x40 MLOAD DUP1 DUP4 DUP4 DUP1 DUP3 DUP5 CALLDATACOPY DUP1 DUP4 ADD SWAP3 POP POP POP SWAP3 POP POP POP SWAP1 DUP2 MSTORE PUSH1 0x20 ADD PUSH1 0x40 MLOAD DUP1 SWAP2 SUB SWAP1 KECCAK256 SWAP2 SWAP1 PUSH2 0x1B00 SWAP3 SWAP2 SWAP1 PUSH2 0x26F6 JUMP JUMPDEST POP PUSH2 0x184A DUP5 DUP5 DUP1 DUP1 PUSH1 0x1F ADD PUSH1 0x20 DUP1 SWAP2 DIV MUL PUSH1 0x20 ADD PUSH1 0x40 MLOAD SWAP1 DUP2 ADD PUSH1 0x40 MSTORE DUP1 SWAP4 SWAP3 SWAP2 SWAP1 DUP2 DUP2 MSTORE PUSH1 0x20 ADD DUP4 DUP4 DUP1 DUP3 DUP5 CALLDATACOPY PUSH1 0x0 SWAP3 ADD SWAP2 SWAP1 SWAP2 MSTORE POP PUSH2 0x23BA SWAP3 POP POP POP JUMP JUMPDEST PUSH1 0x0 PUSH2 0x1B81 DUP4 DUP4 DUP1 DUP1 PUSH1 0x1F ADD PUSH1 0x20 DUP1 SWAP2 DIV MUL PUSH1 0x20 ADD PUSH1 0x40 MLOAD SWAP1 DUP2 ADD PUSH1 0x40 MSTORE DUP1 SWAP4 SWAP3 SWAP2 SWAP1 DUP2 DUP2 MSTORE PUSH1 0x20 ADD DUP4 DUP4 DUP1 DUP3 DUP5 CALLDATACOPY PUSH1 0x0 SWAP3 ADD SWAP2 SWAP1 SWAP2 MSTORE POP PUSH2 0x24C2 SWAP3 POP POP POP JUMP JUMPDEST PUSH1 0x1 PUSH1 0x1 PUSH1 0xE0 SHL SUB NOT DUP2 AND PUSH1 0x0 SWAP1 DUP2 MSTORE PUSH1 0x6 PUSH1 0x20 MSTORE PUSH1 0x40 SWAP1 KECCAK256 DUP1 SLOAD SWAP2 SWAP3 POP PUSH1 0x1 SWAP2 PUSH1 0xFF NOT AND DUP3 DUP1 PUSH2 0x194D JUMP JUMPDEST PUSH2 0x18E0 PUSH2 0x15C0 DUP3 PUSH2 0x247B JUMP JUMPDEST PUSH2 0x195B DUP4 DUP4 DUP1 DUP1 PUSH1 0x1F ADD PUSH1 0x20 DUP1 SWAP2 DIV MUL PUSH1 0x20 ADD PUSH1 0x40 MLOAD SWAP1 DUP2 ADD PUSH1 0x40 MSTORE DUP1 SWAP4 SWAP3 SWAP2 SWAP1 DUP2 DUP2 MSTORE PUSH1 0x20 ADD DUP4 DUP4 DUP1 DUP3 DUP5 CALLDATACOPY PUSH1 0x0 SWAP3 ADD SWAP2 SWAP1 SWAP2 MSTORE POP PUSH2 0x1845 SWAP3 POP POP POP PUSH1 0x1 PUSH1 0x1 PUSH1 0xA0 SHL SUB DUP5 AND PUSH2 0x247B JUMP JUMPDEST PUSH2 0x184A DUP5 DUP5 DUP1 DUP1 PUSH1 0x1F ADD PUSH1 0x20 DUP1 SWAP2 DIV MUL PUSH1 0x20 ADD PUSH1 0x40 MLOAD SWAP1 DUP2 ADD PUSH1 0x40 MSTORE DUP1 SWAP4 SWAP3 SWAP2 SWAP1 DUP2 DUP2 MSTORE PUSH1 0x20 ADD DUP4 DUP4 DUP1 DUP3 DUP5 CALLDATACOPY PUSH1 0x0 SWAP3 ADD SWAP2 SWAP1 SWAP2 MSTORE POP POP PUSH1 0x40 DUP1 MLOAD PUSH1 0x20 PUSH1 0x1F DUP9 ADD DUP2 SWAP1 DIV DUP2 MUL DUP3 ADD DUP2 ADD SWAP1 SWAP3 MSTORE DUP7 DUP2 MSTORE SWAP3 POP DUP7 SWAP2 POP DUP6 SWAP1 DUP2 SWAP1 DUP5 ADD DUP4 DUP3 DUP1 DUP3 DUP5 CALLDATACOPY PUSH1 0x0 SWAP3 ADD SWAP2 SWAP1 SWAP2 MSTORE POP PUSH2 0x26A3 SWAP3 POP POP POP JUMP JUMPDEST PUSH2 0x195B DUP4 DUP4 DUP1 DUP1 PUSH1 0x1F ADD PUSH1 0x20 DUP1 SWAP2 DIV MUL PUSH1 0x20 ADD PUSH1 0x40 MLOAD SWAP1 DUP2 ADD PUSH1 0x40 MSTORE DUP1 SWAP4 SWAP3 SWAP2 SWAP1 DUP2 DUP2 MSTORE PUSH1 0x20 ADD DUP4 DUP4 DUP1 DUP3 DUP5 CALLDATACOPY PUSH1 0x0 SWAP3 ADD SWAP2 SWAP1 SWAP2 MSTORE POP PUSH2 0x19BB SWAP3 POP POP POP PUSH1 0x1 PUSH1 0x1 PUSH1 0xA0 SHL SUB DUP5 AND PUSH2 0x247B JUMP JUMPDEST PUSH2 0x155A DUP3 DUP3 DUP1 DUP1 PUSH1 0x1F ADD PUSH1 0x20 DUP1 SWAP2 DIV MUL PUSH1 0x20 ADD PUSH1 0x40 MLOAD SWAP1 DUP2 ADD PUSH1 0x40 MSTORE DUP1 SWAP4 SWAP3 SWAP2 SWAP1 DUP2 DUP2 MSTORE PUSH1 0x20 ADD DUP4 DUP4 DUP1 DUP3 DUP5 CALLDATACOPY PUSH1 0x0 SWAP3 ADD SWAP2 SWAP1 SWAP2 MSTORE POP PUSH2 0x24A5 SWAP3 POP POP POP JUMP JUMPDEST PUSH2 0x195B DUP4 DUP4 DUP1 DUP1 PUSH1 0x1F ADD PUSH1 0x20 DUP1 SWAP2 DIV MUL PUSH1 0x20 ADD PUSH1 0x40 MLOAD SWAP1 DUP2 ADD PUSH1 0x40 MSTORE DUP1 SWAP4 SWAP3 SWAP2 SWAP1 DUP2 DUP2 MSTORE PUSH1 0x20 ADD DUP4 DUP4 DUP1 DUP3 DUP5 CALLDATACOPY PUSH1 0x0 SWAP3 ADD SWAP2 SWAP1 SWAP2 MSTORE POP PUSH2 0x1845 SWAP3 POP DUP6 SWAP2 POP PUSH2 0x247B SWAP1 POP JUMP JUMPDEST PUSH1 0x1 PUSH1 0xF8 SHL PUSH1 0x0 SWAP1 DUP2 MSTORE PUSH1 0x20 SWAP1 DUP2 MSTORE PUSH32 0x82AC279DB26A206D9BA5A94C07FF940AEA4B3BFDE8820EC95F4EFA0ACFD0D5BC DUP1 SLOAD PUSH1 0x40 DUP1 MLOAD PUSH1 0x2 PUSH1 0x1 DUP5 AND ISZERO PUSH2 0x100 MUL PUSH1 0x0 NOT ADD SWAP1 SWAP4 AND SWAP3 SWAP1 SWAP3 DIV PUSH1 0x1F DUP2 ADD DUP6 SWAP1 DIV DUP6 MUL DUP4 ADD DUP6 ADD SWAP1 SWAP2 MSTORE DUP1 DUP3 MSTORE PUSH1 0x60 SWAP4 SWAP2 SWAP3 SWAP2 DUP4 ADD DUP3 DUP3 DUP1 ISZERO PUSH2 0x1DFE JUMPI DUP1 PUSH1 0x1F LT PUSH2 0x1DD3 JUMPI PUSH2 0x100 DUP1 DUP4 SLOAD DIV MUL DUP4 MSTORE SWAP2 PUSH1 0x20 ADD SWAP2 PUSH2 0x1DFE JUMP JUMPDEST DUP3 ADD SWAP2 SWAP1 PUSH1 0x0 MSTORE PUSH1 0x20 PUSH1 0x0 KECCAK256 SWAP1 JUMPDEST DUP2 SLOAD DUP2 MSTORE SWAP1 PUSH1 0x1 ADD SWAP1 PUSH1 0x20 ADD DUP1 DUP4 GT PUSH2 0x1DE1 JUMPI DUP3 SWAP1 SUB PUSH1 0x1F AND DUP3 ADD SWAP2 JUMPDEST POP POP DUP4 MLOAD PUSH1 0x20 DUP6 ADD KECCAK256 SWAP4 SWAP5 POP POP POP POP JUMPDEST PUSH1 0x40 DUP1 MLOAD DUP1 DUP3 ADD SWAP1 SWAP2 MSTORE PUSH1 0x4 DUP2 MSTORE PUSH4 0x183C3333 PUSH1 0xE1 SHL PUSH1 0x20 SWAP1 SWAP2 ADD MSTORE PUSH32 0x420DAFFAD4B177BCE28BEAD5F76F7BC97EF63C3AAE74C496DB8CE6AAFE9E6513 DUP2 EQ PUSH2 0x20A8 JUMPI PUSH1 0x0 PUSH1 0x1 DUP4 PUSH1 0x40 MLOAD DUP1 DUP3 DUP1 MLOAD SWAP1 PUSH1 0x20 ADD SWAP1 DUP1 DUP4 DUP4 JUMPDEST PUSH1 0x20 DUP4 LT PUSH2 0x1E85 JUMPI DUP1 MLOAD DUP3 MSTORE PUSH1 0x1F NOT SWAP1 SWAP3 ADD SWAP2 PUSH1 0x20 SWAP2 DUP3 ADD SWAP2 ADD PUSH2 0x1E66 JUMP JUMPDEST MLOAD DUP2 MLOAD PUSH1 0x20 SWAP4 DUP5 SUB PUSH2 0x100 EXP PUSH1 0x0 NOT ADD DUP1 NOT SWAP1 SWAP3 AND SWAP2 AND OR SWAP1 MSTORE SWAP3 ADD SWAP5 DUP6 MSTORE POP PUSH1 0x40 MLOAD SWAP4 DUP5 SWAP1 SUB ADD SWAP1 SWAP3 KECCAK256 DUP1 SLOAD SWAP1 SWAP3 POP PUSH1 0xFF NOT AND SWAP1 POP PUSH1 0x1 DUP4 PUSH1 0x2 DUP2 GT ISZERO PUSH2 0x1EC9 JUMPI INVALID JUMPDEST MUL OR SWAP1 SSTORE POP PUSH1 0x40 MLOAD DUP1 PUSH1 0x20 ADD PUSH1 0x40 MSTORE DUP1 PUSH1 0x0 DUP2 MSTORE POP PUSH1 0x2 DUP4 PUSH1 0x40 MLOAD DUP1 DUP3 DUP1 MLOAD SWAP1 PUSH1 0x20 ADD SWAP1 DUP1 DUP4 DUP4 JUMPDEST PUSH1 0x20 DUP4 LT PUSH2 0x1F10 JUMPI DUP1 MLOAD DUP3 MSTORE PUSH1 0x1F NOT SWAP1 SWAP3 ADD SWAP2 PUSH1 0x20 SWAP2 DUP3 ADD SWAP2 ADD PUSH2 0x1EF1 JUMP JUMPDEST MLOAD DUP2 MLOAD PUSH1 0x20 SWAP4 DUP5 SUB PUSH2 0x100 EXP PUSH1 0x0 NOT ADD DUP1 NOT SWAP1 SWAP3 AND SWAP2 AND OR SWAP1 MSTORE SWAP3 ADD SWAP5 DUP6 MSTORE POP PUSH1 0x40 MLOAD SWAP4 DUP5 SWAP1 SUB DUP2 ADD SWAP1 SWAP4 KECCAK256 DUP5 MLOAD PUSH2 0x1F51 SWAP6 SWAP2 SWAP5 SWAP2 SWAP1 SWAP2 ADD SWAP3 POP SWAP1 POP PUSH2 0x2774 JUMP JUMPDEST POP PUSH1 0x40 MLOAD DUP1 PUSH1 0x20 ADD PUSH1 0x40 MSTORE DUP1 PUSH1 0x0 DUP2 MSTORE POP PUSH1 0x3 DUP4 PUSH1 0x40 MLOAD DUP1 DUP3 DUP1 MLOAD SWAP1 PUSH1 0x20 ADD SWAP1 DUP1 DUP4 DUP4 JUMPDEST PUSH1 0x20 DUP4 LT PUSH2 0x1F94 JUMPI DUP1 MLOAD DUP3 MSTORE PUSH1 0x1F NOT SWAP1 SWAP3 ADD SWAP2 PUSH1 0x20 SWAP2 DUP3 ADD SWAP2 ADD PUSH2 0x1F75 JUMP JUMPDEST MLOAD DUP2 MLOAD PUSH1 0x20 SWAP4 DUP5 SUB PUSH2 0x100 EXP PUSH1 0x0 NOT ADD DUP1 NOT SWAP1 SWAP3 AND SWAP2 AND OR SWAP1 MSTORE SWAP3 ADD SWAP5 DUP6 MSTORE POP PUSH1 0x40 MLOAD SWAP4 DUP5 SWAP1 SUB DUP2 ADD SWAP1 SWAP4 KECCAK256 DUP5 MLOAD PUSH2 0x1FD5 SWAP6 SWAP2 SWAP5 SWAP2 SWAP1 SWAP2 ADD SWAP3 POP SWAP1 POP PUSH2 0x2774 JUMP JUMPDEST POP PUSH1 0x0 DUP2 DUP2 MSTORE PUSH1 0x20 DUP2 DUP2 MSTORE PUSH1 0x40 SWAP2 DUP3 SWAP1 KECCAK256 DUP1 SLOAD DUP4 MLOAD PUSH1 0x1F PUSH1 0x2 PUSH1 0x0 NOT PUSH2 0x100 PUSH1 0x1 DUP7 AND ISZERO MUL ADD SWAP1 SWAP4 AND SWAP3 SWAP1 SWAP3 DIV SWAP2 DUP3 ADD DUP5 SWAP1 DIV DUP5 MUL DUP2 ADD DUP5 ADD SWAP1 SWAP5 MSTORE DUP1 DUP5 MSTORE SWAP1 SWAP2 DUP4 ADD DUP3 DUP3 DUP1 ISZERO PUSH2 0x2067 JUMPI DUP1 PUSH1 0x1F LT PUSH2 0x203C JUMPI PUSH2 0x100 DUP1 DUP4 SLOAD DIV MUL DUP4 MSTORE SWAP2 PUSH1 0x20 ADD SWAP2 PUSH2 0x2067 JUMP JUMPDEST DUP3 ADD SWAP2 SWAP1 PUSH1 0x0 MSTORE PUSH1 0x20 PUSH1 0x0 KECCAK256 SWAP1 JUMPDEST DUP2 SLOAD DUP2 MSTORE SWAP1 PUSH1 0x1 ADD SWAP1 PUSH1 0x20 ADD DUP1 DUP4 GT PUSH2 0x204A JUMPI DUP3 SWAP1 SUB PUSH1 0x1F AND DUP3 ADD SWAP2 JUMPDEST POP POP PUSH1 0x40 DUP1 MLOAD PUSH1 0x20 DUP1 DUP3 ADD DUP1 DUP5 MSTORE PUSH1 0x0 DUP1 DUP5 MSTORE DUP10 DUP2 MSTORE SWAP2 DUP3 SWAP1 MSTORE SWAP3 SWAP1 KECCAK256 SWAP1 MLOAD SWAP6 SWAP8 POP PUSH2 0x209A SWAP6 SWAP1 SWAP5 POP SWAP1 SWAP3 POP SWAP1 POP PUSH2 0x2774 JUMP JUMPDEST POP POP DUP1 MLOAD PUSH1 0x20 DUP3 ADD KECCAK256 PUSH2 0x1E0E JUMP JUMPDEST PUSH1 0x40 DUP1 MLOAD DUP1 DUP3 ADD SWAP1 SWAP2 MSTORE PUSH1 0x4 DUP2 MSTORE PUSH4 0x183C3333 PUSH1 0xE1 SHL PUSH1 0x20 DUP1 DUP4 ADD SWAP2 DUP3 MSTORE PUSH1 0x1 PUSH1 0xF8 SHL PUSH1 0x0 SWAP1 DUP2 MSTORE SWAP1 MSTORE SWAP1 MLOAD PUSH2 0x20FF SWAP2 PUSH32 0x82AC279DB26A206D9BA5A94C07FF940AEA4B3BFDE8820EC95F4EFA0ACFD0D5BC SWAP2 PUSH2 0x2774 JUMP JUMPDEST POP PUSH1 0x1 PUSH1 0xF8 SHL PUSH1 0x0 MSTORE PUSH1 0x5 PUSH1 0x20 MSTORE PUSH32 0xDE001AFD1F75281F9D2AB22D4E0166BE5A51DD890D7492E8FBF3E412E05EAC0A SLOAD PUSH1 0xE0 SHL JUMPDEST PUSH1 0x1 PUSH1 0x1 PUSH1 0xE0 SHL SUB NOT DUP2 AND PUSH1 0x1 PUSH1 0xF8 SHL EQ PUSH2 0x21F3 JUMPI PUSH1 0x1 PUSH1 0x1 PUSH1 0xE0 SHL SUB NOT DUP2 AND PUSH1 0x0 DUP2 DUP2 MSTORE PUSH1 0x6 PUSH1 0x20 SWAP1 DUP2 MSTORE PUSH1 0x40 DUP1 DUP4 KECCAK256 DUP1 SLOAD PUSH1 0xFF NOT AND SWAP1 SSTORE DUP1 MLOAD DUP1 DUP4 ADD DUP1 DUP4 MSTORE DUP5 DUP3 MSTORE SWAP5 DUP5 MSTORE PUSH1 0x7 SWAP1 SWAP3 MSTORE SWAP1 SWAP2 KECCAK256 SWAP1 MLOAD DUP4 SWAP3 PUSH2 0x2190 SWAP3 SWAP2 PUSH2 0x2774 JUMP JUMPDEST POP PUSH1 0x40 DUP1 MLOAD PUSH1 0x20 DUP1 DUP3 ADD DUP1 DUP5 MSTORE PUSH1 0x0 DUP1 DUP5 MSTORE PUSH1 0x1 PUSH1 0x1 PUSH1 0xE0 SHL SUB NOT DUP7 AND DUP2 MSTORE PUSH1 0x8 SWAP1 SWAP3 MSTORE SWAP3 SWAP1 KECCAK256 SWAP1 MLOAD PUSH2 0x21C3 SWAP3 SWAP1 PUSH2 0x2774 JUMP JUMPDEST POP PUSH1 0x1 PUSH1 0x1 PUSH1 0xE0 SHL SUB NOT AND PUSH1 0x0 SWAP1 DUP2 MSTORE PUSH1 0x5 PUSH1 0x20 MSTORE PUSH1 0x40 SWAP1 KECCAK256 DUP1 SLOAD PUSH4 0xFFFFFFFF NOT DUP2 AND SWAP1 SWAP2 SSTORE PUSH1 0xE0 SHL SWAP1 POP PUSH2 0x2133 JUMP JUMPDEST PUSH1 0x1 PUSH1 0xF8 SHL PUSH1 0x0 SWAP1 DUP2 MSTORE PUSH1 0x5 PUSH1 0x20 SWAP1 DUP2 MSTORE PUSH32 0xDE001AFD1F75281F9D2AB22D4E0166BE5A51DD890D7492E8FBF3E412E05EAC0A DUP1 SLOAD PUSH4 0xFFFFFFFF NOT AND PUSH4 0x1000000 OR SWAP1 SSTORE PUSH1 0x40 DUP1 MLOAD DUP1 DUP4 ADD SWAP4 SWAP1 SWAP4 MSTORE DUP1 MLOAD DUP1 DUP5 SUB DUP4 ADD DUP2 MSTORE SWAP3 DUP2 ADD SWAP1 MSTORE DUP2 MLOAD PUSH2 0x225F SWAP3 PUSH1 0xB SWAP3 ADD SWAP1 PUSH2 0x2774 JUMP JUMPDEST POP POP PUSH1 0xA DUP1 SLOAD PUSH1 0xFF NOT AND SWAP1 SSTORE POP POP PUSH1 0x0 PUSH1 0xD SSTORE PUSH1 0xE DUP1 SLOAD PUSH1 0x1 ADD SWAP1 SSTORE JUMP JUMPDEST PUSH1 0xA DUP1 SLOAD PUSH1 0xFF NOT AND PUSH1 0x1 OR SWAP1 SSTORE PUSH1 0x40 DUP1 MLOAD PUSH1 0x20 DUP2 ADD SWAP2 DUP3 SWAP1 MSTORE PUSH1 0x0 SWAP1 DUP2 SWAP1 MSTORE PUSH2 0x18E0 SWAP2 PUSH1 0xC SWAP2 PUSH2 0x2774 JUMP JUMPDEST PUSH1 0x1 DUP1 DUP4 DUP4 PUSH1 0x40 MLOAD DUP1 DUP4 DUP4 DUP1 DUP3 DUP5 CALLDATACOPY SWAP2 SWAP1 SWAP2 ADD SWAP5 DUP6 MSTORE POP POP PUSH1 0x40 MLOAD SWAP3 DUP4 SWAP1 SUB PUSH1 0x20 ADD SWAP1 SWAP3 KECCAK256 DUP1 SLOAD SWAP1 SWAP3 POP PUSH1 0xFF NOT AND SWAP1 POP PUSH1 0x1 DUP4 PUSH1 0x2 DUP2 GT ISZERO PUSH2 0x22E6 JUMPI INVALID JUMPDEST MUL OR SWAP1 SSTORE POP PUSH1 0x40 MLOAD DUP1 PUSH1 0x20 ADD PUSH1 0x40 MSTORE DUP1 PUSH1 0x0 DUP2 MSTORE POP PUSH1 0x3 DUP4 DUP4 PUSH1 0x40 MLOAD DUP1 DUP4 DUP4 DUP1 DUP3 DUP5 CALLDATACOPY DUP1 DUP4 ADD SWAP3 POP POP POP SWAP3 POP POP POP SWAP1 DUP2 MSTORE PUSH1 0x20 ADD PUSH1 0x40 MLOAD DUP1 SWAP2 SUB SWAP1 KECCAK256 SWAP1 DUP1 MLOAD SWAP1 PUSH1 0x20 ADD SWAP1 PUSH2 0x2335 SWAP3 SWAP2 SWAP1 PUSH2 0x2774 JUMP JUMPDEST POP PUSH2 0x155A DUP3 DUP3 DUP1 DUP1 PUSH1 0x1F ADD PUSH1 0x20 DUP1 SWAP2 DIV MUL PUSH1 0x20 ADD PUSH1 0x40 MLOAD SWAP1 DUP2 ADD PUSH1 0x40 MSTORE DUP1 SWAP4 SWAP3 SWAP2 SWAP1 DUP2 DUP2 MSTORE PUSH1 0x20 ADD DUP4 DUP4 DUP1 DUP3 DUP5 CALLDATACOPY PUSH1 0x0 SWAP3 ADD SWAP2 SWAP1 SWAP2 MSTORE POP PUSH2 0x23BA SWAP3 POP POP POP JUMP JUMPDEST PUSH2 0x195B DUP4 DUP4 DUP1 DUP1 PUSH1 0x1F ADD PUSH1 0x20 DUP1 SWAP2 DIV MUL PUSH1 0x20 ADD PUSH1 0x40 MLOAD SWAP1 DUP2 ADD PUSH1 0x40 MSTORE DUP1 SWAP4 SWAP3 SWAP2 SWAP1 DUP2 DUP2 MSTORE PUSH1 0x20 ADD DUP4 DUP4 DUP1 DUP3 DUP5 CALLDATACOPY PUSH1 0x0 SWAP3 ADD SWAP2 SWAP1 SWAP2 MSTORE POP PUSH2 0x19BB SWAP3 POP DUP6 SWAP2 POP PUSH2 0x247B SWAP1 POP JUMP JUMPDEST DUP1 MLOAD PUSH1 0x20 DUP1 DUP4 ADD SWAP2 SWAP1 SWAP2 KECCAK256 PUSH1 0x0 DUP2 DUP2 MSTORE SWAP2 DUP3 SWAP1 MSTORE PUSH1 0x40 SWAP1 SWAP2 KECCAK256 SLOAD PUSH1 0x2 PUSH1 0x0 NOT PUSH2 0x100 PUSH1 0x1 DUP5 AND ISZERO MUL ADD SWAP1 SWAP2 AND DIV PUSH2 0x155A JUMPI PUSH1 0x0 PUSH1 0x20 DUP2 SWAP1 MSTORE DUP2 DUP2 MSTORE PUSH1 0x40 SWAP1 KECCAK256 PUSH32 0x82AC279DB26A206D9BA5A94C07FF940AEA4B3BFDE8820EC95F4EFA0ACFD0D5BC DUP1 SLOAD PUSH2 0x243A SWAP3 SWAP2 SWAP1 PUSH1 0x2 PUSH1 0x0 NOT PUSH2 0x100 PUSH1 0x1 DUP5 AND ISZERO MUL ADD SWAP1 SWAP2 AND DIV PUSH2 0x27E2 JUMP JUMPDEST POP PUSH1 0x1 PUSH1 0xF8 SHL PUSH1 0x0 SWAP1 DUP2 MSTORE PUSH1 0x20 SWAP1 DUP2 MSTORE DUP3 MLOAD PUSH2 0x195B SWAP2 PUSH32 0x82AC279DB26A206D9BA5A94C07FF940AEA4B3BFDE8820EC95F4EFA0ACFD0D5BC SWAP2 SWAP1 DUP6 ADD SWAP1 PUSH2 0x2774 JUMP JUMPDEST PUSH1 0x40 DUP1 MLOAD PUSH1 0x20 DUP1 DUP3 MSTORE DUP2 DUP4 ADD SWAP1 SWAP3 MSTORE PUSH1 0x60 SWAP2 PUSH1 0x20 DUP3 ADD DUP2 DUP1 CALLDATASIZE DUP4 CALLDATACOPY POP POP POP PUSH1 0x20 DUP2 ADD SWAP3 SWAP1 SWAP3 MSTORE POP SWAP1 JUMP JUMPDEST PUSH1 0xA DUP1 SLOAD PUSH1 0xFF NOT AND SWAP1 SSTORE DUP1 MLOAD PUSH2 0x155A SWAP1 PUSH1 0xB SWAP1 PUSH1 0x20 DUP5 ADD SWAP1 PUSH2 0x2774 JUMP JUMPDEST PUSH1 0x0 DUP1 DUP1 JUMPDEST PUSH1 0x4 DUP2 LT ISZERO PUSH2 0x2516 JUMPI DUP1 PUSH1 0x8 MUL DUP5 DUP3 DUP2 MLOAD DUP2 LT PUSH2 0x24E0 JUMPI INVALID JUMPDEST ADD PUSH1 0x20 ADD MLOAD PUSH32 0xFF00000000000000000000000000000000000000000000000000000000000000 AND SWAP1 SHR SWAP2 SWAP1 SWAP2 OR SWAP1 PUSH1 0x1 ADD PUSH2 0x24C7 JUMP JUMPDEST POP SWAP3 SWAP2 POP POP JUMP JUMPDEST PUSH1 0x0 PUSH1 0x1 DUP4 PUSH1 0x40 MLOAD DUP1 DUP3 DUP1 MLOAD SWAP1 PUSH1 0x20 ADD SWAP1 DUP1 DUP4 DUP4 JUMPDEST PUSH1 0x20 DUP4 LT PUSH2 0x2551 JUMPI DUP1 MLOAD DUP3 MSTORE PUSH1 0x1F NOT SWAP1 SWAP3 ADD SWAP2 PUSH1 0x20 SWAP2 DUP3 ADD SWAP2 ADD PUSH2 0x2532 JUMP JUMPDEST MLOAD DUP2 MLOAD PUSH1 0x20 SWAP4 DUP5 SUB PUSH2 0x100 EXP PUSH1 0x0 NOT ADD DUP1 NOT SWAP1 SWAP3 AND SWAP2 AND OR SWAP1 MSTORE SWAP3 ADD SWAP5 DUP6 MSTORE POP PUSH1 0x40 MLOAD SWAP4 DUP5 SWAP1 SUB ADD SWAP1 SWAP3 KECCAK256 DUP1 SLOAD SWAP1 SWAP3 POP PUSH1 0xFF NOT AND SWAP1 POP PUSH1 0x1 DUP4 PUSH1 0x2 DUP2 GT ISZERO PUSH2 0x2595 JUMPI INVALID JUMPDEST MUL OR SWAP1 SSTORE POP DUP1 PUSH1 0x2 DUP4 PUSH1 0x40 MLOAD DUP1 DUP3 DUP1 MLOAD SWAP1 PUSH1 0x20 ADD SWAP1 DUP1 DUP4 DUP4 JUMPDEST PUSH1 0x20 DUP4 LT PUSH2 0x25CD JUMPI DUP1 MLOAD DUP3 MSTORE PUSH1 0x1F NOT SWAP1 SWAP3 ADD SWAP2 PUSH1 0x20 SWAP2 DUP3 ADD SWAP2 ADD PUSH2 0x25AE JUMP JUMPDEST MLOAD DUP2 MLOAD PUSH1 0x20 SWAP4 DUP5 SUB PUSH2 0x100 EXP PUSH1 0x0 NOT ADD DUP1 NOT SWAP1 SWAP3 AND SWAP2 AND OR SWAP1 MSTORE SWAP3 ADD SWAP5 DUP6 MSTORE POP PUSH1 0x40 MLOAD SWAP4 DUP5 SWAP1 SUB DUP2 ADD SWAP1 SWAP4 KECCAK256 DUP5 MLOAD PUSH2 0x260E SWAP6 SWAP2 SWAP5 SWAP2 SWAP1 SWAP2 ADD SWAP3 POP SWAP1 POP PUSH2 0x2774 JUMP JUMPDEST POP PUSH2 0x155A DUP3 PUSH2 0x23BA JUMP JUMPDEST PUSH1 0x1 PUSH1 0x1 PUSH1 0xE0 SHL SUB NOT DUP1 DUP3 AND PUSH1 0x0 SWAP1 DUP2 MSTORE PUSH1 0x5 PUSH1 0x20 MSTORE PUSH1 0x40 SWAP1 KECCAK256 SLOAD PUSH1 0xE0 SHL AND PUSH2 0x18E0 JUMPI PUSH1 0x5 PUSH1 0x20 MSTORE PUSH32 0xDE001AFD1F75281F9D2AB22D4E0166BE5A51DD890D7492E8FBF3E412E05EAC0A DUP1 SLOAD PUSH1 0x1 PUSH1 0x1 PUSH1 0xE0 SHL SUB NOT DUP4 AND PUSH1 0x0 SWAP1 DUP2 MSTORE PUSH1 0x40 DUP2 KECCAK256 DUP1 SLOAD PUSH4 0xFFFFFFFF SWAP1 SWAP4 AND PUSH4 0xFFFFFFFF NOT SWAP4 DUP5 AND OR SWAP1 SSTORE PUSH1 0x1 PUSH1 0xF8 SHL SWAP1 MSTORE DUP2 SLOAD PUSH1 0xE0 DUP5 SWAP1 SHR SWAP2 AND OR SWAP1 SSTORE POP JUMP JUMPDEST PUSH1 0x0 PUSH2 0x26AE DUP4 PUSH2 0x24C2 JUMP JUMPDEST PUSH1 0x1 PUSH1 0x1 PUSH1 0xE0 SHL SUB NOT DUP2 AND PUSH1 0x0 SWAP1 DUP2 MSTORE PUSH1 0x6 PUSH1 0x20 SWAP1 DUP2 MSTORE PUSH1 0x40 DUP1 DUP4 KECCAK256 DUP1 SLOAD PUSH1 0xFF NOT AND SWAP1 SSTORE PUSH1 0x7 DUP3 MSTORE SWAP1 SWAP2 KECCAK256 DUP5 MLOAD SWAP3 SWAP4 POP PUSH2 0x26EC SWAP3 SWAP1 SWAP2 DUP6 ADD SWAP1 PUSH2 0x2774 JUMP JUMPDEST POP PUSH2 0x195B DUP2 PUSH2 0x2618 JUMP JUMPDEST DUP3 DUP1 SLOAD PUSH1 0x1 DUP2 PUSH1 0x1 AND ISZERO PUSH2 0x100 MUL SUB AND PUSH1 0x2 SWAP1 DIV SWAP1 PUSH1 0x0 MSTORE PUSH1 0x20 PUSH1 0x0 KECCAK256 SWAP1 PUSH1 0x1F ADD PUSH1 0x20 SWAP1 DIV DUP2 ADD SWAP3 DUP3 PUSH1 0x1F LT PUSH2 0x2737 JUMPI DUP3 DUP1 ADD PUSH1 0xFF NOT DUP3 CALLDATALOAD AND OR DUP6 SSTORE PUSH2 0x2764 JUMP JUMPDEST DUP3 DUP1 ADD PUSH1 0x1 ADD DUP6 SSTORE DUP3 ISZERO PUSH2 0x2764 JUMPI SWAP2 DUP3 ADD JUMPDEST DUP3 DUP2 GT ISZERO PUSH2 0x2764 JUMPI DUP3 CALLDATALOAD DUP3 SSTORE SWAP2 PUSH1 0x20 ADD SWAP2 SWAP1 PUSH1 0x1 ADD SWAP1 PUSH2 0x2749 JUMP JUMPDEST POP PUSH2 0x2770 SWAP3 SWAP2 POP PUSH2 0x2857 JUMP JUMPDEST POP SWAP1 JUMP JUMPDEST DUP3 DUP1 SLOAD PUSH1 0x1 DUP2 PUSH1 0x1 AND ISZERO PUSH2 0x100 MUL SUB AND PUSH1 0x2 SWAP1 DIV SWAP1 PUSH1 0x0 MSTORE PUSH1 0x20 PUSH1 0x0 KECCAK256 SWAP1 PUSH1 0x1F ADD PUSH1 0x20 SWAP1 DIV DUP2 ADD SWAP3 DUP3 PUSH1 0x1F LT PUSH2 0x27B5 JUMPI DUP1 MLOAD PUSH1 0xFF NOT AND DUP4 DUP1 ADD OR DUP6 SSTORE PUSH2 0x2764 JUMP JUMPDEST DUP3 DUP1 ADD PUSH1 0x1 ADD DUP6 SSTORE DUP3 ISZERO PUSH2 0x2764 JUMPI SWAP2 DUP3 ADD JUMPDEST DUP3 DUP2 GT ISZERO PUSH2 0x2764 JUMPI DUP3 MLOAD DUP3 SSTORE SWAP2 PUSH1 0x20 ADD SWAP2 SWAP1 PUSH1 0x1 ADD SWAP1 PUSH2 0x27C7 JUMP JUMPDEST DUP3 DUP1 SLOAD PUSH1 0x1 DUP2 PUSH1 0x1 AND ISZERO PUSH2 0x100 MUL SUB AND PUSH1 0x2 SWAP1 DIV SWAP1 PUSH1 0x0 MSTORE PUSH1 0x20 PUSH1 0x0 KECCAK256 SWAP1 PUSH1 0x1F ADD PUSH1 0x20 SWAP1 DIV DUP2 ADD SWAP3 DUP3 PUSH1 0x1F LT PUSH2 0x281B JUMPI DUP1 SLOAD DUP6 SSTORE PUSH2 0x2764 JUMP JUMPDEST DUP3 DUP1 ADD PUSH1 0x1 ADD DUP6 SSTORE DUP3 ISZERO PUSH2 0x2764 JUMPI PUSH1 0x0 MSTORE PUSH1 0x20 PUSH1 0x0 KECCAK256 SWAP2 PUSH1 0x1F ADD PUSH1 0x20 SWAP1 DIV DUP3 ADD JUMPDEST DUP3 DUP2 GT ISZERO PUSH2 0x2764 JUMPI DUP3 SLOAD DUP3 SSTORE SWAP2 PUSH1 0x1 ADD SWAP2 SWAP1 PUSH1 0x1 ADD SWAP1 PUSH2 0x283C JUMP JUMPDEST PUSH2 0x14B2 SWAP2 SWAP1 JUMPDEST DUP1 DUP3 GT ISZERO PUSH2 0x2770 JUMPI PUSH1 0x0 DUP2 SSTORE PUSH1 0x1 ADD PUSH2 0x285D JUMP INVALID NUMBER PUSH2 0x6E20 PUSH16 0x6E6C792062652063616C6C6564206672 PUSH16 0x6D2074686520636F6E74726163742069 PUSH21 0x73656C66A2646970667358221220261E7FB94F8F23 0xDD 0xBD DUP3 0xD7 PUSH1 0xCF PUSH10 0xAA64A19D3F78354693CA PUSH15 0xEB00DE99C2D81A64736F6C63430006 MOD STOP CALLER "
        },
        "gasEstimates": {
          "creation": {
            "codeDepositCost": "2090000",
            "executionCost": "infinite",
            "totalCost": "infinite"
          },
          "external": {
            "": "infinite",
            "DEFAULT_FALLBACK_VALUE()": "infinite",
            "MOCKS_LIST_END()": "infinite",
            "MOCKS_LIST_END_HASH()": "310",
            "MOCKS_LIST_START()": "249",
            "SENTINEL_ANY_MOCKS()": "316",
            "givenAnyReturn(bytes)": "infinite",
            "givenAnyReturnAddress(address)": "infinite",
            "givenAnyReturnBool(bool)": "infinite",
            "givenAnyReturnUint(uint256)": "infinite",
            "givenAnyRevert()": "infinite",
            "givenAnyRevertWithMessage(string)": "infinite",
            "givenAnyRunOutOfGas()": "21058",
            "givenCalldataReturn(bytes,bytes)": "infinite",
            "givenCalldataReturnAddress(bytes,address)": "infinite",
            "givenCalldataReturnBool(bytes,bool)": "infinite",
            "givenCalldataReturnUint(bytes,uint256)": "infinite",
            "givenCalldataRevert(bytes)": "infinite",
            "givenCalldataRevertWithMessage(bytes,string)": "infinite",
            "givenCalldataRunOutOfGas(bytes)": "infinite",
            "givenMethodReturn(bytes,bytes)": "infinite",
            "givenMethodReturnAddress(bytes,address)": "infinite",
            "givenMethodReturnBool(bytes,bool)": "infinite",
            "givenMethodReturnUint(bytes,uint256)": "infinite",
            "givenMethodRevert(bytes)": "infinite",
            "givenMethodRevertWithMessage(bytes,string)": "infinite",
            "givenMethodRunOutOfGas(bytes)": "infinite",
            "invocationCount()": "1046",
            "invocationCountForCalldata(bytes)": "infinite",
            "invocationCountForMethod(bytes)": "infinite",
            "reset()": "infinite",
            "updateInvocationCount(bytes4,bytes)": "infinite"
          },
          "internal": {
            "_givenAnyReturn(bytes memory)": "infinite",
            "_givenCalldataReturn(bytes memory,bytes memory)": "infinite",
            "_givenMethodReturn(bytes memory,bytes memory)": "infinite",
            "bytesToBytes4(bytes memory)": "infinite",
            "trackCalldataMock(bytes memory)": "infinite",
            "trackMethodIdMock(bytes4)": "43512",
            "uintToBytes(uint256)": "infinite",
            "useAllGas()": "infinite"
          }
        },
        "methodIdentifiers": {
          "DEFAULT_FALLBACK_VALUE()": "122aea81",
          "MOCKS_LIST_END()": "7cd96ee4",
          "MOCKS_LIST_END_HASH()": "2ed238dc",
          "MOCKS_LIST_START()": "67aad04a",
          "SENTINEL_ANY_MOCKS()": "f07da229",
          "givenAnyReturn(bytes)": "d6fe9778",
          "givenAnyReturnAddress(address)": "682b4797",
          "givenAnyReturnBool(bool)": "36ff0ee5",
          "givenAnyReturnUint(uint256)": "af21ac78",
          "givenAnyRevert()": "e211b8a5",
          "givenAnyRevertWithMessage(string)": "87abab65",
          "givenAnyRunOutOfGas()": "3956dc6b",
          "givenCalldataReturn(bytes,bytes)": "61936594",
          "givenCalldataReturnAddress(bytes,address)": "b3901f29",
          "givenCalldataReturnBool(bytes,bool)": "5a3855ab",
          "givenCalldataReturnUint(bytes,uint256)": "d73ca0ac",
          "givenCalldataRevert(bytes)": "eb861f69",
          "givenCalldataRevertWithMessage(bytes,string)": "9eaeed75",
          "givenCalldataRunOutOfGas(bytes)": "21fed4d6",
          "givenMethodReturn(bytes,bytes)": "c6ee167f",
          "givenMethodReturnAddress(bytes,address)": "cf11ff5d",
          "givenMethodReturnBool(bytes,bool)": "6f400756",
          "givenMethodReturnUint(bytes,uint256)": "f5afa9c1",
          "givenMethodRevert(bytes)": "aa788c55",
          "givenMethodRevertWithMessage(bytes,string)": "9a1dc86b",
          "givenMethodRunOutOfGas(bytes)": "68ab6f2f",
          "invocationCount()": "0a20119f",
          "invocationCountForCalldata(bytes)": "586984a4",
          "invocationCountForMethod(bytes)": "4937c4f6",
          "reset()": "d826f88f",
          "updateInvocationCount(bytes4,bytes)": "58cbc025"
        }
      },
      "storageLayout": {
        "storage": [
          {
            "astId": 183,
            "contract": "@gnosis.pm/mock-contract/contracts/MockContract.sol:MockContract",
            "label": "calldataMocks",
            "offset": 0,
            "slot": "0",
            "type": "t_mapping(t_bytes32,t_bytes_storage)"
          },
          {
            "astId": 187,
            "contract": "@gnosis.pm/mock-contract/contracts/MockContract.sol:MockContract",
            "label": "calldataMockTypes",
            "offset": 0,
            "slot": "1",
            "type": "t_mapping(t_bytes_memory_ptr,t_enum(MockType)159)"
          },
          {
            "astId": 191,
            "contract": "@gnosis.pm/mock-contract/contracts/MockContract.sol:MockContract",
            "label": "calldataExpectations",
            "offset": 0,
            "slot": "2",
            "type": "t_mapping(t_bytes_memory_ptr,t_bytes_storage)"
          },
          {
            "astId": 195,
            "contract": "@gnosis.pm/mock-contract/contracts/MockContract.sol:MockContract",
            "label": "calldataRevertMessage",
            "offset": 0,
            "slot": "3",
            "type": "t_mapping(t_bytes_memory_ptr,t_string_storage)"
          },
          {
            "astId": 199,
            "contract": "@gnosis.pm/mock-contract/contracts/MockContract.sol:MockContract",
            "label": "calldataInvocations",
            "offset": 0,
            "slot": "4",
            "type": "t_mapping(t_bytes32,t_uint256)"
          },
          {
            "astId": 203,
            "contract": "@gnosis.pm/mock-contract/contracts/MockContract.sol:MockContract",
            "label": "methodIdMocks",
            "offset": 0,
            "slot": "5",
            "type": "t_mapping(t_bytes4,t_bytes4)"
          },
          {
            "astId": 207,
            "contract": "@gnosis.pm/mock-contract/contracts/MockContract.sol:MockContract",
            "label": "methodIdMockTypes",
            "offset": 0,
            "slot": "6",
            "type": "t_mapping(t_bytes4,t_enum(MockType)159)"
          },
          {
            "astId": 211,
            "contract": "@gnosis.pm/mock-contract/contracts/MockContract.sol:MockContract",
            "label": "methodIdExpectations",
            "offset": 0,
            "slot": "7",
            "type": "t_mapping(t_bytes4,t_bytes_storage)"
          },
          {
            "astId": 215,
            "contract": "@gnosis.pm/mock-contract/contracts/MockContract.sol:MockContract",
            "label": "methodIdRevertMessages",
            "offset": 0,
            "slot": "8",
            "type": "t_mapping(t_bytes4,t_string_storage)"
          },
          {
            "astId": 219,
            "contract": "@gnosis.pm/mock-contract/contracts/MockContract.sol:MockContract",
            "label": "methodIdInvocations",
            "offset": 0,
            "slot": "9",
            "type": "t_mapping(t_bytes32,t_uint256)"
          },
          {
            "astId": 221,
            "contract": "@gnosis.pm/mock-contract/contracts/MockContract.sol:MockContract",
            "label": "fallbackMockType",
            "offset": 0,
            "slot": "10",
            "type": "t_enum(MockType)159"
          },
          {
            "astId": 224,
            "contract": "@gnosis.pm/mock-contract/contracts/MockContract.sol:MockContract",
            "label": "fallbackExpectation",
            "offset": 0,
            "slot": "11",
            "type": "t_bytes_storage"
          },
          {
            "astId": 226,
            "contract": "@gnosis.pm/mock-contract/contracts/MockContract.sol:MockContract",
            "label": "fallbackRevertMessage",
            "offset": 0,
            "slot": "12",
            "type": "t_string_storage"
          },
          {
            "astId": 228,
            "contract": "@gnosis.pm/mock-contract/contracts/MockContract.sol:MockContract",
            "label": "invocations",
            "offset": 0,
            "slot": "13",
            "type": "t_uint256"
          },
          {
            "astId": 230,
            "contract": "@gnosis.pm/mock-contract/contracts/MockContract.sol:MockContract",
            "label": "resetCount",
            "offset": 0,
            "slot": "14",
            "type": "t_uint256"
          }
        ],
        "types": {
          "t_bytes32": {
            "encoding": "inplace",
            "label": "bytes32",
            "numberOfBytes": "32"
          },
          "t_bytes4": {
            "encoding": "inplace",
            "label": "bytes4",
            "numberOfBytes": "4"
          },
          "t_bytes_memory_ptr": {
            "encoding": "bytes",
            "label": "bytes",
            "numberOfBytes": "32"
          },
          "t_bytes_storage": {
            "encoding": "bytes",
            "label": "bytes",
            "numberOfBytes": "32"
          },
          "t_enum(MockType)159": {
            "encoding": "inplace",
            "label": "enum MockContract.MockType",
            "numberOfBytes": "1"
          },
          "t_mapping(t_bytes32,t_bytes_storage)": {
            "encoding": "mapping",
            "key": "t_bytes32",
            "label": "mapping(bytes32 => bytes)",
            "numberOfBytes": "32",
            "value": "t_bytes_storage"
          },
          "t_mapping(t_bytes32,t_uint256)": {
            "encoding": "mapping",
            "key": "t_bytes32",
            "label": "mapping(bytes32 => uint256)",
            "numberOfBytes": "32",
            "value": "t_uint256"
          },
          "t_mapping(t_bytes4,t_bytes4)": {
            "encoding": "mapping",
            "key": "t_bytes4",
            "label": "mapping(bytes4 => bytes4)",
            "numberOfBytes": "32",
            "value": "t_bytes4"
          },
          "t_mapping(t_bytes4,t_bytes_storage)": {
            "encoding": "mapping",
            "key": "t_bytes4",
            "label": "mapping(bytes4 => bytes)",
            "numberOfBytes": "32",
            "value": "t_bytes_storage"
          },
          "t_mapping(t_bytes4,t_enum(MockType)159)": {
            "encoding": "mapping",
            "key": "t_bytes4",
            "label": "mapping(bytes4 => enum MockContract.MockType)",
            "numberOfBytes": "32",
            "value": "t_enum(MockType)159"
          },
          "t_mapping(t_bytes4,t_string_storage)": {
            "encoding": "mapping",
            "key": "t_bytes4",
            "label": "mapping(bytes4 => string)",
            "numberOfBytes": "32",
            "value": "t_string_storage"
          },
          "t_mapping(t_bytes_memory_ptr,t_bytes_storage)": {
            "encoding": "mapping",
            "key": "t_bytes_memory_ptr",
            "label": "mapping(bytes => bytes)",
            "numberOfBytes": "32",
            "value": "t_bytes_storage"
          },
          "t_mapping(t_bytes_memory_ptr,t_enum(MockType)159)": {
            "encoding": "mapping",
            "key": "t_bytes_memory_ptr",
            "label": "mapping(bytes => enum MockContract.MockType)",
            "numberOfBytes": "32",
            "value": "t_enum(MockType)159"
          },
          "t_mapping(t_bytes_memory_ptr,t_string_storage)": {
            "encoding": "mapping",
            "key": "t_bytes_memory_ptr",
            "label": "mapping(bytes => string)",
            "numberOfBytes": "32",
            "value": "t_string_storage"
          },
          "t_string_storage": {
            "encoding": "bytes",
            "label": "string",
            "numberOfBytes": "32"
          },
          "t_uint256": {
            "encoding": "inplace",
            "label": "uint256",
            "numberOfBytes": "32"
          }
        }
      },
      "userdoc": {
        "methods": {},
        "notice": "Implementation of the MockInterface."
      }
    }
  }
}