{
  "third_party/safe-contracts/contracts/test/TestHandler.sol": {
    "TestHandler": {
      "abi": [
        {
          "inputs": [],
          "name": "dudududu",
          "outputs": [
            {
              "internalType": "address",
              "name": "sender",
              "type": "address"
            },
            {
              "internalType": "address",
              "name": "manager",
              "type": "address"
            }
          ],
          "stateMutability": "view",
          "type": "function"
        }
      ],
      "evm": {
        "bytecode": {
          "linkReferences": {},
          "object": "6080604052348015600f57600080fd5b5060cc8061001e6000396000f3fe6080604052348015600f57600080fd5b506004361060285760003560e01c806354955e5914602d575b600080fd5b60336048565b604051603f929190606f565b60405180910390f35b6000806051605f565b6057606b565b915091509091565b60131936013560601c90565b3390565b73ffffffffffffffffffffffffffffffffffffffff9283168152911660208201526040019056fea264697066735822122022d360269f64a48cac8c94923055df3dcebd6efd4819bbea5dda123042c8d60564736f6c63430008000033",
          "opcodes": "PUSH1 0x80 PUSH1 0x40 MSTORE CALLVALUE DUP1 ISZERO PUSH1 0xF JUMPI PUSH1 0x0 DUP1 REVERT JUMPDEST POP PUSH1 0xCC DUP1 PUSH2 0x1E PUSH1 0x0 CODECOPY PUSH1 0x0 RETURN INVALID PUSH1 0x80 PUSH1 0x40 MSTORE CALLVALUE DUP1 ISZERO PUSH1 0xF JUMPI PUSH1 0x0 DUP1 REVERT JUMPDEST POP PUSH1 0x4 CALLDATASIZE LT PUSH1 0x28 JUMPI PUSH1 0x0 CALLDATALOAD PUSH1 0xE0 SHR DUP1 PUSH4 0x54955E59 EQ PUSH1 0x2D JUMPI JUMPDEST PUSH1 0x0 DUP1 REVERT JUMPDEST PUSH1 0x33 PUSH1 0x48 JUMP JUMPDEST PUSH1 0x40 MLOAD PUSH1 0x3F SWAP3 SWAP2 SWAP1 PUSH1 0x6F JUMP JUMPDEST PUSH1 0x40 MLOAD DUP1 SWAP2 SUB SWAP1 RETURN JUMPDEST PUSH1 0x0 DUP1 PUSH1 0x51 PUSH1 0x5F JUMP JUMPDEST PUSH1 0x57 PUSH1 0x6B JUMP JUMPDEST SWAP2 POP SWAP2 POP SWAP1 SWAP2 JUMP JUMPDEST PUSH1 0x13 NOT CALLDATASIZE ADD CALLDATALOAD PUSH1 0x60 SHR SWAP1 JUMP JUMPDEST CALLER SWAP1 JUMP JUMPDEST PUSH20 0xFFFFFFFFFFFFFFFFFFFFFFFFFFFFFFFFFFFFFFFF SWAP3 DUP4 AND DUP2 MSTORE SWAP2 AND PUSH1 0x20 DUP3 ADD MSTORE PUSH1 0x40 ADD SWAP1 JUMP INVALID LOG2 PUSH5 0x6970667358 0x22 SLT KECCAK256 0x22 0xD3 PUSH1 0x26 SWAP16 PUSH5 0xA48CAC8C94 SWAP3 ADDRESS SSTORE 0xDF RETURNDATASIZE 0xCE 0xBD PUSH15 0xFD4819BBEA5DDA123042C8D6056473 PUSH16 0x6C634300080000330000000000000000 "
        },
        "methodIdentifiers": {
          "dudududu()": "54955e59"
        }
      }
    }
  }
}