{
  "_format": "hh-sol-artifact-1",
  "contractName": "StorageAccessible",
  "sourceName": "third_party/safe-contracts/contracts/common/StorageAccessible.sol",
  "abi": [
    {
      "inputs": [
        {
          "internalType": "uint256",
          "name": "offset",
          "type": "uint256"
        },
        {
          "internalType": "uint256",
          "name": "length",
          "type": "uint256"
        }
      ],
      "name": "getStorageAt",
      "outputs": [
        {
          "internalType": "bytes",
          "name": "",
          "type": "bytes"
        }
      ],
      "stateMutability": "view",
      "type": "function"
    },
    {
      "inputs": [
        {
          "internalType": "address",
          "name": "targetContract",
          "type": "address"
        },
        {
          "internalType": "bytes",
          "name": "calldataPayload",
          "type": "bytes"
        }
      ],
      "name": "simulateAndRevert",
      "outputs": [],
      "stateMutability": "nonpayable",
      "type": "function"
    }
  ],
  "bytecode": "0x608060405234801561001057600080fd5b5061030e806100206000396000f3fe608060405234801561001057600080fd5b50600436106100365760003560e01c80635624b25b1461003b578063b4faba0914610064575b600080fd5b61004e6100493660046101fe565b610079565b60405161005b919061021f565b60405180910390f35b610077610072366004610130565b61010d565b005b60606000610088836020610272565b67ffffffffffffffff8111156100ae57634e487b7160e01b600052604160045260246000fd5b6040519080825280601f01601f1916602001820160405280156100d8576020820181803683370190505b50905060005b838110156101055784810154602080830284010152806100fd81610291565b9150506100de565b509392505050565b600080825160208401855af480600052503d6020523d600060403e60403d016000fd5b60008060408385031215610142578182fd5b823573ffffffffffffffffffffffffffffffffffffffff81168114610165578283fd5b915060208381013567ffffffffffffffff80821115610182578384fd5b818601915086601f830112610195578384fd5b8135818111156101a7576101a76102c2565b604051601f8201601f19168101850183811182821017156101ca576101ca6102c2565b60405281815283820185018910156101e0578586fd5b81858501868301378585838301015280955050505050509250929050565b60008060408385031215610210578182fd5b50508035926020909101359150565b6000602080835283518082850152825b8181101561024b5785810183015185820160400152820161022f565b8181111561025c5783604083870101525b50601f01601f1916929092016040019392505050565b600081600019048311821515161561028c5761028c6102ac565b500290565b60006000198214156102a5576102a56102ac565b5060010190565b634e487b7160e01b600052601160045260246000fd5b634e487b7160e01b600052604160045260246000fdfea264697066735822122083aee57d3d63363b1866b664973c03fced57dd6d4a3802a9ffcefee7d305491a64736f6c63430008000033",
  "linkReferences": {},
  "deployedLinkReferences": {}
}