{
  "_format": "hh-sol-artifact-1",
  "contractName": "UniswapV2Migrator",
  "sourceName": "third_party/v2-periphery/contracts/UniswapV2Migrator.sol",
  "abi": [
    {
      "inputs": [
        {
          "internalType": "address",
          "name": "_factoryV1",
          "type": "address"
        },
        {
          "internalType": "address",
          "name": "_router",
          "type": "address"
        }
      ],
      "stateMutability": "nonpayable",
      "type": "constructor"
    },
    {
      "inputs": [
        {
          "internalType": "address",
          "name": "token",
          "type": "address"
        },
        {
          "internalType": "uint256",
          "name": "amountTokenMin",
          "type": "uint256"
        },
        {
          "internalType": "uint256",
          "name": "amountETHMin",
          "type": "uint256"
        },
        {
          "internalType": "address",
          "name": "to",
          "type": "address"
        },
        {
          "internalType": "uint256",
          "name": "deadline",
          "type": "uint256"
        }
      ],
      "name": "migrate",
      "outputs": [],
      "stateMutability": "nonpayable",
      "type": "function"
    },
    {
      "stateMutability": "payable",
      "type": "receive"
    }
  ],
  "bytecode": "0x60c060405234801561001057600080fd5b50604051610a0d380380610a0d8339818101604052604081101561003357600080fd5b5080516020909101516001600160601b0319606092831b8116608052911b1660a05260805160601c60a05160601c6109866100876000398061035b52806103e45280610476525080608352506109866000f3fe6080604052600436106100225760003560e01c8063b7df1d251461002e57610029565b3661002957005b600080fd5b34801561003a57600080fd5b5061007d600480360360a081101561005157600080fd5b506001600160a01b0381358116916020810135916040820135916060810135909116906080013561007f565b005b60007f00000000000000000000000000000000000000000000000000000000000000006001600160a01b03166306f2bf62876040518263ffffffff1660e01b815260040180826001600160a01b03166001600160a01b0316815260200191505060206040518083038186803b1580156100f757600080fd5b505afa15801561010b573d6000803e3d6000fd5b505050506040513d602081101561012157600080fd5b5051604080517f70a0823100000000000000000000000000000000000000000000000000000000815233600482015290519192506000916001600160a01b038416916370a08231916024808301926020929190829003018186803b15801561018857600080fd5b505afa15801561019c573d6000803e3d6000fd5b505050506040513d60208110156101b257600080fd5b5051604080517f23b872dd0000000000000000000000000000000000000000000000000000000081523360048201523060248201526044810183905290519192506001600160a01b038416916323b872dd916064808201926020929091908290030181600087803b15801561022657600080fd5b505af115801561023a573d6000803e3d6000fd5b505050506040513d602081101561025057600080fd5b50516102a3576040805162461bcd60e51b815260206004820152601460248201527f5452414e534645525f46524f4d5f4641494c4544000000000000000000000000604482015290519081900360640190fd5b604080517ff88bf15a0000000000000000000000000000000000000000000000000000000081526004810183905260016024820181905260448201526000196064820152815160009283926001600160a01b0387169263f88bf15a9260848084019391929182900301818787803b15801561031d57600080fd5b505af1158015610331573d6000803e3d6000fd5b505050506040513d604081101561034757600080fd5b5080516020909101519092509050610380897f0000000000000000000000000000000000000000000000000000000000000000836104cf565b604080517ff305d7190000000000000000000000000000000000000000000000000000000081526001600160a01b038b8116600483015260248201849052604482018b9052606482018a9052888116608483015260a48201889052915160009283927f00000000000000000000000000000000000000000000000000000000000000009091169163f305d71991879160c480830192606092919082900301818588803b15801561042f57600080fd5b505af1158015610443573d6000803e3d6000fd5b50505050506040513d606081101561045a57600080fd5b5080516020909101519092509050818311156104ae5761049c8b7f000000000000000000000000000000000000000000000000000000000000000060006104cf565b6104a98b33848603610651565b6104c2565b808411156104c2576104c2338286036107cc565b5050505050505050505050565b604080516001600160a01b038481166024830152604480830185905283518084039091018152606490920183526020820180517bffffffffffffffffffffffffffffffffffffffffffffffffffffffff167f095ea7b300000000000000000000000000000000000000000000000000000000178152925182516000946060949389169392918291908083835b6020831061057a5780518252601f19909201916020918201910161055b565b6001836020036101000a0380198251168184511680821785525050505050509050019150506000604051808303816000865af19150503d80600081146105dc576040519150601f19603f3d011682016040523d82523d6000602084013e6105e1565b606091505b509150915081801561060f57508051158061060f575080806020019051602081101561060c57600080fd5b50515b61064a5760405162461bcd60e51b815260040180806020018281038252602b8152602001806108f9602b913960400191505060405180910390fd5b5050505050565b604080516001600160a01b038481166024830152604480830185905283518084039091018152606490920183526020820180517bffffffffffffffffffffffffffffffffffffffffffffffffffffffff167fa9059cbb00000000000000000000000000000000000000000000000000000000178152925182516000946060949389169392918291908083835b602083106106fc5780518252601f1990920191602091820191016106dd565b6001836020036101000a0380198251168184511680821785525050505050509050019150506000604051808303816000865af19150503d806000811461075e576040519150601f19603f3d011682016040523d82523d6000602084013e610763565b606091505b5091509150818015610791575080511580610791575080806020019051602081101561078e57600080fd5b50515b61064a5760405162461bcd60e51b815260040180806020018281038252602d815260200180610924602d913960400191505060405180910390fd5b604080516000808252602082019092526001600160a01b0384169083906040518082805190602001908083835b602083106108185780518252601f1990920191602091820191016107f9565b6001836020036101000a03801982511681845116808217855250505050505090500191505060006040518083038185875af1925050503d806000811461087a576040519150601f19603f3d011682016040523d82523d6000602084013e61087f565b606091505b50509050806108bf5760405162461bcd60e51b81526004018080602001828103825260348152602001806108c56034913960400191505060405180910390fd5b50505056fe5472616e7366657248656c7065723a3a736166655472616e736665724554483a20455448207472616e73666572206661696c65645472616e7366657248656c7065723a3a73616665417070726f76653a20617070726f7665206661696c65645472616e7366657248656c7065723a3a736166655472616e736665723a207472616e73666572206661696c6564a26469706673582212208fd150b3b9c226499686d2c061707efa47541712d94c83fabb25763d8ec7d46264736f6c63430006060033",
  "linkReferences": {},
  "deployedLinkReferences": {}
}