{
  "_format": "hh-sol-artifact-1",
  "contractName": "CompatibilityFallbackHandler",
  "sourceName": "third_party/safe-contracts/contracts/handler/CompatibilityFallbackHandler.sol",
  "abi": [
    {
      "inputs": [],
      "name": "NAME",
      "outputs": [
        {
          "internalType": "string",
          "name": "",
          "type": "string"
        }
      ],
      "stateMutability": "view",
      "type": "function"
    },
    {
      "inputs": [],
      "name": "VERSION",
      "outputs": [
        {
          "internalType": "string",
          "name": "",
          "type": "string"
        }
      ],
      "stateMutability": "view",
      "type": "function"
    },
    {
      "inputs": [
        {
          "internalType": "bytes",
          "name": "message",
          "type": "bytes"
        }
      ],
      "name": "getMessageHash",
      "outputs": [
        {
          "internalType": "bytes32",
          "name": "",
          "type": "bytes32"
        }
      ],
      "stateMutability": "view",
      "type": "function"
    },
    {
      "inputs": [
        {
          "internalType": "contract GnosisSafe",
          "name": "safe",
          "type": "address"
        },
        {
          "internalType": "bytes",
          "name": "message",
          "type": "bytes"
        }
      ],
      "name": "getMessageHashForSafe",
      "outputs": [
        {
          "internalType": "bytes32",
          "name": "",
          "type": "bytes32"
        }
      ],
      "stateMutability": "view",
      "type": "function"
    },
    {
      "inputs": [],
      "name": "getModules",
      "outputs": [
        {
          "internalType": "address[]",
          "name": "",
          "type": "address[]"
        }
      ],
      "stateMutability": "view",
      "type": "function"
    },
    {
      "inputs": [
        {
          "internalType": "bytes32",
          "name": "_dataHash",
          "type": "bytes32"
        },
        {
          "internalType": "bytes",
          "name": "_signature",
          "type": "bytes"
        }
      ],
      "name": "isValidSignature",
      "outputs": [
        {
          "internalType": "bytes4",
          "name": "",
          "type": "bytes4"
        }
      ],
      "stateMutability": "view",
      "type": "function"
    },
    {
      "inputs": [
        {
          "internalType": "bytes",
          "name": "_data",
          "type": "bytes"
        },
        {
          "internalType": "bytes",
          "name": "_signature",
          "type": "bytes"
        }
      ],
      "name": "isValidSignature",
      "outputs": [
        {
          "internalType": "bytes4",
          "name": "",
          "type": "bytes4"
        }
      ],
      "stateMutability": "view",
      "type": "function"
    },
    {
      "inputs": [
        {
          "internalType": "address",
          "name": "",
          "type": "address"
        },
        {
          "internalType": "address",
          "name": "",
          "type": "address"
        },
        {
          "internalType": "uint256[]",
          "name": "",
          "type": "uint256[]"
        },
        {
          "internalType": "uint256[]",
          "name": "",
          "type": "uint256[]"
        },
        {
          "internalType": "bytes",
          "name": "",
          "type": "bytes"
        }
      ],
      "name": "onERC1155BatchReceived",
      "outputs": [
        {
          "internalType": "bytes4",
          "name": "",
          "type": "bytes4"
        }
      ],
      "stateMutability": "pure",
      "type": "function"
    },
    {
      "inputs": [
        {
          "internalType": "address",
          "name": "",
          "type": "address"
        },
        {
          "internalType": "address",
          "name": "",
          "type": "address"
        },
        {
          "internalType": "uint256",
          "name": "",
          "type": "uint256"
        },
        {
          "internalType": "uint256",
          "name": "",
          "type": "uint256"
        },
        {
          "internalType": "bytes",
          "name": "",
          "type": "bytes"
        }
      ],
      "name": "onERC1155Received",
      "outputs": [
        {
          "internalType": "bytes4",
          "name": "",
          "type": "bytes4"
        }
      ],
      "stateMutability": "pure",
      "type": "function"
    },
    {
      "inputs": [
        {
          "internalType": "address",
          "name": "",
          "type": "address"
        },
        {
          "internalType": "address",
          "name": "",
          "type": "address"
        },
        {
          "internalType": "uint256",
          "name": "",
          "type": "uint256"
        },
        {
          "internalType": "bytes",
          "name": "",
          "type": "bytes"
        }
      ],
      "name": "onERC721Received",
      "outputs": [
        {
          "internalType": "bytes4",
          "name": "",
          "type": "bytes4"
        }
      ],
      "stateMutability": "pure",
      "type": "function"
    },
    {
      "inputs": [
        {
          "internalType": "address",
          "name": "targetContract",
          "type": "address"
        },
        {
          "internalType": "bytes",
          "name": "calldataPayload",
          "type": "bytes"
        }
      ],
      "name": "simulate",
      "outputs": [
        {
          "internalType": "bytes",
          "name": "response",
          "type": "bytes"
        }
      ],
      "stateMutability": "nonpayable",
      "type": "function"
    },
    {
      "inputs": [
        {
          "internalType": "bytes4",
          "name": "interfaceId",
          "type": "bytes4"
        }
      ],
      "name": "supportsInterface",
      "outputs": [
        {
          "internalType": "bool",
          "name": "",
          "type": "bool"
        }
      ],
      "stateMutability": "view",
      "type": "function"
    },
    {
      "inputs": [
        {
          "internalType": "address",
          "name": "",
          "type": "address"
        },
        {
          "internalType": "address",
          "name": "",
          "type": "address"
        },
        {
          "internalType": "address",
          "name": "",
          "type": "address"
        },
        {
          "internalType": "uint256",
          "name": "",
          "type": "uint256"
        },
        {
          "internalType": "bytes",
          "name": "",
          "type": "bytes"
        },
        {
          "internalType": "bytes",
          "name": "",
          "type": "bytes"
        }
      ],
      "name": "tokensReceived",
      "outputs": [],
      "stateMutability": "pure",
      "type": "function"
    }
  ],
  "bytecode": "0x608060405234801561001057600080fd5b506110b9806100206000396000f3fe608060405234801561001057600080fd5b50600436106100de5760003560e01c80636ac247841161008c578063bc197c8111610066578063bc197c81146101c4578063bd61951d146101d7578063f23a6e61146101ea578063ffa1ad74146101fd576100de565b80636ac2478414610187578063a3f4df7e1461019a578063b2494df3146101af576100de565b8063150b7a02116100bd578063150b7a02146101415780631626ba7e1461016157806320c13b0b14610174576100de565b806223de29146100e357806301ffc9a7146100f85780630a1028c414610121575b600080fd5b6100f66100f1366004610937565b610205565b005b61010b610106366004610ccb565b61020f565b6040516101189190610f12565b60405180910390f35b61013461012f366004610d6c565b610295565b6040516101189190610f1d565b61015461014f366004610a7f565b6102a1565b6040516101189190610f6d565b61015461016f366004610c9a565b6102b2565b610154610182366004610d03565b6103a8565b610134610195366004610da7565b610561565b6101a2610667565b6040516101189190610f82565b6101b76106a0565b6040516101189190610ec5565b6101546101d23660046109e5565b610744565b6101a26101e5366004610b6a565b610771565b6101546101f8366004610af0565b6107d4565b6101a26107ff565b5050505050505050565b60006001600160e01b031982167f4e2312e000000000000000000000000000000000000000000000000000000000148061025957506001600160e01b03198216630a85bd0160e11b145b8061028d57506001600160e01b031982167f01ffc9a700000000000000000000000000000000000000000000000000000000145b90505b919050565b600061028d3383610561565b630a85bd0160e11b95945050505050565b6000803390506000816001600160a01b03166320c13b0b876040516020016102da9190610f1d565b60405160208183030381529060405287876040518463ffffffff1660e01b815260040161030993929190610f95565b60206040518083038186803b15801561032157600080fd5b505afa158015610335573d6000803e3d6000fd5b505050506040513d601f19601f820116820180604052508101906103599190610ce7565b90506001600160e01b031981166320c13b0b60e01b1461037a57600061039c565b7f1626ba7e000000000000000000000000000000000000000000000000000000005b925050505b9392505050565b60008033905060006103f08288888080601f01602080910402602001604051908101604052809392919081815260200183838082843760009201919091525061056192505050565b9050836104d0576040517f5ae6bd370000000000000000000000000000000000000000000000000000000081526001600160a01b03831690635ae6bd379061043c908490600401610f1d565b60206040518083038186803b15801561045457600080fd5b505afa158015610468573d6000803e3d6000fd5b505050506040513d601f19601f8201168201806040525081019061048c9190610c82565b6104cb576040517f08c379a00000000000000000000000000000000000000000000000000000000081526004016104c290610fc5565b60405180910390fd5b61054e565b6040517f934f3a110000000000000000000000000000000000000000000000000000000081526001600160a01b0383169063934f3a119061051d9084908b908b908b908b90600401610f34565b60006040518083038186803b15801561053557600080fd5b505afa158015610549573d6000803e3d6000fd5b505050505b506320c13b0b60e01b9695505050505050565b6000807f60b3cbf8b4a223d68d641b3b6ddf9a298e7f33710cf3d3a9d1146b5a6150fbca60001b83805190602001206040516020016105a1929190610f26565b604051602081830303815290604052805190602001209050601960f81b600160f81b856001600160a01b031663f698da256040518163ffffffff1660e01b815260040160206040518083038186803b1580156105fc57600080fd5b505afa158015610610573d6000803e3d6000fd5b505050506040513d601f19601f820116820180604052508101906106349190610c82565b836040516020016106489493929190610e6a565b6040516020818303038152906040528051906020012091505092915050565b6040518060400160405280601881526020017f44656661756c742043616c6c6261636b2048616e646c6572000000000000000081525081565b6040517fcc2f84520000000000000000000000000000000000000000000000000000000081526060903390600090829063cc2f8452906106e890600190600a90600401610eac565b60006040518083038186803b15801561070057600080fd5b505afa158015610714573d6000803e3d6000fd5b505050506040513d6000823e601f3d908101601f1916820160405261073c9190810190610bbd565b509250505090565b7fbc197c810000000000000000000000000000000000000000000000000000000098975050505050505050565b60606040517fb4faba09000000000000000000000000000000000000000000000000000000008152600436036004808301376020600036836000335af1505060203d036040519150808201604052806020833e506000516103a157805160208201fd5b7ff23a6e61000000000000000000000000000000000000000000000000000000009695505050505050565b6040518060400160405280600581526020017f312e302e3000000000000000000000000000000000000000000000000000000081525081565b805161029081611055565b60008083601f840112610854578182fd5b50813567ffffffffffffffff81111561086b578182fd5b602083019150836020808302850101111561088557600080fd5b9250929050565b60008083601f84011261089d578182fd5b50813567ffffffffffffffff8111156108b4578182fd5b60208301915083602082850101111561088557600080fd5b600082601f8301126108dc578081fd5b813567ffffffffffffffff8111156108f6576108f6611026565b610909601f8201601f1916602001610ffc565b81815284602083860101111561091d578283fd5b816020850160208301379081016020019190915292915050565b60008060008060008060008060c0898b031215610952578384fd5b883561095d81611055565b9750602089013561096d81611055565b9650604089013561097d81611055565b955060608901359450608089013567ffffffffffffffff808211156109a0578586fd5b6109ac8c838d0161088c565b909650945060a08b01359150808211156109c4578384fd5b506109d18b828c0161088c565b999c989b5096995094979396929594505050565b60008060008060008060008060a0898b031215610a00578384fd5b8835610a0b81611055565b97506020890135610a1b81611055565b9650604089013567ffffffffffffffff80821115610a37578586fd5b610a438c838d01610843565b909850965060608b0135915080821115610a5b578586fd5b610a678c838d01610843565b909650945060808b01359150808211156109c4578384fd5b600080600080600060808688031215610a96578081fd5b8535610aa181611055565b94506020860135610ab181611055565b935060408601359250606086013567ffffffffffffffff811115610ad3578182fd5b610adf8882890161088c565b969995985093965092949392505050565b60008060008060008060a08789031215610b08578182fd5b8635610b1381611055565b95506020870135610b2381611055565b94506040870135935060608701359250608087013567ffffffffffffffff811115610b4c578283fd5b610b5889828a0161088c565b979a9699509497509295939492505050565b600080600060408486031215610b7e578283fd5b8335610b8981611055565b9250602084013567ffffffffffffffff811115610ba4578283fd5b610bb08682870161088c565b9497909650939450505050565b60008060408385031215610bcf578182fd5b825167ffffffffffffffff80821115610be6578384fd5b818501915085601f830112610bf9578384fd5b8151602082821115610c0d57610c0d611026565b8082029250610c1d818401610ffc565b8281528181019085830185870184018b1015610c37578889fd5b8896505b84871015610c655780519550610c5086611055565b85835260019690960195918301918301610c3b565b509650610c759050878201610838565b9450505050509250929050565b600060208284031215610c93578081fd5b5051919050565b600080600060408486031215610cae578081fd5b83359250602084013567ffffffffffffffff811115610ba4578182fd5b600060208284031215610cdc578081fd5b81356103a18161106d565b600060208284031215610cf8578081fd5b81516103a18161106d565b60008060008060408587031215610d18578182fd5b843567ffffffffffffffff80821115610d2f578384fd5b610d3b8883890161088c565b90965094506020870135915080821115610d53578384fd5b50610d608782880161088c565b95989497509550505050565b600060208284031215610d7d578081fd5b813567ffffffffffffffff811115610d93578182fd5b610d9f848285016108cc565b949350505050565b60008060408385031215610db9578182fd5b8235610dc481611055565b9150602083013567ffffffffffffffff811115610ddf578182fd5b610deb858286016108cc565b9150509250929050565b60008284528282602086013780602084860101526020601f19601f85011685010190509392505050565b60008151808452815b81811015610e4457602081850181015186830182015201610e28565b81811115610e555782602083870101525b50601f01601f19169290920160200192915050565b7fff0000000000000000000000000000000000000000000000000000000000000094851681529290931660018301526002820152602281019190915260420190565b6001600160a01b03929092168252602082015260400190565b6020808252825182820181905260009190848201906040850190845b81811015610f065783516001600160a01b031683529284019291840191600101610ee1565b50909695505050505050565b901515815260200190565b90815260200190565b918252602082015260400190565b600086825260606020830152610f4e606083018688610df5565b8281036040840152610f61818587610df5565b98975050505050505050565b6001600160e01b031991909116815260200190565b6000602082526103a16020830184610e1f565b600060408252610fa86040830186610e1f565b8281036020840152610fbb818587610df5565b9695505050505050565b60208082526011908201527f48617368206e6f7420617070726f766564000000000000000000000000000000604082015260600190565b60405181810167ffffffffffffffff8111828210171561101e5761101e611026565b604052919050565b7f4e487b7100000000000000000000000000000000000000000000000000000000600052604160045260246000fd5b6001600160a01b038116811461106a57600080fd5b50565b6001600160e01b03198116811461106a57600080fdfea2646970667358221220d7964a9f989e7c45220c96d8202e5327e1032b34c861a199791a098620cec5a264736f6c63430008000033",
  "linkReferences": {},
  "deployedLinkReferences": {}
}