{
  "_format": "hh-sol-artifact-1",
  "contractName": "Migration",
  "sourceName": "third_party/safe-contracts/contracts/examples/libraries/Migrate_1_3_0_to_1_2_0.sol",
  "abi": [
    {
      "inputs": [
        {
          "internalType": "address",
          "name": "targetSingleton",
          "type": "address"
        }
      ],
      "stateMutability": "nonpayable",
      "type": "constructor"
    },
    {
      "anonymous": false,
      "inputs": [
        {
          "indexed": false,
          "internalType": "address",
          "name": "singleton",
          "type": "address"
        }
      ],
      "name": "ChangedMasterCopy",
      "type": "event"
    },
    {
      "inputs": [],
      "name": "migrate",
      "outputs": [],
      "stateMutability": "nonpayable",
      "type": "function"
    },
    {
      "inputs": [],
      "name": "migrationSingleton",
      "outputs": [
        {
          "internalType": "address",
          "name": "",
          "type": "address"
        }
      ],
      "stateMutability": "view",
      "type": "function"
    },
    {
      "inputs": [],
      "name": "safe120Singleton",
      "outputs": [
        {
          "internalType": "address",
          "name": "",
          "type": "address"
        }
      ],
      "stateMutability": "view",
      "type": "function"
    }
  ],
  "bytecode": "0x60c060405234801561001057600080fd5b506040516103943803806103948339818101604052602081101561003357600080fd5b50516001600160a01b03811661007a5760405162461bcd60e51b81526004018080602001828103825260228152602001806103726022913960400191505060405180910390fd5b606081811b6001600160601b03191660a052309081901b608052906001600160a01b03166102b06100c26000398060af528061017b525080608b528060e952506102b06000f3fe608060405234801561001057600080fd5b50600436106100415760003560e01c80632e7731851461004657806389f54308146100775780638fd3ab801461007f575b600080fd5b61004e610089565b6040805173ffffffffffffffffffffffffffffffffffffffff9092168252519081900360200190f35b61004e6100ad565b6100876100d1565b005b7f000000000000000000000000000000000000000000000000000000000000000081565b7f000000000000000000000000000000000000000000000000000000000000000081565b3073ffffffffffffffffffffffffffffffffffffffff7f0000000000000000000000000000000000000000000000000000000000000000161415610160576040517f08c379a000000000000000000000000000000000000000000000000000000000815260040180806020018281038252603081526020018061024b6030913960400191505060405180910390fd5b6000805473ffffffffffffffffffffffffffffffffffffffff7f000000000000000000000000000000000000000000000000000000000000000081167fffffffffffffffffffffffff00000000000000000000000000000000000000009092169190911791829055604080517f035aff83d86937d35b32e04f0ddc6ff469290eef2f1b692d8a815c89404d4749602080830191909152308284015282518083038401815260608301808552815191909201206006559390921690925290517f75e41bc35ff1bf14d81d1d2f649c0084a0f974f9289c803ec9898eeec4c8d0b89181900360800190a156fe4d6967726174696f6e2073686f756c64206f6e6c792062652063616c6c6564207669612064656c656761746563616c6ca2646970667358221220f36341cb174275943ff2f6faefc7d2b7aec0a5d5e4923a0f12dd530a5ebd73c164736f6c63430007010033496e76616c69642073696e676c65746f6e20616464726573732070726f7669646564",
  "linkReferences": {},
  "deployedLinkReferences": {}
}