{
  "_format": "hh-sol-artifact-1",
  "contractName": "DelegateCallTransactionGuard",
  "sourceName": "third_party/safe-contracts/contracts/examples/guards/DelegateCallTransactionGuard.sol",
  "abi": [
    {
      "inputs": [
        {
          "internalType": "address",
          "name": "target",
          "type": "address"
        }
      ],
      "stateMutability": "nonpayable",
      "type": "constructor"
    },
    {
      "stateMutability": "nonpayable",
      "type": "fallback"
    },
    {
      "inputs": [],
      "name": "allowedTarget",
      "outputs": [
        {
          "internalType": "address",
          "name": "",
          "type": "address"
        }
      ],
      "stateMutability": "view",
      "type": "function"
    },
    {
      "inputs": [
        {
          "internalType": "bytes32",
          "name": "",
          "type": "bytes32"
        },
        {
          "internalType": "bool",
          "name": "",
          "type": "bool"
        }
      ],
      "name": "checkAfterExecution",
      "outputs": [],
      "stateMutability": "view",
      "type": "function"
    },
    {
      "inputs": [
        {
          "internalType": "address",
          "name": "to",
          "type": "address"
        },
        {
          "internalType": "uint256",
          "name": "",
          "type": "uint256"
        },
        {
          "internalType": "bytes",
          "name": "",
          "type": "bytes"
        },
        {
          "internalType": "enum Enum.Operation",
          "name": "operation",
          "type": "uint8"
        },
        {
          "internalType": "uint256",
          "name": "",
          "type": "uint256"
        },
        {
          "internalType": "uint256",
          "name": "",
          "type": "uint256"
        },
        {
          "internalType": "uint256",
          "name": "",
          "type": "uint256"
        },
        {
          "internalType": "address",
          "name": "",
          "type": "address"
        },
        {
          "internalType": "address payable",
          "name": "",
          "type": "address"
        },
        {
          "internalType": "bytes",
          "name": "",
          "type": "bytes"
        },
        {
          "internalType": "address",
          "name": "",
          "type": "address"
        }
      ],
      "name": "checkTransaction",
      "outputs": [],
      "stateMutability": "view",
      "type": "function"
    },
    {
      "inputs": [
        {
          "internalType": "bytes4",
          "name": "interfaceId",
          "type": "bytes4"
        }
      ],
      "name": "supportsInterface",
      "outputs": [
        {
          "internalType": "bool",
          "name": "",
          "type": "bool"
        }
      ],
      "stateMutability": "view",
      "type": "function"
    }
  ],
  "bytecode": "0x60a060405234801561001057600080fd5b506040516104903803806104908339818101604052602081101561003357600080fd5b5051606081901b6001600160601b0319166080526001600160a01b031661042461006c60003980610304528061033e52506104246000f3fe608060405234801561001057600080fd5b506004361061004c5760003560e01c806301ffc9a71461004e57806373a8c682146100a157806375f0bb52146100c55780639327136814610244575b005b61008d6004803603602081101561006457600080fd5b50357fffffffff0000000000000000000000000000000000000000000000000000000016610269565b604080519115158252519081900360200190f35b6100a9610302565b604080516001600160a01b039092168252519081900360200190f35b61004c60048036036101608110156100dc57600080fd5b6001600160a01b038235169160208101359181019060608101604082013564010000000081111561010c57600080fd5b82018360208201111561011e57600080fd5b8035906020019184600183028401116401000000008311171561014057600080fd5b91908080601f016020809104026020016040519081016040528093929190818152602001838380828437600092019190915250929560ff8535169560208601359560408101359550606081013594506001600160a01b0360808201358116945060a08201351692919060e081019060c001356401000000008111156101c457600080fd5b8201836020820111156101d657600080fd5b803590602001918460018302840111640100000000831117156101f857600080fd5b91908080601f016020809104026020016040519081016040528093929190818152602001838380828437600092019190915250929550505090356001600160a01b031691506103269050565b61004c6004803603604081101561025a57600080fd5b508035906020013515156103ea565b60007fffffffff0000000000000000000000000000000000000000000000000000000082167fe6d7a83a0000000000000000000000000000000000000000000000000000000014806102fc57507fffffffff0000000000000000000000000000000000000000000000000000000082167f01ffc9a700000000000000000000000000000000000000000000000000000000145b92915050565b7f000000000000000000000000000000000000000000000000000000000000000081565b600188600181111561033457fe5b14158061037257507f00000000000000000000000000000000000000000000000000000000000000006001600160a01b03168b6001600160a01b0316145b6103dd57604080517f08c379a000000000000000000000000000000000000000000000000000000000815260206004820152601760248201527f546869732063616c6c2069732072657374726963746564000000000000000000604482015290519081900360640190fd5b5050505050505050505050565b505056fea2646970667358221220c773f0de1dd46040fdfa6d98e701d6093c797e722ad12e5a152134355ac7bc3d64736f6c63430007010033",
  "linkReferences": {},
  "deployedLinkReferences": {}
}