{
  "_format": "hh-sol-artifact-1",
  "contractName": "OwnerManager",
  "sourceName": "third_party/safe-contracts/contracts/base/OwnerManager.sol",
  "abi": [
    {
      "anonymous": false,
      "inputs": [
        {
          "indexed": false,
          "internalType": "address",
          "name": "owner",
          "type": "address"
        }
      ],
      "name": "AddedOwner",
      "type": "event"
    },
    {
      "anonymous": false,
      "inputs": [
        {
          "indexed": false,
          "internalType": "uint256",
          "name": "threshold",
          "type": "uint256"
        }
      ],
      "name": "ChangedThreshold",
      "type": "event"
    },
    {
      "anonymous": false,
      "inputs": [
        {
          "indexed": false,
          "internalType": "address",
          "name": "owner",
          "type": "address"
        }
      ],
      "name": "RemovedOwner",
      "type": "event"
    },
    {
      "inputs": [
        {
          "internalType": "address",
          "name": "owner",
          "type": "address"
        },
        {
          "internalType": "uint256",
          "name": "_threshold",
          "type": "uint256"
        }
      ],
      "name": "addOwnerWithThreshold",
      "outputs": [],
      "stateMutability": "nonpayable",
      "type": "function"
    },
    {
      "inputs": [
        {
          "internalType": "uint256",
          "name": "_threshold",
          "type": "uint256"
        }
      ],
      "name": "changeThreshold",
      "outputs": [],
      "stateMutability": "nonpayable",
      "type": "function"
    },
    {
      "inputs": [],
      "name": "getOwners",
      "outputs": [
        {
          "internalType": "address[]",
          "name": "",
          "type": "address[]"
        }
      ],
      "stateMutability": "view",
      "type": "function"
    },
    {
      "inputs": [],
      "name": "getThreshold",
      "outputs": [
        {
          "internalType": "uint256",
          "name": "",
          "type": "uint256"
        }
      ],
      "stateMutability": "view",
      "type": "function"
    },
    {
      "inputs": [
        {
          "internalType": "address",
          "name": "owner",
          "type": "address"
        }
      ],
      "name": "isOwner",
      "outputs": [
        {
          "internalType": "bool",
          "name": "",
          "type": "bool"
        }
      ],
      "stateMutability": "view",
      "type": "function"
    },
    {
      "inputs": [
        {
          "internalType": "address",
          "name": "prevOwner",
          "type": "address"
        },
        {
          "internalType": "address",
          "name": "owner",
          "type": "address"
        },
        {
          "internalType": "uint256",
          "name": "_threshold",
          "type": "uint256"
        }
      ],
      "name": "removeOwner",
      "outputs": [],
      "stateMutability": "nonpayable",
      "type": "function"
    },
    {
      "inputs": [
        {
          "internalType": "address",
          "name": "prevOwner",
          "type": "address"
        },
        {
          "internalType": "address",
          "name": "oldOwner",
          "type": "address"
        },
        {
          "internalType": "address",
          "name": "newOwner",
          "type": "address"
        }
      ],
      "name": "swapOwner",
      "outputs": [],
      "stateMutability": "nonpayable",
      "type": "function"
    }
  ],
  "bytecode": "0x608060405234801561001057600080fd5b506109f4806100206000396000f3fe608060405234801561001057600080fd5b506004361061007d5760003560e01c8063a0e67e2b1161005b578063a0e67e2b14610107578063e318b52b1461015f578063e75235b814610197578063f8dc5dd9146101b15761007d565b80630d582f13146100825780632f54bf6e146100b0578063694e80c3146100ea575b600080fd5b6100ae6004803603604081101561009857600080fd5b506001600160a01b0381351690602001356101e7565b005b6100d6600480360360208110156100c657600080fd5b50356001600160a01b0316610372565b604080519115158252519081900360200190f35b6100ae6004803603602081101561010057600080fd5b50356103ad565b61010f610485565b60408051602080825283518183015283519192839290830191858101910280838360005b8381101561014b578181015183820152602001610133565b505050509050019250505060405180910390f35b6100ae6004803603606081101561017557600080fd5b506001600160a01b038135811691602081013582169160409091013516610567565b61019f6107bf565b60408051918252519081900360200190f35b6100ae600480360360608110156101c757600080fd5b506001600160a01b038135811691602081013590911690604001356107c5565b6101ef610968565b6001600160a01b0382161580159061021157506001600160a01b038216600114155b801561022657506001600160a01b0382163014155b61025f576040805162461bcd60e51b8152602060048201526005602482015264475332303360d81b604482015290519081900360640190fd5b6001600160a01b0382811660009081526020819052604090205416156102b4576040805162461bcd60e51b815260206004820152600560248201526411d4cc8c0d60da1b604482015290519081900360640190fd5b600060208181527fada5013122d395ba3c54772283fb069b10426056ef8ca54750cb9bb552a59e7d80546001600160a01b03868116808652604080872080549390941673ffffffffffffffffffffffffffffffffffffffff19938416179093556001958690528354909116811790925583548401909355825190815291517f9465fa0c962cc76958e6373a993326400c1c94f8be2fe3a952adfa7f60b2ea269281900390910190a1806002541461036e5761036e816103ad565b5050565b60006001600160a01b0382166001148015906103a757506001600160a01b038281166000908152602081905260409020541615155b92915050565b6103b5610968565b6001548111156103f4576040805162461bcd60e51b8152602060048201526005602482015264475332303160d81b604482015290519081900360640190fd5b600181101561044a576040805162461bcd60e51b815260206004820152600560248201527f4753323032000000000000000000000000000000000000000000000000000000604482015290519081900360640190fd5b60028190556040805182815290517f610f7ff2b304ae8903c3de74c60c6ab1f7d6226b3f52c5161905bb5ad4039c939181900360200190a150565b60608060015467ffffffffffffffff811180156104a157600080fd5b506040519080825280602002602001820160405280156104cb578160200160208202803683370190505b506001600090815260208190527fada5013122d395ba3c54772283fb069b10426056ef8ca54750cb9bb552a59e7d54919250906001600160a01b03165b6001600160a01b03811660011461055f578083838151811061052657fe5b6001600160a01b039283166020918202929092018101919091529181166000908152918290526040909120546001929092019116610508565b509091505090565b61056f610968565b6001600160a01b0381161580159061059157506001600160a01b038116600114155b80156105a657506001600160a01b0381163014155b6105df576040805162461bcd60e51b8152602060048201526005602482015264475332303360d81b604482015290519081900360640190fd5b6001600160a01b038181166000908152602081905260409020541615610634576040805162461bcd60e51b815260206004820152600560248201526411d4cc8c0d60da1b604482015290519081900360640190fd5b6001600160a01b0382161580159061065657506001600160a01b038216600114155b61068f576040805162461bcd60e51b8152602060048201526005602482015264475332303360d81b604482015290519081900360640190fd5b6001600160a01b038381166000908152602081905260409020548116908316146106e8576040805162461bcd60e51b8152602060048201526005602482015264475332303560d81b604482015290519081900360640190fd5b6001600160a01b038281166000818152602081815260408083208054878716808652838620805492891673ffffffffffffffffffffffffffffffffffffffff19938416179055968a16855282852080548216909717909655928490528254909416909155825191825291517ff8d49fc529812e9a7c5c50e69c20f0dccc0db8fa95c98bc58cc9a4f1c1299eaf929181900390910190a1604080516001600160a01b038316815290517f9465fa0c962cc76958e6373a993326400c1c94f8be2fe3a952adfa7f60b2ea269181900360200190a1505050565b60025490565b6107cd610968565b806001805403101561080e576040805162461bcd60e51b8152602060048201526005602482015264475332303160d81b604482015290519081900360640190fd5b6001600160a01b0382161580159061083057506001600160a01b038216600114155b610869576040805162461bcd60e51b8152602060048201526005602482015264475332303360d81b604482015290519081900360640190fd5b6001600160a01b038381166000908152602081905260409020548116908316146108c2576040805162461bcd60e51b8152602060048201526005602482015264475332303560d81b604482015290519081900360640190fd5b6001600160a01b038281166000818152602081815260408083208054898716855282852080549190971673ffffffffffffffffffffffffffffffffffffffff199182161790965592849052825490941690915560018054600019019055825191825291517ff8d49fc529812e9a7c5c50e69c20f0dccc0db8fa95c98bc58cc9a4f1c1299eaf929181900390910190a1806002541461096357610963816103ad565b505050565b3330146109bc576040805162461bcd60e51b815260206004820152600560248201527f4753303331000000000000000000000000000000000000000000000000000000604482015290519081900360640190fd5b56fea264697066735822122003d04f9428ca3ce1801f50a3b30de83215abf112408a721ef0bc3852cc698ea064736f6c63430007010033",
  "linkReferences": {},
  "deployedLinkReferences": {}
}