{
  "_format": "hh-sol-artifact-1",
  "contractName": "OwnerManager",
  "sourceName": "third_party/safe-contracts/contracts/base/OwnerManager.sol",
  "abi": [
    {
      "anonymous": false,
      "inputs": [
        {
          "indexed": false,
          "internalType": "address",
          "name": "owner",
          "type": "address"
        }
      ],
      "name": "AddedOwner",
      "type": "event"
    },
    {
      "anonymous": false,
      "inputs": [
        {
          "indexed": false,
          "internalType": "uint256",
          "name": "threshold",
          "type": "uint256"
        }
      ],
      "name": "ChangedThreshold",
      "type": "event"
    },
    {
      "anonymous": false,
      "inputs": [
        {
          "indexed": false,
          "internalType": "address",
          "name": "owner",
          "type": "address"
        }
      ],
      "name": "RemovedOwner",
      "type": "event"
    },
    {
      "inputs": [
        {
          "internalType": "address",
          "name": "owner",
          "type": "address"
        },
        {
          "internalType": "uint256",
          "name": "_threshold",
          "type": "uint256"
        }
      ],
      "name": "addOwnerWithThreshold",
      "outputs": [],
      "stateMutability": "nonpayable",
      "type": "function"
    },
    {
      "inputs": [
        {
          "internalType": "uint256",
          "name": "_threshold",
          "type": "uint256"
        }
      ],
      "name": "changeThreshold",
      "outputs": [],
      "stateMutability": "nonpayable",
      "type": "function"
    },
    {
      "inputs": [],
      "name": "getOwners",
      "outputs": [
        {
          "internalType": "address[]",
          "name": "",
          "type": "address[]"
        }
      ],
      "stateMutability": "view",
      "type": "function"
    },
    {
      "inputs": [],
      "name": "getThreshold",
      "outputs": [
        {
          "internalType": "uint256",
          "name": "",
          "type": "uint256"
        }
      ],
      "stateMutability": "view",
      "type": "function"
    },
    {
      "inputs": [
        {
          "internalType": "address",
          "name": "owner",
          "type": "address"
        }
      ],
      "name": "isOwner",
      "outputs": [
        {
          "internalType": "bool",
          "name": "",
          "type": "bool"
        }
      ],
      "stateMutability": "view",
      "type": "function"
    },
    {
      "inputs": [
        {
          "internalType": "address",
          "name": "prevOwner",
          "type": "address"
        },
        {
          "internalType": "address",
          "name": "owner",
          "type": "address"
        },
        {
          "internalType": "uint256",
          "name": "_threshold",
          "type": "uint256"
        }
      ],
      "name": "removeOwner",
      "outputs": [],
      "stateMutability": "nonpayable",
      "type": "function"
    },
    {
      "inputs": [
        {
          "internalType": "address",
          "name": "prevOwner",
          "type": "address"
        },
        {
          "internalType": "address",
          "name": "oldOwner",
          "type": "address"
        },
        {
          "internalType": "address",
          "name": "newOwner",
          "type": "address"
        }
      ],
      "name": "swapOwner",
      "outputs": [],
      "stateMutability": "nonpayable",
      "type": "function"
    }
  ],
  "bytecode": "0x608060405234801561001057600080fd5b50610b15806100206000396000f3fe608060405234801561001057600080fd5b506004361061007d5760003560e01c8063a0e67e2b1161005b578063a0e67e2b146100d3578063e318b52b146100e8578063e75235b8146100fb578063f8dc5dd9146101105761007d565b80630d582f13146100825780632f54bf6e14610097578063694e80c3146100c0575b600080fd5b610095610090366004610880565b610123565b005b6100aa6100a53660046107e2565b61028c565b6040516100b79190610922565b60405180910390f35b6100956100ce3660046108a9565b6102c9565b6100db610354565b6040516100b791906108d5565b6100956100f6366004610803565b610460565b610103610642565b6040516100b79190610a77565b61009561011e366004610845565b610648565b61012b6107aa565b6001600160a01b0382161580159061014d57506001600160a01b038216600114155b801561016257506001600160a01b0382163014155b6101875760405162461bcd60e51b815260040161017e90610964565b60405180910390fd5b6001600160a01b0382811660009081526020819052604090205416156101bf5760405162461bcd60e51b815260040161017e90610a09565b600060208190527fada5013122d395ba3c54772283fb069b10426056ef8ca54750cb9bb552a59e7d80546001600160a01b038581168085526040852080549290931673ffffffffffffffffffffffffffffffffffffffff19928316179092556001808552835490911690911790915580549161023a83610aae565b91905055507f9465fa0c962cc76958e6373a993326400c1c94f8be2fe3a952adfa7f60b2ea268260405161026e91906108c1565b60405180910390a1806002541461028857610288816102c9565b5050565b60006001600160a01b0382166001148015906102c157506001600160a01b038281166000908152602081905260409020541615155b90505b919050565b6102d16107aa565b6001548111156102f35760405162461bcd60e51b815260040161017e9061092d565b60018110156103145760405162461bcd60e51b815260040161017e9061099b565b60028190556040517f610f7ff2b304ae8903c3de74c60c6ab1f7d6226b3f52c5161905bb5ad4039c9390610349908390610a77565b60405180910390a150565b6060600060015467ffffffffffffffff81111561038157634e487b7160e01b600052604160045260246000fd5b6040519080825280602002602001820160405280156103aa578160200160208202803683370190505b506001600090815260208190527fada5013122d395ba3c54772283fb069b10426056ef8ca54750cb9bb552a59e7d54919250906001600160a01b03165b6001600160a01b038116600114610458578083838151811061041957634e487b7160e01b600052603260045260246000fd5b6001600160a01b03928316602091820292909201810191909152918116600090815291829052604090912054168161045081610aae565b9250506103e7565b509091505090565b6104686107aa565b6001600160a01b0381161580159061048a57506001600160a01b038116600114155b801561049f57506001600160a01b0381163014155b6104bb5760405162461bcd60e51b815260040161017e90610964565b6001600160a01b0381811660009081526020819052604090205416156104f35760405162461bcd60e51b815260040161017e90610a09565b6001600160a01b0382161580159061051557506001600160a01b038216600114155b6105315760405162461bcd60e51b815260040161017e90610964565b6001600160a01b0383811660009081526020819052604090205481169083161461056d5760405162461bcd60e51b815260040161017e90610a40565b6001600160a01b038281166000818152602081905260408082208054868616808552838520805492881673ffffffffffffffffffffffffffffffffffffffff199384161790559589168452828420805482169096179095559290915281549092169055517ff8d49fc529812e9a7c5c50e69c20f0dccc0db8fa95c98bc58cc9a4f1c1299eaf906105fe9084906108c1565b60405180910390a17f9465fa0c962cc76958e6373a993326400c1c94f8be2fe3a952adfa7f60b2ea268160405161063591906108c1565b60405180910390a1505050565b60025490565b6106506107aa565b806001805461065f9190610a80565b101561067d5760405162461bcd60e51b815260040161017e9061092d565b6001600160a01b0382161580159061069f57506001600160a01b038216600114155b6106bb5760405162461bcd60e51b815260040161017e90610964565b6001600160a01b038381166000908152602081905260409020548116908316146106f75760405162461bcd60e51b815260040161017e90610a40565b6001600160a01b038281166000818152602081905260408082208054888616845291832080549290951673ffffffffffffffffffffffffffffffffffffffff19928316179094559181528254909116909155600180549161075783610a97565b91905055507ff8d49fc529812e9a7c5c50e69c20f0dccc0db8fa95c98bc58cc9a4f1c1299eaf8260405161078b91906108c1565b60405180910390a180600254146107a5576107a5816102c9565b505050565b3330146107c95760405162461bcd60e51b815260040161017e906109d2565b565b80356001600160a01b03811681146102c457600080fd5b6000602082840312156107f3578081fd5b6107fc826107cb565b9392505050565b600080600060608486031215610817578182fd5b610820846107cb565b925061082e602085016107cb565b915061083c604085016107cb565b90509250925092565b600080600060608486031215610859578283fd5b610862846107cb565b9250610870602085016107cb565b9150604084013590509250925092565b60008060408385031215610892578182fd5b61089b836107cb565b946020939093013593505050565b6000602082840312156108ba578081fd5b5035919050565b6001600160a01b0391909116815260200190565b6020808252825182820181905260009190848201906040850190845b818110156109165783516001600160a01b0316835292840192918401916001016108f1565b50909695505050505050565b901515815260200190565b60208082526005908201527f4753323031000000000000000000000000000000000000000000000000000000604082015260600190565b60208082526005908201527f4753323033000000000000000000000000000000000000000000000000000000604082015260600190565b60208082526005908201527f4753323032000000000000000000000000000000000000000000000000000000604082015260600190565b60208082526005908201527f4753303331000000000000000000000000000000000000000000000000000000604082015260600190565b60208082526005908201527f4753323034000000000000000000000000000000000000000000000000000000604082015260600190565b60208082526005908201527f4753323035000000000000000000000000000000000000000000000000000000604082015260600190565b90815260200190565b600082821015610a9257610a92610ac9565b500390565b600081610aa657610aa6610ac9565b506000190190565b6000600019821415610ac257610ac2610ac9565b5060010190565b634e487b7160e01b600052601160045260246000fdfea26469706673582212209cbc4694a483e5ec45dc758069c22ef20739ba89d19f32007bab0fd6de96b1db64736f6c63430008000033",
  "linkReferences": {},
  "deployedLinkReferences": {}
}