{
  "_format": "hh-sol-artifact-1",
  "contractName": "ERC1155Token",
  "sourceName": "third_party/safe-contracts/contracts/test/ERC1155Token.sol",
  "abi": [
    {
      "inputs": [
        {
          "internalType": "address",
          "name": "owner",
          "type": "address"
        },
        {
          "internalType": "uint256",
          "name": "id",
          "type": "uint256"
        }
      ],
      "name": "balanceOf",
      "outputs": [
        {
          "internalType": "uint256",
          "name": "",
          "type": "uint256"
        }
      ],
      "stateMutability": "view",
      "type": "function"
    },
    {
      "inputs": [
        {
          "internalType": "address",
          "name": "to",
          "type": "address"
        },
        {
          "internalType": "uint256",
          "name": "id",
          "type": "uint256"
        },
        {
          "internalType": "uint256",
          "name": "value",
          "type": "uint256"
        },
        {
          "internalType": "bytes",
          "name": "data",
          "type": "bytes"
        }
      ],
      "name": "mint",
      "outputs": [],
      "stateMutability": "nonpayable",
      "type": "function"
    },
    {
      "inputs": [
        {
          "internalType": "address",
          "name": "from",
          "type": "address"
        },
        {
          "internalType": "address",
          "name": "to",
          "type": "address"
        },
        {
          "internalType": "uint256",
          "name": "id",
          "type": "uint256"
        },
        {
          "internalType": "uint256",
          "name": "value",
          "type": "uint256"
        },
        {
          "internalType": "bytes",
          "name": "data",
          "type": "bytes"
        }
      ],
      "name": "safeTransferFrom",
      "outputs": [],
      "stateMutability": "nonpayable",
      "type": "function"
    }
  ],
  "bytecode": "0x608060405234801561001057600080fd5b5061088c806100206000396000f3fe608060405234801561001057600080fd5b50600436106100405760003560e01c8062fdd58e14610045578063731133e91461006e578063f242432a14610083575b600080fd5b6100586100533660046104ca565b610096565b60405161006591906107ef565b60405180910390f35b61008161007c3660046104f3565b6100ed565b005b610081610091366004610454565b6101ac565b60006001600160a01b0383166100c75760405162461bcd60e51b81526004016100be9061061e565b60405180910390fd5b506000908152602081815260408083206001600160a01b03949094168352929052205490565b6001600160a01b0385166101135760405162461bcd60e51b81526004016100be90610735565b6000848152602081815260408083206001600160a01b038916845290915290205461013e90846107f8565b6000858152602081815260408083206001600160a01b038a1684528252808320939093558251601f85018290048202810182019093528383526101a5923392918991899189919089908990819084018382808284376000920191909152506102fe92505050565b5050505050565b6001600160a01b0385166101d25760405162461bcd60e51b81526004016100be9061067b565b6001600160a01b03861633148061021057506001600160a01b03861660009081526001602081815260408084203385529091529091205460ff161515145b61022c5760405162461bcd60e51b81526004016100be906106d8565b6000848152602081815260408083206001600160a01b038a168452909152902054610258908490610810565b6000858152602081815260408083206001600160a01b038b8116855292528083209390935587168152205461028d90846107f8565b6000858152602081815260408083206001600160a01b038a168452825291829020929092558051601f84018390048302810183019091528281526102f691339189918991899189919089908990819084018382808284376000920191909152506102fe92505050565b505050505050565b610307846103ec565b156102f6576040517ff23a6e6100000000000000000000000000000000000000000000000000000000808252906001600160a01b0386169063f23a6e619061035b908a908a908990899089906004016105a0565b602060405180830381600087803b15801561037557600080fd5b505af1158015610389573d6000803e3d6000fd5b505050506040513d601f19601f820116820180604052508101906103ad9190610559565b7fffffffff0000000000000000000000000000000000000000000000000000000016146102f65760405162461bcd60e51b81526004016100be90610792565b803b15155b919050565b80356001600160a01b03811681146103f157600080fd5b60008083601f84011261041e578182fd5b50813567ffffffffffffffff811115610435578182fd5b60208301915083602082850101111561044d57600080fd5b9250929050565b60008060008060008060a0878903121561046c578182fd5b610475876103f6565b9550610483602088016103f6565b94506040870135935060608701359250608087013567ffffffffffffffff8111156104ac578283fd5b6104b889828a0161040d565b979a9699509497509295939492505050565b600080604083850312156104dc578182fd5b6104e5836103f6565b946020939093013593505050565b60008060008060006080868803121561050a578081fd5b610513866103f6565b94506020860135935060408601359250606086013567ffffffffffffffff81111561053c578182fd5b6105488882890161040d565b969995985093965092949392505050565b60006020828403121561056a578081fd5b81517fffffffff0000000000000000000000000000000000000000000000000000000081168114610599578182fd5b9392505050565b60006001600160a01b03808816835260208188168185015286604085015285606085015260a06080850152845191508160a0850152825b828110156105f35785810182015185820160c0015281016105d7565b82811115610604578360c084870101525b5050601f01601f19169190910160c0019695505050505050565b6020808252602b908201527f455243313135353a2062616c616e636520717565727920666f7220746865207a60408201527f65726f2061646472657373000000000000000000000000000000000000000000606082015260800190565b60208082526028908201527f455243313135353a207461726765742061646472657373206d7573742062652060408201527f6e6f6e2d7a65726f000000000000000000000000000000000000000000000000606082015260800190565b60208082526038908201527f455243313135353a206e656564206f70657261746f7220617070726f76616c2060408201527f666f7220337264207061727479207472616e73666572732e0000000000000000606082015260800190565b60208082526021908201527f455243313135353a206d696e7420746f20746865207a65726f2061646472657360408201527f7300000000000000000000000000000000000000000000000000000000000000606082015260800190565b60208082526031908201527f455243313135353a20676f7420756e6b6e6f776e2076616c75652066726f6d2060408201527f6f6e455243313135355265636569766564000000000000000000000000000000606082015260800190565b90815260200190565b6000821982111561080b5761080b610827565b500190565b60008282101561082257610822610827565b500390565b7f4e487b7100000000000000000000000000000000000000000000000000000000600052601160045260246000fdfea26469706673582212202545278a5ba2704eccdef62e5b840918f91da74dc2dd02ccf70f8239e85bc5c364736f6c63430008000033",
  "linkReferences": {},
  "deployedLinkReferences": {}
}