{
  "_format": "hh-sol-artifact-1",
  "contractName": "SignMessageLib",
  "sourceName": "third_party/safe-contracts/contracts/libraries/SignMessage.sol",
  "abi": [
    {
      "anonymous": false,
      "inputs": [
        {
          "indexed": true,
          "internalType": "bytes32",
          "name": "msgHash",
          "type": "bytes32"
        }
      ],
      "name": "SignMsg",
      "type": "event"
    },
    {
      "inputs": [
        {
          "internalType": "bytes",
          "name": "message",
          "type": "bytes"
        }
      ],
      "name": "getMessageHash",
      "outputs": [
        {
          "internalType": "bytes32",
          "name": "",
          "type": "bytes32"
        }
      ],
      "stateMutability": "view",
      "type": "function"
    },
    {
      "inputs": [
        {
          "internalType": "bytes",
          "name": "_data",
          "type": "bytes"
        }
      ],
      "name": "signMessage",
      "outputs": [],
      "stateMutability": "nonpayable",
      "type": "function"
    }
  ],
  "bytecode": "0x608060405234801561001057600080fd5b50610431806100206000396000f3fe608060405234801561001057600080fd5b50600436106100365760003560e01c80630a1028c41461003b57806385a5affe14610064575b600080fd5b61004e6100493660046102d2565b610079565b60405161005b91906103b5565b60405180910390f35b610077610072366004610265565b6101ca565b005b6000807f60b3cbf8b4a223d68d641b3b6ddf9a298e7f33710cf3d3a9d1146b5a6150fbca60001b83805190602001206040516020016100b99291906103be565b60408051601f1981840301815282825280516020918201207ff698da2500000000000000000000000000000000000000000000000000000000845291519193507f1900000000000000000000000000000000000000000000000000000000000000927f010000000000000000000000000000000000000000000000000000000000000092309263f698da259260048082019391829003018186803b15801561016057600080fd5b505afa158015610174573d6000803e3d6000fd5b505050506040513d601f19601f82011682018060405250810190610198919061024d565b836040516020016101ac9493929190610373565b60405160208183030381529060405280519060200120915050919050565b600061020b83838080601f01602080910402602001604051908101604052809392919081815260200183838082843760009201919091525061007992505050565b600081815260076020526040808220600190555191925082917fe7f4675038f4f6034dfcbbb24c4dc08e4ebf10eb9d257d3d02c0f38d122ac6e49190a2505050565b60006020828403121561025e578081fd5b5051919050565b60008060208385031215610277578081fd5b823567ffffffffffffffff8082111561028e578283fd5b818501915085601f8301126102a1578283fd5b8135818111156102af578384fd5b8660208285010111156102c0578384fd5b60209290920196919550909350505050565b600060208083850312156102e4578182fd5b823567ffffffffffffffff808211156102fb578384fd5b818501915085601f83011261030e578384fd5b813581811115610320576103206103cc565b604051601f8201601f1916810185018381118282101715610343576103436103cc565b6040528181528382018501881015610359578586fd5b818585018683013790810190930193909352509392505050565b7fff0000000000000000000000000000000000000000000000000000000000000094851681529290931660018301526002820152602281019190915260420190565b90815260200190565b918252602082015260400190565b7f4e487b7100000000000000000000000000000000000000000000000000000000600052604160045260246000fdfea26469706673582212200114a102c70a18b269b97c6bcef0afa18a4007b2f8f36299af33bb06d9d14c5f64736f6c63430008000033",
  "linkReferences": {},
  "deployedLinkReferences": {}
}