{
  "_format": "hh-sol-artifact-1",
  "contractName": "MockContract",
  "sourceName": "@gnosis.pm/mock-contract/contracts/MockContract.sol",
  "abi": [
    {
      "inputs": [],
      "stateMutability": "nonpayable",
      "type": "constructor"
    },
    {
      "stateMutability": "payable",
      "type": "fallback"
    },
    {
      "inputs": [],
      "name": "DEFAULT_FALLBACK_VALUE",
      "outputs": [
        {
          "internalType": "bytes",
          "name": "",
          "type": "bytes"
        }
      ],
      "stateMutability": "view",
      "type": "function"
    },
    {
      "inputs": [],
      "name": "MOCKS_LIST_END",
      "outputs": [
        {
          "internalType": "bytes",
          "name": "",
          "type": "bytes"
        }
      ],
      "stateMutability": "view",
      "type": "function"
    },
    {
      "inputs": [],
      "name": "MOCKS_LIST_END_HASH",
      "outputs": [
        {
          "internalType": "bytes32",
          "name": "",
          "type": "bytes32"
        }
      ],
      "stateMutability": "view",
      "type": "function"
    },
    {
      "inputs": [],
      "name": "MOCKS_LIST_START",
      "outputs": [
        {
          "internalType": "bytes32",
          "name": "",
          "type": "bytes32"
        }
      ],
      "stateMutability": "view",
      "type": "function"
    },
    {
      "inputs": [],
      "name": "SENTINEL_ANY_MOCKS",
      "outputs": [
        {
          "internalType": "bytes4",
          "name": "",
          "type": "bytes4"
        }
      ],
      "stateMutability": "view",
      "type": "function"
    },
    {
      "inputs": [
        {
          "internalType": "bytes",
          "name": "response",
          "type": "bytes"
        }
      ],
      "name": "givenAnyReturn",
      "outputs": [],
      "stateMutability": "nonpayable",
      "type": "function"
    },
    {
      "inputs": [
        {
          "internalType": "address",
          "name": "response",
          "type": "address"
        }
      ],
      "name": "givenAnyReturnAddress",
      "outputs": [],
      "stateMutability": "nonpayable",
      "type": "function"
    },
    {
      "inputs": [
        {
          "internalType": "bool",
          "name": "response",
          "type": "bool"
        }
      ],
      "name": "givenAnyReturnBool",
      "outputs": [],
      "stateMutability": "nonpayable",
      "type": "function"
    },
    {
      "inputs": [
        {
          "internalType": "uint256",
          "name": "response",
          "type": "uint256"
        }
      ],
      "name": "givenAnyReturnUint",
      "outputs": [],
      "stateMutability": "nonpayable",
      "type": "function"
    },
    {
      "inputs": [],
      "name": "givenAnyRevert",
      "outputs": [],
      "stateMutability": "nonpayable",
      "type": "function"
    },
    {
      "inputs": [
        {
          "internalType": "string",
          "name": "message",
          "type": "string"
        }
      ],
      "name": "givenAnyRevertWithMessage",
      "outputs": [],
      "stateMutability": "nonpayable",
      "type": "function"
    },
    {
      "inputs": [],
      "name": "givenAnyRunOutOfGas",
      "outputs": [],
      "stateMutability": "nonpayable",
      "type": "function"
    },
    {
      "inputs": [
        {
          "internalType": "bytes",
          "name": "call",
          "type": "bytes"
        },
        {
          "internalType": "bytes",
          "name": "response",
          "type": "bytes"
        }
      ],
      "name": "givenCalldataReturn",
      "outputs": [],
      "stateMutability": "nonpayable",
      "type": "function"
    },
    {
      "inputs": [
        {
          "internalType": "bytes",
          "name": "call",
          "type": "bytes"
        },
        {
          "internalType": "address",
          "name": "response",
          "type": "address"
        }
      ],
      "name": "givenCalldataReturnAddress",
      "outputs": [],
      "stateMutability": "nonpayable",
      "type": "function"
    },
    {
      "inputs": [
        {
          "internalType": "bytes",
          "name": "call",
          "type": "bytes"
        },
        {
          "internalType": "bool",
          "name": "response",
          "type": "bool"
        }
      ],
      "name": "givenCalldataReturnBool",
      "outputs": [],
      "stateMutability": "nonpayable",
      "type": "function"
    },
    {
      "inputs": [
        {
          "internalType": "bytes",
          "name": "call",
          "type": "bytes"
        },
        {
          "internalType": "uint256",
          "name": "response",
          "type": "uint256"
        }
      ],
      "name": "givenCalldataReturnUint",
      "outputs": [],
      "stateMutability": "nonpayable",
      "type": "function"
    },
    {
      "inputs": [
        {
          "internalType": "bytes",
          "name": "call",
          "type": "bytes"
        }
      ],
      "name": "givenCalldataRevert",
      "outputs": [],
      "stateMutability": "nonpayable",
      "type": "function"
    },
    {
      "inputs": [
        {
          "internalType": "bytes",
          "name": "call",
          "type": "bytes"
        },
        {
          "internalType": "string",
          "name": "message",
          "type": "string"
        }
      ],
      "name": "givenCalldataRevertWithMessage",
      "outputs": [],
      "stateMutability": "nonpayable",
      "type": "function"
    },
    {
      "inputs": [
        {
          "internalType": "bytes",
          "name": "call",
          "type": "bytes"
        }
      ],
      "name": "givenCalldataRunOutOfGas",
      "outputs": [],
      "stateMutability": "nonpayable",
      "type": "function"
    },
    {
      "inputs": [
        {
          "internalType": "bytes",
          "name": "call",
          "type": "bytes"
        },
        {
          "internalType": "bytes",
          "name": "response",
          "type": "bytes"
        }
      ],
      "name": "givenMethodReturn",
      "outputs": [],
      "stateMutability": "nonpayable",
      "type": "function"
    },
    {
      "inputs": [
        {
          "internalType": "bytes",
          "name": "call",
          "type": "bytes"
        },
        {
          "internalType": "address",
          "name": "response",
          "type": "address"
        }
      ],
      "name": "givenMethodReturnAddress",
      "outputs": [],
      "stateMutability": "nonpayable",
      "type": "function"
    },
    {
      "inputs": [
        {
          "internalType": "bytes",
          "name": "call",
          "type": "bytes"
        },
        {
          "internalType": "bool",
          "name": "response",
          "type": "bool"
        }
      ],
      "name": "givenMethodReturnBool",
      "outputs": [],
      "stateMutability": "nonpayable",
      "type": "function"
    },
    {
      "inputs": [
        {
          "internalType": "bytes",
          "name": "call",
          "type": "bytes"
        },
        {
          "internalType": "uint256",
          "name": "response",
          "type": "uint256"
        }
      ],
      "name": "givenMethodReturnUint",
      "outputs": [],
      "stateMutability": "nonpayable",
      "type": "function"
    },
    {
      "inputs": [
        {
          "internalType": "bytes",
          "name": "call",
          "type": "bytes"
        }
      ],
      "name": "givenMethodRevert",
      "outputs": [],
      "stateMutability": "nonpayable",
      "type": "function"
    },
    {
      "inputs": [
        {
          "internalType": "bytes",
          "name": "call",
          "type": "bytes"
        },
        {
          "internalType": "string",
          "name": "message",
          "type": "string"
        }
      ],
      "name": "givenMethodRevertWithMessage",
      "outputs": [],
      "stateMutability": "nonpayable",
      "type": "function"
    },
    {
      "inputs": [
        {
          "internalType": "bytes",
          "name": "call",
          "type": "bytes"
        }
      ],
      "name": "givenMethodRunOutOfGas",
      "outputs": [],
      "stateMutability": "nonpayable",
      "type": "function"
    },
    {
      "inputs": [],
      "name": "invocationCount",
      "outputs": [
        {
          "internalType": "uint256",
          "name": "",
          "type": "uint256"
        }
      ],
      "stateMutability": "nonpayable",
      "type": "function"
    },
    {
      "inputs": [
        {
          "internalType": "bytes",
          "name": "call",
          "type": "bytes"
        }
      ],
      "name": "invocationCountForCalldata",
      "outputs": [
        {
          "internalType": "uint256",
          "name": "",
          "type": "uint256"
        }
      ],
      "stateMutability": "nonpayable",
      "type": "function"
    },
    {
      "inputs": [
        {
          "internalType": "bytes",
          "name": "call",
          "type": "bytes"
        }
      ],
      "name": "invocationCountForMethod",
      "outputs": [
        {
          "internalType": "uint256",
          "name": "",
          "type": "uint256"
        }
      ],
      "stateMutability": "nonpayable",
      "type": "function"
    },
    {
      "inputs": [],
      "name": "reset",
      "outputs": [],
      "stateMutability": "nonpayable",
      "type": "function"
    },
    {
      "inputs": [
        {
          "internalType": "bytes4",
          "name": "methodId",
          "type": "bytes4"
        },
        {
          "internalType": "bytes",
          "name": "originalMsgData",
          "type": "bytes"
        }
      ],
      "name": "updateInvocationCount",
      "outputs": [],
      "stateMutability": "nonpayable",
      "type": "function"
    }
  ],
  "bytecode": "0x600060a09081526020608081905260c06040526200002091600b91620000ce565b503480156200002e57600080fd5b50604080518082019091526004815263183c333360e11b6020808301918252600160f81b60009081529052905162000088917f82ac279db26a206d9ba5a94c07ff940aea4b3bfde8820ec95f4efa0acfd0d5bc91620000ce565b50600160f81b60005260056020527fde001afd1f75281f9d2ab22d4e0166be5a51dd890d7492e8fbf3e412e05eac0a805463ffffffff1916630100000017905562000173565b828054600181600116156101000203166002900490600052602060002090601f016020900481019282601f106200011157805160ff191683800117855562000141565b8280016001018555821562000141579182015b828111156200014157825182559160200191906001019062000124565b506200014f92915062000153565b5090565b6200017091905b808211156200014f57600081556001016200015a565b90565b6128d280620001836000396000f3fe6080604052600436106101d85760003560e01c80637cd96ee411610102578063cf11ff5d11610095578063e211b8a511610064578063e211b8a514611355578063eb861f691461136a578063f07da229146113e5578063f5afa9c114611417576101d8565b8063cf11ff5d146111c6578063d6fe97781461124a578063d73ca0ac146112c5578063d826f88f14611340576101d8565b8063aa788c55116100d1578063aa788c5514610fd2578063af21ac781461104d578063b3901f2914611077578063c6ee167f146110fb576101d8565b80637cd96ee414610dac57806387abab6514610dc15780639a1dc86b14610e3c5780639eaeed7514610f07576101d8565b8063586984a41161017a57806367aad04a1161014957806367aad04a14610c6c578063682b479714610c8157806368ab6f2f14610cb45780636f40075614610d2f576101d8565b8063586984a4146109e757806358cbc02514610a625780635a3855ab14610b245780636193659414610ba1576101d8565b80632ed238dc116101b65780632ed238dc1461091657806336ff0ee51461092b5780633956dc6b146109575780634937c4f61461096c576101d8565b80630a20119f146107e8578063122aea811461080f57806321fed4d614610899575b60003560018060003660405180838380828437919091019485525050604051928390036020019092205460ff16915050600281111561021357fe5b14156102d5576003600036604051808383808284379190910194855250506040516020938190038401812062461bcd60e51b8252600482019485528054600260018216156101000260001901909116046024830181905290949350839250604490910190849080156102c65780601f1061029b576101008083540402835291602001916102c6565b820191906000526020600020905b8154815290600101906020018083116102a957829003601f168201915b50509250505060405180910390fd5b6002600160003660405180838380828437919091019485525050604051928390036020019092205460ff16915050600281111561030e57fe5b141561031c5761031c611492565b60606002600036604051808383808284379190910194855250506040805160209481900385018120805460026001821615610100026000190190911604601f810187900487028301870190935282825290949093509091508301828280156103c55780601f1061039a576101008083540402835291602001916103c5565b820191906000526020600020905b8154815290600101906020018083116103a857829003601f168201915b505050505090508051600014156105595760016001600160e01b0319831660009081526006602052604090205460ff16600281111561040057fe5b141561047b576001600160e01b03198216600090815260086020908152604091829020915162461bcd60e51b81526004810191825282546002600019610100600184161502019091160460248201819052829160440190849080156102c65780601f1061029b576101008083540402835291602001916102c6565b60026001600160e01b0319831660009081526006602052604090205460ff1660028111156104a557fe5b14156104b3576104b3611492565b6001600160e01b0319821660009081526007602090815260409182902080548351601f6002600019610100600186161502019093169290920491820184900484028101840190945280845290918301828280156105515780601f1061052657610100808354040283529160200191610551565b820191906000526020600020905b81548152906001019060200180831161053457829003601f168201915b505050505090505b8051610688576001600a5460ff16600281111561057257fe5b14156105d95760405162461bcd60e51b8152602060048201908152600c8054600260001961010060018416150201909116046024840181905290928291604490910190849080156102c65780601f1061029b576101008083540402835291602001916102c6565b6002600a5460ff1660028111156105ec57fe5b14156105fa576105fa611492565b600b805460408051602060026001851615610100026000190190941693909304601f810184900484028201840190925281815292918301828280156106805780601f1061065557610100808354040283529160200191610680565b820191906000526020600020905b81548152906001019060200180831161066357829003601f168201915b505050505090505b604080516001600160e01b03198416602482019081526044820192835236606483018190526060933093620186a0938893600093909260840184848082843760008382015260408051601f909201601f1990811690940182810390940182529283526020810180517bffffffffffffffffffffffffffffffffffffffffffffffffffffffff167f58cbc0250000000000000000000000000000000000000000000000000000000017815292518151919850965086955091935090915081905083835b602083106107695780518252601f19909201916020918201910161074a565b6001836020036101000a03801982511681845116808217855250505050505090500191505060006040518083038160008787f1925050503d80600081146107cc576040519150601f19603f3d011682016040523d82523d6000602084013e6107d1565b606091505b5091505080516000146107e057fe5b815182602001f35b3480156107f457600080fd5b506107fd6114ae565b60408051918252519081900360200190f35b34801561081b57600080fd5b506108246114b5565b6040805160208082528351818301528351919283929083019185019080838360005b8381101561085e578181015183820152602001610846565b50505050905090810190601f16801561088b5780820380516001836020036101000a031916815260200191505b509250505060405180910390f35b3480156108a557600080fd5b50610914600480360360208110156108bc57600080fd5b810190602081018135600160201b8111156108d657600080fd5b8201836020820111156108e857600080fd5b803590602001918460018302840111600160201b8311171561090957600080fd5b5090925090506114d7565b005b34801561092257600080fd5b506107fd61155e565b34801561093757600080fd5b506109146004803603602081101561094e57600080fd5b5035151561159e565b34801561096357600080fd5b506109146115c5565b34801561097857600080fd5b506107fd6004803603602081101561098f57600080fd5b810190602081018135600160201b8111156109a957600080fd5b8201836020820111156109bb57600080fd5b803590602001918460018302840111600160201b831117156109dc57600080fd5b5090925090506115d4565b3480156109f357600080fd5b506107fd60048036036020811015610a0a57600080fd5b810190602081018135600160201b811115610a2457600080fd5b820183602082011115610a3657600080fd5b803590602001918460018302840111600160201b83111715610a5757600080fd5b509092509050611665565b348015610a6e57600080fd5b5061091460048036036040811015610a8557600080fd5b6001600160e01b03198235169190810190604081016020820135600160201b811115610ab057600080fd5b820183602082011115610ac257600080fd5b803590602001918460018302840111600160201b83111715610ae357600080fd5b91908080601f0160208091040260200160405190810160405280939291908181526020018383808284376000920191909152509295506116bc945050505050565b348015610b3057600080fd5b5061091460048036036040811015610b4757600080fd5b810190602081018135600160201b811115610b6157600080fd5b820183602082011115610b7357600080fd5b803590602001918460018302840111600160201b83111715610b9457600080fd5b91935091503515156117ea565b348015610bad57600080fd5b5061091460048036036040811015610bc457600080fd5b810190602081018135600160201b811115610bde57600080fd5b820183602082011115610bf057600080fd5b803590602001918460018302840111600160201b83111715610c1157600080fd5b919390929091602081019035600160201b811115610c2e57600080fd5b820183602082011115610c4057600080fd5b803590602001918460018302840111600160201b83111715610c6157600080fd5b509092509050611850565b348015610c7857600080fd5b506107fd6118c3565b348015610c8d57600080fd5b5061091460048036036020811015610ca457600080fd5b50356001600160a01b03166118cb565b348015610cc057600080fd5b5061091460048036036020811015610cd757600080fd5b810190602081018135600160201b811115610cf157600080fd5b820183602082011115610d0357600080fd5b803590602001918460018302840111600160201b83111715610d2457600080fd5b5090925090506118e3565b348015610d3b57600080fd5b5061091460048036036040811015610d5257600080fd5b810190602081018135600160201b811115610d6c57600080fd5b820183602082011115610d7e57600080fd5b803590602001918460018302840111600160201b83111715610d9f57600080fd5b9193509150351515611960565b348015610db857600080fd5b506108246119c0565b348015610dcd57600080fd5b5061091460048036036020811015610de457600080fd5b810190602081018135600160201b811115610dfe57600080fd5b820183602082011115610e1057600080fd5b803590602001918460018302840111600160201b83111715610e3157600080fd5b5090925090506119e0565b348015610e4857600080fd5b5061091460048036036040811015610e5f57600080fd5b810190602081018135600160201b811115610e7957600080fd5b820183602082011115610e8b57600080fd5b803590602001918460018302840111600160201b83111715610eac57600080fd5b919390929091602081019035600160201b811115610ec957600080fd5b820183602082011115610edb57600080fd5b803590602001918460018302840111600160201b83111715610efc57600080fd5b5090925090506119f9565b348015610f1357600080fd5b5061091460048036036040811015610f2a57600080fd5b810190602081018135600160201b811115610f4457600080fd5b820183602082011115610f5657600080fd5b803590602001918460018302840111600160201b83111715610f7757600080fd5b919390929091602081019035600160201b811115610f9457600080fd5b820183602082011115610fa657600080fd5b803590602001918460018302840111600160201b83111715610fc757600080fd5b509092509050611a87565b348015610fde57600080fd5b5061091460048036036020811015610ff557600080fd5b810190602081018135600160201b81111561100f57600080fd5b82018360208201111561102157600080fd5b803590602001918460018302840111600160201b8311171561104257600080fd5b509092509050611b40565b34801561105957600080fd5b506109146004803603602081101561107057600080fd5b5035611bad565b34801561108357600080fd5b506109146004803603604081101561109a57600080fd5b810190602081018135600160201b8111156110b457600080fd5b8201836020820111156110c657600080fd5b803590602001918460018302840111600160201b831117156110e757600080fd5b9193509150356001600160a01b0316611bb9565b34801561110757600080fd5b506109146004803603604081101561111e57600080fd5b810190602081018135600160201b81111561113857600080fd5b82018360208201111561114a57600080fd5b803590602001918460018302840111600160201b8311171561116b57600080fd5b919390929091602081019035600160201b81111561118857600080fd5b82018360208201111561119a57600080fd5b803590602001918460018302840111600160201b831117156111bb57600080fd5b509092509050611c05565b3480156111d257600080fd5b50610914600480360360408110156111e957600080fd5b810190602081018135600160201b81111561120357600080fd5b82018360208201111561121557600080fd5b803590602001918460018302840111600160201b8311171561123657600080fd5b9193509150356001600160a01b0316611c78565b34801561125657600080fd5b506109146004803603602081101561126d57600080fd5b810190602081018135600160201b81111561128757600080fd5b82018360208201111561129957600080fd5b803590602001918460018302840111600160201b831117156112ba57600080fd5b509092509050611cc4565b3480156112d157600080fd5b50610914600480360360408110156112e857600080fd5b810190602081018135600160201b81111561130257600080fd5b82018360208201111561131457600080fd5b803590602001918460018302840111600160201b8311171561133557600080fd5b919350915035611d03565b34801561134c57600080fd5b50610914611d48565b34801561136157600080fd5b5061091461227d565b34801561137657600080fd5b506109146004803603602081101561138d57600080fd5b810190602081018135600160201b8111156113a757600080fd5b8201836020820111156113b957600080fd5b803590602001918460018302840111600160201b831117156113da57600080fd5b5090925090506122a8565b3480156113f157600080fd5b506113fa6118c3565b604080516001600160e01b03199092168252519081900360200190f35b34801561142357600080fd5b506109146004803603604081101561143a57600080fd5b810190602081018135600160201b81111561145457600080fd5b82018360208201111561146657600080fd5b803590602001918460018302840111600160201b8311171561148757600080fd5b919350915035612375565b5b60006060600060c060008060066107d05a03f1905050611493565b600d545b90565b6040805160006020808301919091528251808303909101815290820190915281565b6002600183836040518083838082843791909101948552505060405192839003602001909220805490925060ff19169050600183600281111561151657fe5b021790555061155a82828080601f0160208091040260200160405190810160405280939291908181526020018383808284376000920191909152506123ba92505050565b5050565b604080518082019091526004815263183c333360e11b6020909101527f420daffad4b177bce28bead5f76f7bc97ef63c3aae74c496db8ce6aafe9e651381565b6000816115ac5760006115af565b60015b60ff16905061155a6115c08261247b565b6124a5565b600a805460ff19166002179055565b60008061161684848080601f0160208091040260200160405190810160405280939291908181526020018383808284376000920191909152506124c292505050565b600e54604080516020808201939093526001600160e01b031990931683820152805160248185030181526044909301815282519282019290922060009081526009909152205491505092915050565b600060046000600e5485856040516020018084815260200183838082843780830192505050935050505060405160208183030381529060405280519060200120815260200190815260200160002054905092915050565b3330146116fa5760405162461bcd60e51b815260040180806020018281038252602b815260200180612872602b913960400191505060405180910390fd5b600d80546001908101909155600e8054604080516020808201939093526001600160e01b0319871681830152815160248183030181526044820183528051908401206000908152600984529182208054860190559254606484018181528651600495939492938893608490910191908401908083835b6020831061178f5780518252601f199092019160209182019101611770565b6001836020036101000a03801982511681845116808217855250505050505090500192505050604051602081830303815290604052805190602001208152602001908152602001600020600082825401925050819055505050565b6000816117f85760006117fb565b60015b60ff16905061184a84848080601f016020809104026020016040519081016040528093929190818152602001838380828437600092019190915250611845925085915061247b9050565b61251d565b50505050565b61184a84848080601f01602080910402602001604051908101604052809392919081815260200183838082843760009201919091525050604080516020601f8801819004810282018101909252868152925086915085908190840183828082843760009201919091525061251d92505050565b600160f81b81565b6118e06115c0826001600160a01b031661247b565b50565b600061192483838080601f0160208091040260200160405190810160405280939291908181526020018383808284376000920191909152506124c292505050565b6001600160e01b031981166000908152600660205260409020805491925060029160ff19166001835b021790555061195b81612618565b505050565b60008161196e576000611971565b60015b60ff16905061184a84848080601f0160208091040260200160405190810160405280939291908181526020018383808284376000920191909152506119bb925085915061247b9050565b6126a3565b60405180604001604052806004815260200163183c333360e11b81525081565b600a805460ff1916600117905561195b600c83836126f6565b6000611a3a85858080601f0160208091040260200160405190810160405280939291908181526020018383808284376000920191909152506124c292505050565b6001600160e01b031981166000908152600660209081526040808320805460ff1916600117905560089091529020909150611a769084846126f6565b50611a8081612618565b5050505050565b60018085856040518083838082843791909101948552505060405192839003602001909220805490925060ff191690506001836002811115611ac557fe5b021790555081816003868660405180838380828437808301925050509250505090815260200160405180910390209190611b009291906126f6565b5061184a84848080601f0160208091040260200160405190810160405280939291908181526020018383808284376000920191909152506123ba92505050565b6000611b8183838080601f0160208091040260200160405190810160405280939291908181526020018383808284376000920191909152506124c292505050565b6001600160e01b031981166000908152600660205260409020805491925060019160ff1916828061194d565b6118e06115c08261247b565b61195b83838080601f016020809104026020016040519081016040528093929190818152602001838380828437600092019190915250611845925050506001600160a01b03841661247b565b61184a84848080601f01602080910402602001604051908101604052809392919081815260200183838082843760009201919091525050604080516020601f880181900481028201810190925286815292508691508590819084018382808284376000920191909152506126a392505050565b61195b83838080601f0160208091040260200160405190810160405280939291908181526020018383808284376000920191909152506119bb925050506001600160a01b03841661247b565b61155a82828080601f0160208091040260200160405190810160405280939291908181526020018383808284376000920191909152506124a592505050565b61195b83838080601f016020809104026020016040519081016040528093929190818152602001838380828437600092019190915250611845925085915061247b9050565b600160f81b600090815260209081527f82ac279db26a206d9ba5a94c07ff940aea4b3bfde8820ec95f4efa0acfd0d5bc80546040805160026001841615610100026000190190931692909204601f8101859004850283018501909152808252606093919291830182828015611dfe5780601f10611dd357610100808354040283529160200191611dfe565b820191906000526020600020905b815481529060010190602001808311611de157829003601f168201915b5050835160208501209394505050505b604080518082019091526004815263183c333360e11b6020909101527f420daffad4b177bce28bead5f76f7bc97ef63c3aae74c496db8ce6aafe9e651381146120a85760006001836040518082805190602001908083835b60208310611e855780518252601f199092019160209182019101611e66565b51815160209384036101000a60001901801990921691161790529201948552506040519384900301909220805490925060ff191690506001836002811115611ec957fe5b0217905550604051806020016040528060008152506002836040518082805190602001908083835b60208310611f105780518252601f199092019160209182019101611ef1565b51815160209384036101000a60001901801990921691161790529201948552506040519384900381019093208451611f519591949190910192509050612774565b50604051806020016040528060008152506003836040518082805190602001908083835b60208310611f945780518252601f199092019160209182019101611f75565b51815160209384036101000a60001901801990921691161790529201948552506040519384900381019093208451611fd59591949190910192509050612774565b506000818152602081815260409182902080548351601f6002600019610100600186161502019093169290920491820184900484028101840190945280845290918301828280156120675780601f1061203c57610100808354040283529160200191612067565b820191906000526020600020905b81548152906001019060200180831161204a57829003601f168201915b5050604080516020808201808452600080845289815291829052929020905195975061209a959094509092509050612774565b505080516020820120611e0e565b604080518082019091526004815263183c333360e11b6020808301918252600160f81b6000908152905290516120ff917f82ac279db26a206d9ba5a94c07ff940aea4b3bfde8820ec95f4efa0acfd0d5bc91612774565b50600160f81b60005260056020527fde001afd1f75281f9d2ab22d4e0166be5a51dd890d7492e8fbf3e412e05eac0a5460e01b5b6001600160e01b03198116600160f81b146121f3576001600160e01b031981166000818152600660209081526040808320805460ff1916905580518083018083528482529484526007909252909120905183926121909291612774565b5060408051602080820180845260008084526001600160e01b031986168152600890925292902090516121c39290612774565b506001600160e01b0319166000908152600560205260409020805463ffffffff19811690915560e01b9050612133565b600160f81b6000908152600560209081527fde001afd1f75281f9d2ab22d4e0166be5a51dd890d7492e8fbf3e412e05eac0a805463ffffffff1916630100000017905560408051808301939093528051808403830181529281019052815161225f92600b920190612774565b5050600a805460ff1916905550506000600d55600e80546001019055565b600a805460ff191660011790556040805160208101918290526000908190526118e091600c91612774565b60018083836040518083838082843791909101948552505060405192839003602001909220805490925060ff1916905060018360028111156122e657fe5b0217905550604051806020016040528060008152506003838360405180838380828437808301925050509250505090815260200160405180910390209080519060200190612335929190612774565b5061155a82828080601f0160208091040260200160405190810160405280939291908181526020018383808284376000920191909152506123ba92505050565b61195b83838080601f0160208091040260200160405190810160405280939291908181526020018383808284376000920191909152506119bb925085915061247b9050565b80516020808301919091206000818152918290526040909120546002600019610100600184161502019091160461155a5760006020819052818152604090207f82ac279db26a206d9ba5a94c07ff940aea4b3bfde8820ec95f4efa0acfd0d5bc805461243a929190600260001961010060018416150201909116046127e2565b50600160f81b60009081526020908152825161195b917f82ac279db26a206d9ba5a94c07ff940aea4b3bfde8820ec95f4efa0acfd0d5bc9190850190612774565b60408051602080825281830190925260609160208201818036833750505060208101929092525090565b600a805460ff19169055805161155a90600b906020840190612774565b600080805b600481101561251657806008028482815181106124e057fe5b01602001517fff0000000000000000000000000000000000000000000000000000000000000016901c91909117906001016124c7565b5092915050565b60006001836040518082805190602001908083835b602083106125515780518252601f199092019160209182019101612532565b51815160209384036101000a60001901801990921691161790529201948552506040519384900301909220805490925060ff19169050600183600281111561259557fe5b0217905550806002836040518082805190602001908083835b602083106125cd5780518252601f1990920191602091820191016125ae565b51815160209384036101000a6000190180199092169116179052920194855250604051938490038101909320845161260e9591949190910192509050612774565b5061155a826123ba565b6001600160e01b031980821660009081526005602052604090205460e01b166118e05760056020527fde001afd1f75281f9d2ab22d4e0166be5a51dd890d7492e8fbf3e412e05eac0a80546001600160e01b03198316600090815260408120805463ffffffff90931663ffffffff19938416179055600160f81b9052815460e084901c911617905550565b60006126ae836124c2565b6001600160e01b031981166000908152600660209081526040808320805460ff191690556007825290912084519293506126ec929091850190612774565b5061195b81612618565b828054600181600116156101000203166002900490600052602060002090601f016020900481019282601f106127375782800160ff19823516178555612764565b82800160010185558215612764579182015b82811115612764578235825591602001919060010190612749565b50612770929150612857565b5090565b828054600181600116156101000203166002900490600052602060002090601f016020900481019282601f106127b557805160ff1916838001178555612764565b82800160010185558215612764579182015b828111156127645782518255916020019190600101906127c7565b828054600181600116156101000203166002900490600052602060002090601f016020900481019282601f1061281b5780548555612764565b8280016001018555821561276457600052602060002091601f016020900482015b8281111561276457825482559160010191906001019061283c565b6114b291905b80821115612770576000815560010161285d56fe43616e206f6e6c792062652063616c6c65642066726f6d2074686520636f6e747261637420697473656c66a2646970667358221220261e7fb94f8f23ddbd82d760cf69aa64a19d3f78354693ca6eeb00de99c2d81a64736f6c63430006060033",
  "linkReferences": {},
  "deployedLinkReferences": {}
}