{
  "_format": "hh-sol-artifact-1",
  "contractName": "DebugTransactionGuard",
  "sourceName": "third_party/safe-contracts/contracts/examples/guards/DebugTransactionGuard.sol",
  "abi": [
    {
      "anonymous": false,
      "inputs": [
        {
          "indexed": true,
          "internalType": "address",
          "name": "safe",
          "type": "address"
        },
        {
          "indexed": true,
          "internalType": "bytes32",
          "name": "txHash",
          "type": "bytes32"
        },
        {
          "indexed": true,
          "internalType": "uint256",
          "name": "nonce",
          "type": "uint256"
        },
        {
          "indexed": false,
          "internalType": "bool",
          "name": "success",
          "type": "bool"
        }
      ],
      "name": "GasUsage",
      "type": "event"
    },
    {
      "anonymous": false,
      "inputs": [
        {
          "indexed": true,
          "internalType": "address",
          "name": "safe",
          "type": "address"
        },
        {
          "indexed": true,
          "internalType": "bytes32",
          "name": "txHash",
          "type": "bytes32"
        },
        {
          "indexed": false,
          "internalType": "address",
          "name": "to",
          "type": "address"
        },
        {
          "indexed": false,
          "internalType": "uint256",
          "name": "value",
          "type": "uint256"
        },
        {
          "indexed": false,
          "internalType": "bytes",
          "name": "data",
          "type": "bytes"
        },
        {
          "indexed": false,
          "internalType": "enum Enum.Operation",
          "name": "operation",
          "type": "uint8"
        },
        {
          "indexed": false,
          "internalType": "uint256",
          "name": "safeTxGas",
          "type": "uint256"
        },
        {
          "indexed": false,
          "internalType": "bool",
          "name": "usesRefund",
          "type": "bool"
        },
        {
          "indexed": false,
          "internalType": "uint256",
          "name": "nonce",
          "type": "uint256"
        }
      ],
      "name": "TransactionDetails",
      "type": "event"
    },
    {
      "stateMutability": "nonpayable",
      "type": "fallback"
    },
    {
      "inputs": [
        {
          "internalType": "bytes32",
          "name": "txHash",
          "type": "bytes32"
        },
        {
          "internalType": "bool",
          "name": "success",
          "type": "bool"
        }
      ],
      "name": "checkAfterExecution",
      "outputs": [],
      "stateMutability": "nonpayable",
      "type": "function"
    },
    {
      "inputs": [
        {
          "internalType": "address",
          "name": "to",
          "type": "address"
        },
        {
          "internalType": "uint256",
          "name": "value",
          "type": "uint256"
        },
        {
          "internalType": "bytes",
          "name": "data",
          "type": "bytes"
        },
        {
          "internalType": "enum Enum.Operation",
          "name": "operation",
          "type": "uint8"
        },
        {
          "internalType": "uint256",
          "name": "safeTxGas",
          "type": "uint256"
        },
        {
          "internalType": "uint256",
          "name": "baseGas",
          "type": "uint256"
        },
        {
          "internalType": "uint256",
          "name": "gasPrice",
          "type": "uint256"
        },
        {
          "internalType": "address",
          "name": "gasToken",
          "type": "address"
        },
        {
          "internalType": "address payable",
          "name": "refundReceiver",
          "type": "address"
        },
        {
          "internalType": "bytes",
          "name": "",
          "type": "bytes"
        },
        {
          "internalType": "address",
          "name": "",
          "type": "address"
        }
      ],
      "name": "checkTransaction",
      "outputs": [],
      "stateMutability": "nonpayable",
      "type": "function"
    },
    {
      "inputs": [
        {
          "internalType": "bytes4",
          "name": "interfaceId",
          "type": "bytes4"
        }
      ],
      "name": "supportsInterface",
      "outputs": [
        {
          "internalType": "bool",
          "name": "",
          "type": "bool"
        }
      ],
      "stateMutability": "view",
      "type": "function"
    },
    {
      "inputs": [
        {
          "internalType": "bytes32",
          "name": "",
          "type": "bytes32"
        }
      ],
      "name": "txNonces",
      "outputs": [
        {
          "internalType": "uint256",
          "name": "",
          "type": "uint256"
        }
      ],
      "stateMutability": "view",
      "type": "function"
    }
  ],
  "bytecode": "0x608060405234801561001057600080fd5b506106fd806100206000396000f3fe608060405234801561001057600080fd5b506004361061004c5760003560e01c806301ffc9a71461004e57806375f0bb52146100a15780639327136814610220578063ddbdba6314610245575b005b61008d6004803603602081101561006457600080fd5b50357fffffffff0000000000000000000000000000000000000000000000000000000016610274565b604080519115158252519081900360200190f35b61004c60048036036101608110156100b857600080fd5b6001600160a01b03823516916020810135918101906060810160408201356401000000008111156100e857600080fd5b8201836020820111156100fa57600080fd5b8035906020019184600183028401116401000000008311171561011c57600080fd5b91908080601f016020809104026020016040519081016040528093929190818152602001838380828437600092019190915250929560ff8535169560208601359560408101359550606081013594506001600160a01b0360808201358116945060a08201351692919060e081019060c001356401000000008111156101a057600080fd5b8201836020820111156101b257600080fd5b803590602001918460018302840111640100000000831117156101d457600080fd5b91908080601f016020809104026020016040519081016040528093929190818152602001838380828437600092019190915250929550505090356001600160a01b0316915061030d9050565b61004c6004803603604081101561023657600080fd5b508035906020013515156105e9565b6102626004803603602081101561025b57600080fd5b50356106b5565b60408051918252519081900360200190f35b60007fffffffff0000000000000000000000000000000000000000000000000000000082167fe6d7a83a00000000000000000000000000000000000000000000000000000000148061030757507fffffffff0000000000000000000000000000000000000000000000000000000082167f01ffc9a700000000000000000000000000000000000000000000000000000000145b92915050565b60008060003390506001816001600160a01b031663affed0e06040518163ffffffff1660e01b815260040160206040518083038186803b15801561035057600080fd5b505afa158015610364573d6000803e3d6000fd5b505050506040513d602081101561037a57600080fd5b8101908080519060200190929190505050039250806001600160a01b031663d8d11f788f8f8f8f8f8f8f8f8f8d6040518b63ffffffff1660e01b8152600401808b6001600160a01b031681526020018a8152602001806020018960018111156103df57fe5b8152602001888152602001878152602001868152602001856001600160a01b03168152602001846001600160a01b0316815260200183815260200182810382528a818151815260200191508051906020019080838360005b8381101561044f578181015183820152602001610437565b50505050905090810190601f16801561047c5780820380516001836020036101000a031916815260200191505b509b50505050505050505050505060206040518083038186803b1580156104a257600080fd5b505afa1580156104b6573d6000803e3d6000fd5b505050506040513d60208110156104cc57600080fd5b810190808051906020019092919050505091505080336001600160a01b03167f1b68334da83afaffd8348d6c85c5146d8e7de31a6c034d2d522be12d615c4f7b8f8f8f8f8f60008f118a60405180886001600160a01b031681526020018781526020018060200186600181111561053f57fe5b81526020018581526020018415158152602001838152602001828103825287818151815260200191508051906020019080838360005b8381101561058d578181015183820152602001610575565b50505050905090810190601f1680156105ba5780820380516001836020036101000a031916815260200191505b509850505050505050505060405180910390a36000908152602081905260409020555050505050505050505050565b6000828152602081905260409020548061066457604080517f08c379a000000000000000000000000000000000000000000000000000000000815260206004820152601360248201527f436f756c64206e6f7420676574206e6f6e636500000000000000000000000000604482015290519081900360640190fd5b600083815260208181526040808320929092558151841515815291518392869233927f0dcc0fb56a30b6fe6b188f45b47369bc7f3c928a9748e245a79fc3f54ddd05689281900390910190a4505050565b6000602081905290815260409020548156fea2646970667358221220b8157a59f8e3b40f9baa0676e9d77030a6e31b249b2fa1709e05d1ed084ff8eb64736f6c63430007010033",
  "linkReferences": {},
  "deployedLinkReferences": {}
}