{
  "_format": "hh-sol-artifact-1",
  "contractName": "DebugTransactionGuard",
  "sourceName": "third_party/safe-contracts/contracts/examples/guards/DebugTransactionGuard.sol",
  "abi": [
    {
      "anonymous": false,
      "inputs": [
        {
          "indexed": true,
          "internalType": "address",
          "name": "safe",
          "type": "address"
        },
        {
          "indexed": true,
          "internalType": "bytes32",
          "name": "txHash",
          "type": "bytes32"
        },
        {
          "indexed": true,
          "internalType": "uint256",
          "name": "nonce",
          "type": "uint256"
        },
        {
          "indexed": false,
          "internalType": "bool",
          "name": "success",
          "type": "bool"
        }
      ],
      "name": "GasUsage",
      "type": "event"
    },
    {
      "anonymous": false,
      "inputs": [
        {
          "indexed": true,
          "internalType": "address",
          "name": "safe",
          "type": "address"
        },
        {
          "indexed": true,
          "internalType": "bytes32",
          "name": "txHash",
          "type": "bytes32"
        },
        {
          "indexed": false,
          "internalType": "address",
          "name": "to",
          "type": "address"
        },
        {
          "indexed": false,
          "internalType": "uint256",
          "name": "value",
          "type": "uint256"
        },
        {
          "indexed": false,
          "internalType": "bytes",
          "name": "data",
          "type": "bytes"
        },
        {
          "indexed": false,
          "internalType": "enum Enum.Operation",
          "name": "operation",
          "type": "uint8"
        },
        {
          "indexed": false,
          "internalType": "uint256",
          "name": "safeTxGas",
          "type": "uint256"
        },
        {
          "indexed": false,
          "internalType": "bool",
          "name": "usesRefund",
          "type": "bool"
        },
        {
          "indexed": false,
          "internalType": "uint256",
          "name": "nonce",
          "type": "uint256"
        }
      ],
      "name": "TransactionDetails",
      "type": "event"
    },
    {
      "stateMutability": "nonpayable",
      "type": "fallback"
    },
    {
      "inputs": [
        {
          "internalType": "bytes32",
          "name": "txHash",
          "type": "bytes32"
        },
        {
          "internalType": "bool",
          "name": "success",
          "type": "bool"
        }
      ],
      "name": "checkAfterExecution",
      "outputs": [],
      "stateMutability": "nonpayable",
      "type": "function"
    },
    {
      "inputs": [
        {
          "internalType": "address",
          "name": "to",
          "type": "address"
        },
        {
          "internalType": "uint256",
          "name": "value",
          "type": "uint256"
        },
        {
          "internalType": "bytes",
          "name": "data",
          "type": "bytes"
        },
        {
          "internalType": "enum Enum.Operation",
          "name": "operation",
          "type": "uint8"
        },
        {
          "internalType": "uint256",
          "name": "safeTxGas",
          "type": "uint256"
        },
        {
          "internalType": "uint256",
          "name": "baseGas",
          "type": "uint256"
        },
        {
          "internalType": "uint256",
          "name": "gasPrice",
          "type": "uint256"
        },
        {
          "internalType": "address",
          "name": "gasToken",
          "type": "address"
        },
        {
          "internalType": "address payable",
          "name": "refundReceiver",
          "type": "address"
        },
        {
          "internalType": "bytes",
          "name": "",
          "type": "bytes"
        },
        {
          "internalType": "address",
          "name": "",
          "type": "address"
        }
      ],
      "name": "checkTransaction",
      "outputs": [],
      "stateMutability": "nonpayable",
      "type": "function"
    },
    {
      "inputs": [
        {
          "internalType": "bytes4",
          "name": "interfaceId",
          "type": "bytes4"
        }
      ],
      "name": "supportsInterface",
      "outputs": [
        {
          "internalType": "bool",
          "name": "",
          "type": "bool"
        }
      ],
      "stateMutability": "view",
      "type": "function"
    },
    {
      "inputs": [
        {
          "internalType": "bytes32",
          "name": "",
          "type": "bytes32"
        }
      ],
      "name": "txNonces",
      "outputs": [
        {
          "internalType": "uint256",
          "name": "",
          "type": "uint256"
        }
      ],
      "stateMutability": "view",
      "type": "function"
    }
  ],
  "bytecode": "0x608060405234801561001057600080fd5b506107b4806100206000396000f3fe608060405234801561001057600080fd5b506004361061004c5760003560e01c806301ffc9a71461004e57806375f0bb5214610077578063932713681461008a578063ddbdba631461009d575b005b61006161005c36600461057e565b6100bd565b60405161006e91906106fa565b60405180910390f35b61004c610085366004610439565b610158565b61004c61009836600461054b565b6102dd565b6100b06100ab36600461051b565b610380565b60405161006e919061073c565b60007fffffffff0000000000000000000000000000000000000000000000000000000082167fe6d7a83a00000000000000000000000000000000000000000000000000000000148061015057507fffffffff0000000000000000000000000000000000000000000000000000000082167f01ffc9a700000000000000000000000000000000000000000000000000000000145b90505b919050565b60008060003390506001816001600160a01b031663affed0e06040518163ffffffff1660e01b815260040160206040518083038186803b15801561019b57600080fd5b505afa1580156101af573d6000803e3d6000fd5b505050506040513d601f19601f820116820180604052508101906101d39190610533565b6101dd9190610745565b9250806001600160a01b031663d8d11f788f8f8f8f8f8f8f8f8f8d6040518b63ffffffff1660e01b815260040161021d9a99989796959493929190610687565b60206040518083038186803b15801561023557600080fd5b505afa158015610249573d6000803e3d6000fd5b505050506040513d601f19601f8201168201806040525081019061026d9190610533565b91505080336001600160a01b03167f1b68334da83afaffd8348d6c85c5146d8e7de31a6c034d2d522be12d615c4f7b8f8f8f8f8f60008f118a6040516102b99796959493929190610632565b60405180910390a36000908152602081905260409020555050505050505050505050565b6000828152602081905260409020548061032c576040517f08c379a000000000000000000000000000000000000000000000000000000000815260040161032390610705565b60405180910390fd5b60008381526020819052604080822091909155518190849033907f0dcc0fb56a30b6fe6b188f45b47369bc7f3c928a9748e245a79fc3f54ddd0568906103739087906106fa565b60405180910390a4505050565b60006020819052908152604090205481565b80356001600160a01b038116811461015357600080fd5b600082601f8301126103b9578081fd5b813567ffffffffffffffff808211156103d4576103d4610768565b604051601f8301601f1916810160200182811182821017156103f8576103f8610768565b60405282815284830160200186101561040f578384fd5b82602086016020830137918201602001929092529392505050565b80356002811061015357600080fd5b60008060008060008060008060008060006101608c8e03121561045a578687fd5b6104638c610392565b9a5060208c0135995067ffffffffffffffff8060408e01351115610485578788fd5b6104958e60408f01358f016103a9565b99506104a360608e0161042a565b985060808d0135975060a08d0135965060c08d013595506104c660e08e01610392565b94506104d56101008e01610392565b9350806101208e013511156104e8578283fd5b506104fa8d6101208e01358e016103a9565b91506105096101408d01610392565b90509295989b509295989b9093969950565b60006020828403121561052c578081fd5b5035919050565b600060208284031215610544578081fd5b5051919050565b6000806040838503121561055d578182fd5b8235915060208301358015158114610573578182fd5b809150509250929050565b60006020828403121561058f578081fd5b81357fffffffff00000000000000000000000000000000000000000000000000000000811681146105be578182fd5b9392505050565b60008151808452815b818110156105ea576020818501810151868301820152016105ce565b818111156105fb5782602083870101525b50601f01601f19169290920160200192915050565b6002811061062e57634e487b7160e01b600052602160045260246000fd5b9052565b60006001600160a01b038916825287602083015260e0604083015261065a60e08301886105c5565b90506106696060830187610610565b608082019490945291151560a083015260c090910152949350505050565b60006101406001600160a01b03808e1684528c60208501528160408501526106b18285018d6105c5565b92506106c0606085018c610610565b60808401999099525060a082019690965260c081019490945291851660e08401529093166101008201526101200191909152949350505050565b901515815260200190565b60208082526013908201527f436f756c64206e6f7420676574206e6f6e636500000000000000000000000000604082015260600190565b90815260200190565b60008282101561076357634e487b7160e01b81526011600452602481fd5b500390565b634e487b7160e01b600052604160045260246000fdfea26469706673582212204385aa5c66934d5ae90771aad0e69a590bdf62b629d8c254645d75b001a2171f64736f6c63430008000033",
  "linkReferences": {},
  "deployedLinkReferences": {}
}