{
  "_format": "hh-sol-artifact-1",
  "contractName": "CreateCall",
  "sourceName": "third_party/safe-contracts/contracts/libraries/CreateCall.sol",
  "abi": [
    {
      "anonymous": false,
      "inputs": [
        {
          "indexed": false,
          "internalType": "address",
          "name": "newContract",
          "type": "address"
        }
      ],
      "name": "ContractCreation",
      "type": "event"
    },
    {
      "inputs": [
        {
          "internalType": "uint256",
          "name": "value",
          "type": "uint256"
        },
        {
          "internalType": "bytes",
          "name": "deploymentData",
          "type": "bytes"
        }
      ],
      "name": "performCreate",
      "outputs": [
        {
          "internalType": "address",
          "name": "newContract",
          "type": "address"
        }
      ],
      "stateMutability": "nonpayable",
      "type": "function"
    },
    {
      "inputs": [
        {
          "internalType": "uint256",
          "name": "value",
          "type": "uint256"
        },
        {
          "internalType": "bytes",
          "name": "deploymentData",
          "type": "bytes"
        },
        {
          "internalType": "bytes32",
          "name": "salt",
          "type": "bytes32"
        }
      ],
      "name": "performCreate2",
      "outputs": [
        {
          "internalType": "address",
          "name": "newContract",
          "type": "address"
        }
      ],
      "stateMutability": "nonpayable",
      "type": "function"
    }
  ],
  "bytecode": "0x608060405234801561001057600080fd5b5061033d806100206000396000f3fe608060405234801561001057600080fd5b50600436106100365760003560e01c80634847be6f1461003b5780634c8c9ea114610106575b600080fd5b6100ea6004803603606081101561005157600080fd5b8135919081019060408101602082013564010000000081111561007357600080fd5b82018360208201111561008557600080fd5b803590602001918460018302840111640100000000831117156100a757600080fd5b91908080601f01602080910402602001604051908101604052809392919081815260200183838082843760009201919091525092955050913592506101b3915050565b604080516001600160a01b039092168252519081900360200190f35b6100ea6004803603604081101561011c57600080fd5b8135919081019060408101602082013564010000000081111561013e57600080fd5b82018360208201111561015057600080fd5b8035906020019184600183028401116401000000008311171561017257600080fd5b91908080601f01602080910402602001604051908101604052809392919081815260200183838082843760009201919091525092955061025e945050505050565b60008183518460200186f590506001600160a01b03811661021b576040805162461bcd60e51b815260206004820152601960248201527f436f756c64206e6f74206465706c6f7920636f6e747261637400000000000000604482015290519081900360640190fd5b604080516001600160a01b038316815290517f4db17dd5e4732fb6da34a148104a592783ca119a1e7bb8829eba6cbadef0b5119181900360200190a19392505050565b600081516020830184f090506001600160a01b0381166102c5576040805162461bcd60e51b815260206004820152601960248201527f436f756c64206e6f74206465706c6f7920636f6e747261637400000000000000604482015290519081900360640190fd5b604080516001600160a01b038316815290517f4db17dd5e4732fb6da34a148104a592783ca119a1e7bb8829eba6cbadef0b5119181900360200190a19291505056fea264697066735822122091fd63103c4252b252353e18e97d260c653cb67c35f6197bf7a5bc50e24ede9464736f6c63430007010033",
  "linkReferences": {},
  "deployedLinkReferences": {}
}