{
  "_format": "hh-sol-artifact-1",
  "contractName": "SimulateTxAccessor",
  "sourceName": "third_party/safe-contracts/contracts/accessors/SimulateTxAccessor.sol",
  "abi": [
    {
      "inputs": [],
      "stateMutability": "nonpayable",
      "type": "constructor"
    },
    {
      "inputs": [
        {
          "internalType": "address",
          "name": "to",
          "type": "address"
        },
        {
          "internalType": "uint256",
          "name": "value",
          "type": "uint256"
        },
        {
          "internalType": "bytes",
          "name": "data",
          "type": "bytes"
        },
        {
          "internalType": "enum Enum.Operation",
          "name": "operation",
          "type": "uint8"
        }
      ],
      "name": "simulate",
      "outputs": [
        {
          "internalType": "uint256",
          "name": "estimate",
          "type": "uint256"
        },
        {
          "internalType": "bool",
          "name": "success",
          "type": "bool"
        },
        {
          "internalType": "bytes",
          "name": "returnData",
          "type": "bytes"
        }
      ],
      "stateMutability": "nonpayable",
      "type": "function"
    }
  ],
  "bytecode": "0x60a060405234801561001057600080fd5b5030606081901b6080526103086100316000398061016a52506103086000f3fe608060405234801561001057600080fd5b506004361061002b5760003560e01c80631c5fb21114610030575b600080fd5b6100c56004803603608081101561004657600080fd5b73ffffffffffffffffffffffffffffffffffffffff8235169160208101359181019060608101604082013564010000000081111561008357600080fd5b82018360208201111561009557600080fd5b803590602001918460018302840111640100000000831117156100b757600080fd5b91935091503560ff1661014d565b60405180848152602001831515815260200180602001828103825283818151815260200191508051906020019080838360005b838110156101105781810151838201526020016100f8565b50505050905090810190601f16801561013d5780820380516001836020036101000a031916815260200191505b5094505050505060405180910390f35b60008060603073ffffffffffffffffffffffffffffffffffffffff7f00000000000000000000000000000000000000000000000000000000000000001614156101e1576040517f08c379a000000000000000000000000000000000000000000000000000000000815260040180806020018281038252603981526020018061029a6039913960400191505060405180910390fd5b60005a9050610229898989898080601f0160208091040260200160405190810160405280939291908181526020018383808284376000920191909152508b925050505a610257565b92505a8103935060405160203d0181016040523d81523d6000602083013e8092505050955095509592505050565b6000600183600181111561026757fe5b1415610280576000808551602087018986f49050610290565b600080855160208701888a87f190505b9594505050505056fe53696d756c61746554784163636573736f722073686f756c64206f6e6c792062652063616c6c6564207669612064656c656761746563616c6ca2646970667358221220d0a745c78def77bfb22e74539d02c33feadb35f0e922fb730cf79a7c98b7008364736f6c63430007010033",
  "linkReferences": {},
  "deployedLinkReferences": {}
}