{
  "_format": "hh-sol-artifact-1",
  "contractName": "TestHandler",
  "sourceName": "third_party/safe-contracts/contracts/test/TestHandler.sol",
  "abi": [
    {
      "inputs": [],
      "name": "dudududu",
      "outputs": [
        {
          "internalType": "address",
          "name": "sender",
          "type": "address"
        },
        {
          "internalType": "address",
          "name": "manager",
          "type": "address"
        }
      ],
      "stateMutability": "view",
      "type": "function"
    }
  ],
  "bytecode": "0x608060405234801561001057600080fd5b5060d98061001f6000396000f3fe6080604052348015600f57600080fd5b506004361060285760003560e01c806354955e5914602d575b600080fd5b6033607c565b604051808373ffffffffffffffffffffffffffffffffffffffff1681526020018273ffffffffffffffffffffffffffffffffffffffff1681526020019250505060405180910390f35b60008060856093565b608b609f565b915091509091565b60131936013560601c90565b339056fea2646970667358221220bfbf1c68c2a1e3483e86417f09fd843d0dd730eea504f73437de422dbd38b8d164736f6c63430007010033",
  "linkReferences": {},
  "deployedLinkReferences": {}
}