{
  "_format": "hh-sol-artifact-1",
  "contractName": "ReentrancyTransactionGuard",
  "sourceName": "third_party/safe-contracts/contracts/examples/guards/ReentrancyTransactionGuard.sol",
  "abi": [
    {
      "stateMutability": "nonpayable",
      "type": "fallback"
    },
    {
      "inputs": [
        {
          "internalType": "bytes32",
          "name": "",
          "type": "bytes32"
        },
        {
          "internalType": "bool",
          "name": "",
          "type": "bool"
        }
      ],
      "name": "checkAfterExecution",
      "outputs": [],
      "stateMutability": "nonpayable",
      "type": "function"
    },
    {
      "inputs": [
        {
          "internalType": "address",
          "name": "",
          "type": "address"
        },
        {
          "internalType": "uint256",
          "name": "",
          "type": "uint256"
        },
        {
          "internalType": "bytes",
          "name": "",
          "type": "bytes"
        },
        {
          "internalType": "enum Enum.Operation",
          "name": "",
          "type": "uint8"
        },
        {
          "internalType": "uint256",
          "name": "",
          "type": "uint256"
        },
        {
          "internalType": "uint256",
          "name": "",
          "type": "uint256"
        },
        {
          "internalType": "uint256",
          "name": "",
          "type": "uint256"
        },
        {
          "internalType": "address",
          "name": "",
          "type": "address"
        },
        {
          "internalType": "address payable",
          "name": "",
          "type": "address"
        },
        {
          "internalType": "bytes",
          "name": "",
          "type": "bytes"
        },
        {
          "internalType": "address",
          "name": "",
          "type": "address"
        }
      ],
      "name": "checkTransaction",
      "outputs": [],
      "stateMutability": "nonpayable",
      "type": "function"
    },
    {
      "inputs": [
        {
          "internalType": "bytes4",
          "name": "interfaceId",
          "type": "bytes4"
        }
      ],
      "name": "supportsInterface",
      "outputs": [
        {
          "internalType": "bool",
          "name": "",
          "type": "bool"
        }
      ],
      "stateMutability": "view",
      "type": "function"
    }
  ],
  "bytecode": "0x608060405234801561001057600080fd5b50610407806100206000396000f3fe608060405234801561001057600080fd5b50600436106100415760003560e01c806301ffc9a71461004357806375f0bb5214610096578063932713681461023c575b005b6100826004803603602081101561005957600080fd5b50357fffffffff0000000000000000000000000000000000000000000000000000000016610261565b604080519115158252519081900360200190f35b61004160048036036101608110156100ad57600080fd5b73ffffffffffffffffffffffffffffffffffffffff823516916020810135918101906060810160408201356401000000008111156100ea57600080fd5b8201836020820111156100fc57600080fd5b8035906020019184600183028401116401000000008311171561011e57600080fd5b91908080601f016020809104026020016040519081016040528093929190818152602001838380828437600092019190915250929560ff85351695602086013595604081013595506060810135945073ffffffffffffffffffffffffffffffffffffffff60808201358116945060a08201351692919060e081019060c001356401000000008111156101af57600080fd5b8201836020820111156101c157600080fd5b803590602001918460018302840111640100000000831117156101e357600080fd5b91908080601f0160208091040260200160405190810160405280939291908181526020018383808284376000920191909152509295505050903573ffffffffffffffffffffffffffffffffffffffff1691506102fa9050565b6100416004803603604081101561025257600080fd5b50803590602001351515610390565b60007fffffffff0000000000000000000000000000000000000000000000000000000082167fe6d7a83a0000000000000000000000000000000000000000000000000000000014806102f457507fffffffff0000000000000000000000000000000000000000000000000000000082167f01ffc9a700000000000000000000000000000000000000000000000000000000145b92915050565b60006103046103ad565b805490915060ff161561037857604080517f08c379a000000000000000000000000000000000000000000000000000000000815260206004820152601360248201527f5265656e7472616e637920646574656374656400000000000000000000000000604482015290519081900360640190fd5b805460ff191660011790555050505050505050505050565b600061039a6103ad565b805460ff19169115159190911790555050565b7f7c1d45961c2d0298f999d2c3d4a7a5e0f688d137f4c32466e3056a97e673b83a9056fea26469706673582212200d1aa077af1de613c0ab880490850446d489158287895d6fcdafe8e854fb4e9d64736f6c63430007010033",
  "linkReferences": {},
  "deployedLinkReferences": {}
}