{
  "_format": "hh-sol-artifact-1",
  "contractName": "ModuleManager",
  "sourceName": "third_party/safe-contracts/contracts/base/ModuleManager.sol",
  "abi": [
    {
      "anonymous": false,
      "inputs": [
        {
          "indexed": false,
          "internalType": "address",
          "name": "module",
          "type": "address"
        }
      ],
      "name": "DisabledModule",
      "type": "event"
    },
    {
      "anonymous": false,
      "inputs": [
        {
          "indexed": false,
          "internalType": "address",
          "name": "module",
          "type": "address"
        }
      ],
      "name": "EnabledModule",
      "type": "event"
    },
    {
      "anonymous": false,
      "inputs": [
        {
          "indexed": true,
          "internalType": "address",
          "name": "module",
          "type": "address"
        }
      ],
      "name": "ExecutionFromModuleFailure",
      "type": "event"
    },
    {
      "anonymous": false,
      "inputs": [
        {
          "indexed": true,
          "internalType": "address",
          "name": "module",
          "type": "address"
        }
      ],
      "name": "ExecutionFromModuleSuccess",
      "type": "event"
    },
    {
      "inputs": [
        {
          "internalType": "address",
          "name": "prevModule",
          "type": "address"
        },
        {
          "internalType": "address",
          "name": "module",
          "type": "address"
        }
      ],
      "name": "disableModule",
      "outputs": [],
      "stateMutability": "nonpayable",
      "type": "function"
    },
    {
      "inputs": [
        {
          "internalType": "address",
          "name": "module",
          "type": "address"
        }
      ],
      "name": "enableModule",
      "outputs": [],
      "stateMutability": "nonpayable",
      "type": "function"
    },
    {
      "inputs": [
        {
          "internalType": "address",
          "name": "to",
          "type": "address"
        },
        {
          "internalType": "uint256",
          "name": "value",
          "type": "uint256"
        },
        {
          "internalType": "bytes",
          "name": "data",
          "type": "bytes"
        },
        {
          "internalType": "enum Enum.Operation",
          "name": "operation",
          "type": "uint8"
        }
      ],
      "name": "execTransactionFromModule",
      "outputs": [
        {
          "internalType": "bool",
          "name": "success",
          "type": "bool"
        }
      ],
      "stateMutability": "nonpayable",
      "type": "function"
    },
    {
      "inputs": [
        {
          "internalType": "address",
          "name": "to",
          "type": "address"
        },
        {
          "internalType": "uint256",
          "name": "value",
          "type": "uint256"
        },
        {
          "internalType": "bytes",
          "name": "data",
          "type": "bytes"
        },
        {
          "internalType": "enum Enum.Operation",
          "name": "operation",
          "type": "uint8"
        }
      ],
      "name": "execTransactionFromModuleReturnData",
      "outputs": [
        {
          "internalType": "bool",
          "name": "success",
          "type": "bool"
        },
        {
          "internalType": "bytes",
          "name": "returnData",
          "type": "bytes"
        }
      ],
      "stateMutability": "nonpayable",
      "type": "function"
    },
    {
      "inputs": [
        {
          "internalType": "address",
          "name": "start",
          "type": "address"
        },
        {
          "internalType": "uint256",
          "name": "pageSize",
          "type": "uint256"
        }
      ],
      "name": "getModulesPaginated",
      "outputs": [
        {
          "internalType": "address[]",
          "name": "array",
          "type": "address[]"
        },
        {
          "internalType": "address",
          "name": "next",
          "type": "address"
        }
      ],
      "stateMutability": "view",
      "type": "function"
    },
    {
      "inputs": [
        {
          "internalType": "address",
          "name": "module",
          "type": "address"
        }
      ],
      "name": "isModuleEnabled",
      "outputs": [
        {
          "internalType": "bool",
          "name": "",
          "type": "bool"
        }
      ],
      "stateMutability": "view",
      "type": "function"
    }
  ],
  "bytecode": "0x608060405234801561001057600080fd5b50610984806100206000396000f3fe608060405234801561001057600080fd5b50600436106100725760003560e01c8063610b592511610050578063610b5925146102b2578063cc2f8452146102da578063e009cfde1461036a57610072565b80632d9ad53d14610077578063468721a7146100b15780635229073f14610171575b600080fd5b61009d6004803603602081101561008d57600080fd5b50356001600160a01b0316610398565b604080519115158252519081900360200190f35b61009d600480360360808110156100c757600080fd5b6001600160a01b03823516916020810135918101906060810160408201356401000000008111156100f757600080fd5b82018360208201111561010957600080fd5b8035906020019184600183028401116401000000008311171561012b57600080fd5b91908080601f0160208091040260200160405190810160405280939291908181526020018383808284376000920191909152509295505050903560ff1691506103d39050565b6102316004803603608081101561018757600080fd5b6001600160a01b03823516916020810135918101906060810160408201356401000000008111156101b757600080fd5b8201836020820111156101c957600080fd5b803590602001918460018302840111640100000000831117156101eb57600080fd5b91908080601f0160208091040260200160405190810160405280939291908181526020018383808284376000920191909152509295505050903560ff1691506104c79050565b60405180831515815260200180602001828103825283818151815260200191508051906020019080838360005b8381101561027657818101518382015260200161025e565b50505050905090810190601f1680156102a35780820380516001836020036101000a031916815260200191505b50935050505060405180910390f35b6102d8600480360360208110156102c857600080fd5b50356001600160a01b03166104fd565b005b610306600480360360408110156102f057600080fd5b506001600160a01b03813516906020013561066d565b6040518080602001836001600160a01b03168152602001828103825284818151815260200191508051906020019060200280838360005b8381101561035557818101518382015260200161033d565b50505050905001935050505060405180910390f35b6102d86004803603604081101561038057600080fd5b506001600160a01b0381358116916020013516610759565b600060016001600160a01b038316148015906103cd57506001600160a01b038281166000908152602081905260409020541615155b92915050565b6000336001148015906103fd5750336000908152602081905260409020546001600160a01b031615155b61044e576040805162461bcd60e51b815260206004820152600560248201527f4753313034000000000000000000000000000000000000000000000000000000604482015290519081900360640190fd5b61045b858585855a6108b6565b905080156104935760405133907f6895c13664aa4f67288b25d7a21d7aaa34916e355fb9b6fae0a139a9085becb890600090a26104bf565b60405133907facd2c8702804128fdb0db2bb49f6d127dd0181c13fd45dbfe16de0930e2bd37590600090a25b949350505050565b600060606104d7868686866103d3565b915060405160203d0181016040523d81523d6000602083013e8091505094509492505050565b6105056108f8565b6001600160a01b0381161580159061052757506001600160a01b038116600114155b610560576040805162461bcd60e51b8152602060048201526005602482015264475331303160d81b604482015290519081900360640190fd5b6001600160a01b0381811660009081526020819052604090205416156105cd576040805162461bcd60e51b815260206004820152600560248201527f4753313032000000000000000000000000000000000000000000000000000000604482015290519081900360640190fd5b600060208181527fada5013122d395ba3c54772283fb069b10426056ef8ca54750cb9bb552a59e7d80546001600160a01b03858116808652604080872080549390941673ffffffffffffffffffffffffffffffffffffffff1993841617909355600190955282541684179091558051928352517fecdf3a3effea5783a3c4c2140e677577666428d44ed9d474a0b3a4c9943f84409281900390910190a150565b606060008267ffffffffffffffff8111801561068857600080fd5b506040519080825280602002602001820160405280156106b2578160200160208202803683370190505b506001600160a01b0380861660009081526020819052604081205492945091165b6001600160a01b038116158015906106f557506001600160a01b038116600114155b801561070057508482105b1561074b578084838151811061071257fe5b6001600160a01b0392831660209182029290920181019190915291811660009081529182905260409091205460019290920191166106d3565b908352919491935090915050565b6107616108f8565b6001600160a01b0381161580159061078357506001600160a01b038116600114155b6107bc576040805162461bcd60e51b8152602060048201526005602482015264475331303160d81b604482015290519081900360640190fd5b6001600160a01b0382811660009081526020819052604090205481169082161461082d576040805162461bcd60e51b815260206004820152600560248201527f4753313033000000000000000000000000000000000000000000000000000000604482015290519081900360640190fd5b6001600160a01b038181166000818152602081815260408083208054888716855282852080549190971673ffffffffffffffffffffffffffffffffffffffff1991821617909655928490528254909416909155825191825291517faab4fa2b463f581b2b32cb3b7e3b704b9ce37cc209b5fb4d77e593ace4054276929181900390910190a15050565b600060018360018111156108c657fe5b14156108df576000808551602087018986f490506108ef565b600080855160208701888a87f190505b95945050505050565b33301461094c576040805162461bcd60e51b815260206004820152600560248201527f4753303331000000000000000000000000000000000000000000000000000000604482015290519081900360640190fd5b56fea2646970667358221220fde7b3347483fb2acde2f60423b8624417677bfc82f05646f35bc14a00797edf64736f6c63430007010033",
  "linkReferences": {},
  "deployedLinkReferences": {}
}