{
  "_format": "hh-sol-artifact-1",
  "contractName": "DefaultCallbackHandler",
  "sourceName": "third_party/safe-contracts/contracts/handler/DefaultCallbackHandler.sol",
  "abi": [
    {
      "inputs": [],
      "name": "NAME",
      "outputs": [
        {
          "internalType": "string",
          "name": "",
          "type": "string"
        }
      ],
      "stateMutability": "view",
      "type": "function"
    },
    {
      "inputs": [],
      "name": "VERSION",
      "outputs": [
        {
          "internalType": "string",
          "name": "",
          "type": "string"
        }
      ],
      "stateMutability": "view",
      "type": "function"
    },
    {
      "inputs": [
        {
          "internalType": "address",
          "name": "",
          "type": "address"
        },
        {
          "internalType": "address",
          "name": "",
          "type": "address"
        },
        {
          "internalType": "uint256[]",
          "name": "",
          "type": "uint256[]"
        },
        {
          "internalType": "uint256[]",
          "name": "",
          "type": "uint256[]"
        },
        {
          "internalType": "bytes",
          "name": "",
          "type": "bytes"
        }
      ],
      "name": "onERC1155BatchReceived",
      "outputs": [
        {
          "internalType": "bytes4",
          "name": "",
          "type": "bytes4"
        }
      ],
      "stateMutability": "pure",
      "type": "function"
    },
    {
      "inputs": [
        {
          "internalType": "address",
          "name": "",
          "type": "address"
        },
        {
          "internalType": "address",
          "name": "",
          "type": "address"
        },
        {
          "internalType": "uint256",
          "name": "",
          "type": "uint256"
        },
        {
          "internalType": "uint256",
          "name": "",
          "type": "uint256"
        },
        {
          "internalType": "bytes",
          "name": "",
          "type": "bytes"
        }
      ],
      "name": "onERC1155Received",
      "outputs": [
        {
          "internalType": "bytes4",
          "name": "",
          "type": "bytes4"
        }
      ],
      "stateMutability": "pure",
      "type": "function"
    },
    {
      "inputs": [
        {
          "internalType": "address",
          "name": "",
          "type": "address"
        },
        {
          "internalType": "address",
          "name": "",
          "type": "address"
        },
        {
          "internalType": "uint256",
          "name": "",
          "type": "uint256"
        },
        {
          "internalType": "bytes",
          "name": "",
          "type": "bytes"
        }
      ],
      "name": "onERC721Received",
      "outputs": [
        {
          "internalType": "bytes4",
          "name": "",
          "type": "bytes4"
        }
      ],
      "stateMutability": "pure",
      "type": "function"
    },
    {
      "inputs": [
        {
          "internalType": "bytes4",
          "name": "interfaceId",
          "type": "bytes4"
        }
      ],
      "name": "supportsInterface",
      "outputs": [
        {
          "internalType": "bool",
          "name": "",
          "type": "bool"
        }
      ],
      "stateMutability": "view",
      "type": "function"
    },
    {
      "inputs": [
        {
          "internalType": "address",
          "name": "",
          "type": "address"
        },
        {
          "internalType": "address",
          "name": "",
          "type": "address"
        },
        {
          "internalType": "address",
          "name": "",
          "type": "address"
        },
        {
          "internalType": "uint256",
          "name": "",
          "type": "uint256"
        },
        {
          "internalType": "bytes",
          "name": "",
          "type": "bytes"
        },
        {
          "internalType": "bytes",
          "name": "",
          "type": "bytes"
        }
      ],
      "name": "tokensReceived",
      "outputs": [],
      "stateMutability": "pure",
      "type": "function"
    }
  ],
  "bytecode": "0x608060405234801561001057600080fd5b50610633806100206000396000f3fe608060405234801561001057600080fd5b506004361061007c5760003560e01c8063a3f4df7e1161005b578063a3f4df7e146100df578063bc197c81146100f4578063f23a6e6114610107578063ffa1ad741461011a5761007c565b806223de291461008157806301ffc9a714610096578063150b7a02146100bf575b600080fd5b61009461008f36600461033a565b610122565b005b6100a96100a436600461055b565b61012c565b6040516100b6919061058a565b60405180910390f35b6100d26100cd366004610478565b6101b2565b6040516100b69190610595565b6100e76101c3565b6040516100b691906105aa565b6100d26101023660046103e2565b6101fc565b6100d26101153660046104e5565b610229565b6100e7610254565b5050505050505050565b60006001600160e01b031982167f4e2312e000000000000000000000000000000000000000000000000000000000148061017657506001600160e01b03198216630a85bd0160e11b145b806101aa57506001600160e01b031982167f01ffc9a700000000000000000000000000000000000000000000000000000000145b90505b919050565b630a85bd0160e11b95945050505050565b6040518060400160405280601881526020017f44656661756c742043616c6c6261636b2048616e646c6572000000000000000081525081565b7fbc197c810000000000000000000000000000000000000000000000000000000098975050505050505050565b7ff23a6e61000000000000000000000000000000000000000000000000000000009695505050505050565b6040518060400160405280600581526020017f312e302e3000000000000000000000000000000000000000000000000000000081525081565b803573ffffffffffffffffffffffffffffffffffffffff811681146101ad57600080fd5b60008083601f8401126102c2578182fd5b50813567ffffffffffffffff8111156102d9578182fd5b60208301915083602080830285010111156102f357600080fd5b9250929050565b60008083601f84011261030b578182fd5b50813567ffffffffffffffff811115610322578182fd5b6020830191508360208285010111156102f357600080fd5b60008060008060008060008060c0898b031215610355578384fd5b61035e8961028d565b975061036c60208a0161028d565b965061037a60408a0161028d565b955060608901359450608089013567ffffffffffffffff8082111561039d578586fd5b6103a98c838d016102fa565b909650945060a08b01359150808211156103c1578384fd5b506103ce8b828c016102fa565b999c989b5096995094979396929594505050565b60008060008060008060008060a0898b0312156103fd578384fd5b6104068961028d565b975061041460208a0161028d565b9650604089013567ffffffffffffffff80821115610430578586fd5b61043c8c838d016102b1565b909850965060608b0135915080821115610454578586fd5b6104608c838d016102b1565b909650945060808b01359150808211156103c1578384fd5b60008060008060006080868803121561048f578081fd5b6104988661028d565b94506104a66020870161028d565b935060408601359250606086013567ffffffffffffffff8111156104c8578182fd5b6104d4888289016102fa565b969995985093965092949392505050565b60008060008060008060a087890312156104fd578182fd5b6105068761028d565b95506105146020880161028d565b94506040870135935060608701359250608087013567ffffffffffffffff81111561053d578283fd5b61054989828a016102fa565b979a9699509497509295939492505050565b60006020828403121561056c578081fd5b81356001600160e01b031981168114610583578182fd5b9392505050565b901515815260200190565b6001600160e01b031991909116815260200190565b6000602080835283518082850152825b818110156105d6578581018301518582016040015282016105ba565b818111156105e75783604083870101525b50601f01601f191692909201604001939250505056fea264697066735822122026dccec780215ecdb409db4caeb17bb48b64ba9eb1cd5a1aa3a68e5bc583c07f64736f6c63430008000033",
  "linkReferences": {},
  "deployedLinkReferences": {}
}